{
  "contractName": "Approval",
  "abi": [
    {
      "constant": true,
      "inputs": [
        {
          "name": "",
          "type": "uint256"
        }
      ],
      "name": "hasApproval",
      "outputs": [
        {
          "name": "",
          "type": "bool"
        }
      ],
      "payable": false,
      "stateMutability": "view",
      "type": "function"
    },
    {
      "constant": true,
      "inputs": [
        {
          "name": "",
          "type": "address"
        }
      ],
      "name": "identityApproved",
      "outputs": [
        {
          "name": "",
          "type": "bool"
        }
      ],
      "payable": false,
      "stateMutability": "view",
      "type": "function"
    },
    {
      "constant": true,
      "inputs": [],
      "name": "owner",
      "outputs": [
        {
          "name": "",
          "type": "address"
        }
      ],
      "payable": false,
      "stateMutability": "view",
      "type": "function"
    },
    {
      "constant": true,
      "inputs": [
        {
          "name": "",
          "type": "bytes20"
        }
      ],
      "name": "nodeApproved",
      "outputs": [
        {
          "name": "",
          "type": "bool"
        }
      ],
      "payable": false,
      "stateMutability": "view",
      "type": "function"
    },
    {
      "constant": false,
      "inputs": [
        {
          "name": "newOwner",
          "type": "address"
        }
      ],
      "name": "transferOwnership",
      "outputs": [],
      "payable": false,
      "stateMutability": "nonpayable",
      "type": "function"
    },
    {
      "constant": true,
      "inputs": [
        {
          "name": "",
          "type": "uint256"
        }
      ],
      "name": "allNodes",
      "outputs": [
        {
          "name": "",
          "type": "bytes20"
        }
      ],
      "payable": false,
      "stateMutability": "view",
      "type": "function"
    },
    {
      "anonymous": false,
      "inputs": [
        {
          "indexed": false,
          "name": "nodeId",
          "type": "bytes20"
        }
      ],
      "name": "NodeApproved",
      "type": "event"
    },
    {
      "anonymous": false,
      "inputs": [
        {
          "indexed": false,
          "name": "nodeId",
          "type": "bytes20"
        }
      ],
      "name": "NodeRemoved",
      "type": "event"
    },
    {
      "anonymous": false,
      "inputs": [
        {
          "indexed": true,
          "name": "previousOwner",
          "type": "address"
        },
        {
          "indexed": true,
          "name": "newOwner",
          "type": "address"
        }
      ],
      "name": "OwnershipTransferred",
      "type": "event"
    },
    {
      "constant": true,
      "inputs": [
        {
          "name": "identity",
          "type": "address"
        }
      ],
      "name": "identityHasApproval",
      "outputs": [
        {
          "name": "",
          "type": "bool"
        }
      ],
      "payable": false,
      "stateMutability": "view",
      "type": "function"
    },
    {
      "constant": true,
      "inputs": [
        {
          "name": "nodeId",
          "type": "bytes20"
        }
      ],
      "name": "nodeHasApproval",
      "outputs": [
        {
          "name": "",
          "type": "bool"
        }
      ],
      "payable": false,
      "stateMutability": "view",
      "type": "function"
    },
    {
      "constant": true,
      "inputs": [],
      "name": "getAllNodes",
      "outputs": [
        {
          "name": "",
          "type": "bytes20[]"
        }
      ],
      "payable": false,
      "stateMutability": "view",
      "type": "function"
    },
    {
      "constant": true,
      "inputs": [],
      "name": "getNodeStatuses",
      "outputs": [
        {
          "name": "",
          "type": "bool[]"
        }
      ],
      "payable": false,
      "stateMutability": "view",
      "type": "function"
    },
    {
      "constant": false,
      "inputs": [
        {
          "name": "identity",
          "type": "address"
        },
        {
          "name": "nodeId",
          "type": "bytes20"
        },
        {
          "name": "nodeIndex",
          "type": "uint256"
        }
      ],
      "name": "approve",
      "outputs": [],
      "payable": false,
      "stateMutability": "nonpayable",
      "type": "function"
    },
    {
      "constant": false,
      "inputs": [
        {
          "name": "identity",
          "type": "address"
        },
        {
          "name": "nodeId",
          "type": "bytes20"
        },
        {
          "name": "nodeIndex",
          "type": "uint256"
        }
      ],
      "name": "removeApproval",
      "outputs": [],
      "payable": false,
      "stateMutability": "nonpayable",
      "type": "function"
    },
    {
      "constant": false,
      "inputs": [
        {
          "name": "identity",
          "type": "address"
        },
        {
          "name": "newApproval",
          "type": "bool"
        }
      ],
      "name": "setIdentityApproval",
      "outputs": [],
      "payable": false,
      "stateMutability": "nonpayable",
      "type": "function"
    }
  ],
  "bytecode": "0x6080604052336000806101000a81548173ffffffffffffffffffffffffffffffffffffffff021916908373ffffffffffffffffffffffffffffffffffffffff16021790555061135a806100536000396000f3006080604052600436106100c5576000357c0100000000000000000000000000000000000000000000000000000000900463ffffffff16806301278eae146100ca5780630e38ed3c1461010f57806322471e16146101635780636850e7fb146101be57806370a594451461022457806389a367f91461028a5780638da5cb5b146102f657806397fa84061461034d578063a1174e7d146103a8578063bf190db914610414578063f2fde38b14610468578063fe72ae13146104ab578063feb5b2e91461050a575b600080fd5b3480156100d657600080fd5b506100f560048036038101908080359060200190929190505050610559565b604051808215151515815260200191505060405180910390f35b34801561011b57600080fd5b5061014960048036038101908080356bffffffffffffffffffffffff1916906020019092919050505061058c565b604051808215151515815260200191505060405180910390f35b34801561016f57600080fd5b506101a4600480360381019080803573ffffffffffffffffffffffffffffffffffffffff1690602001909291905050506105d4565b604051808215151515815260200191505060405180910390f35b3480156101ca57600080fd5b50610222600480360381019080803573ffffffffffffffffffffffffffffffffffffffff16906020019092919080356bffffffffffffffffffffffff19169060200190929190803590602001909291905050506105f4565b005b34801561023057600080fd5b50610288600480360381019080803573ffffffffffffffffffffffffffffffffffffffff16906020019092919080356bffffffffffffffffffffffff19169060200190929190803590602001909291905050506109af565b005b34801561029657600080fd5b5061029f610d8c565b6040518080602001828103825283818151815260200191508051906020019060200280838360005b838110156102e25780820151818401526020810190506102c7565b505050509050019250505060405180910390f35b34801561030257600080fd5b5061030b610e09565b604051808273ffffffffffffffffffffffffffffffffffffffff1673ffffffffffffffffffffffffffffffffffffffff16815260200191505060405180910390f35b34801561035957600080fd5b5061038e600480360381019080803573ffffffffffffffffffffffffffffffffffffffff169060200190929190505050610e2e565b604051808215151515815260200191505060405180910390f35b3480156103b457600080fd5b506103bd610e9b565b6040518080602001828103825283818151815260200191508051906020019060200280838360005b838110156104005780820151818401526020810190506103e5565b505050509050019250505060405180910390f35b34801561042057600080fd5b5061044e60048036038101908080356bffffffffffffffffffffffff19169060200190929190505050610f1b565b604051808215151515815260200191505060405180910390f35b34801561047457600080fd5b506104a9600480360381019080803573ffffffffffffffffffffffffffffffffffffffff169060200190929190505050610f3b565b005b3480156104b757600080fd5b506104d66004803603810190808035906020019092919050505061111f565b60405180826bffffffffffffffffffffffff19166bffffffffffffffffffffffff1916815260200191505060405180910390f35b34801561051657600080fd5b50610557600480360381019080803573ffffffffffffffffffffffffffffffffffffffff169060200190929190803515159060200190929190505050611156565b005b60028181548110151561056857fe5b9060005260206000209060209182820401919006915054906101000a900460ff1681565b600060036000836bffffffffffffffffffffffff19166bffffffffffffffffffffffff1916815260200190815260200160002060009054906101000a900460ff169050919050565b60046020528060005260406000206000915054906101000a900460ff1681565b6000809054906101000a900473ffffffffffffffffffffffffffffffffffffffff1673ffffffffffffffffffffffffffffffffffffffff163373ffffffffffffffffffffffffffffffffffffffff161415156106de576040517f08c379a000000000000000000000000000000000000000000000000000000000815260040180806020018281038252602a8152602001807f4f6e6c7920636f6e7472616374206f776e65722063616e2063616c6c2074686981526020017f732066756e6374696f6e0000000000000000000000000000000000000000000081525060400191505060405180910390fd5b600073ffffffffffffffffffffffffffffffffffffffff168373ffffffffffffffffffffffffffffffffffffffff16141580156107645750600460008473ffffffffffffffffffffffffffffffffffffffff1673ffffffffffffffffffffffffffffffffffffffff16815260200190815260200160002060009054906101000a900460ff165b156107c2576000600460008573ffffffffffffffffffffffffffffffffffffffff1673ffffffffffffffffffffffffffffffffffffffff16815260200190815260200160002060006101000a81548160ff0219169083151502179055505b60006c01000000000000000000000000026bffffffffffffffffffffffff1916826bffffffffffffffffffffffff19161415801561083b575060036000836bffffffffffffffffffffffff19166bffffffffffffffffffffffff1916815260200190815260200160002060009054906101000a900460ff165b156109aa57816bffffffffffffffffffffffff191660018281548110151561085f57fe5b9060005260206000200160009054906101000a90046c01000000000000000000000000026bffffffffffffffffffffffff19161480156108ca57506002818154811015156108a957fe5b90600052602060002090602091828204019190069054906101000a900460ff165b156109a95760006002828154811015156108e057fe5b90600052602060002090602091828204019190066101000a81548160ff021916908315150217905550600060036000846bffffffffffffffffffffffff19166bffffffffffffffffffffffff1916815260200190815260200160002060006101000a81548160ff0219169083151502179055507f2f73372f3632d6b888bdc5473ddc2111f50e72b65b75aaffb6061ae61d01485a8260405180826bffffffffffffffffffffffff19166bffffffffffffffffffffffff1916815260200191505060405180910390a15b5b505050565b6000809054906101000a900473ffffffffffffffffffffffffffffffffffffffff1673ffffffffffffffffffffffffffffffffffffffff163373ffffffffffffffffffffffffffffffffffffffff16141515610a99576040517f08c379a000000000000000000000000000000000000000000000000000000000815260040180806020018281038252602a8152602001807f4f6e6c7920636f6e7472616374206f776e65722063616e2063616c6c2074686981526020017f732066756e6374696f6e0000000000000000000000000000000000000000000081525060400191505060405180910390fd5b600073ffffffffffffffffffffffffffffffffffffffff168373ffffffffffffffffffffffffffffffffffffffff16141515610b28576001600460008573ffffffffffffffffffffffffffffffffffffffff1673ffffffffffffffffffffffffffffffffffffffff16815260200190815260200160002060006101000a81548160ff0219169083151502179055505b60006c01000000000000000000000000026bffffffffffffffffffffffff1916826bffffffffffffffffffffffff1916141515610d875760018054905081108015610bc25750816bffffffffffffffffffffffff1916600182815481101515610b8d57fe5b9060005260206000200160009054906101000a90046c01000000000000000000000000026bffffffffffffffffffffffff1916145b8015610bfa5750600281815481101515610bd857fe5b90600052602060002090602091828204019190069054906101000a900460ff16155b15610c3e576001600282815481101515610c1057fe5b90600052602060002090602091828204019190066101000a81548160ff021916908315150217905550610d86565b60018290806001815401808255809150509060018203906000526020600020016000909192909190916101000a81548173ffffffffffffffffffffffffffffffffffffffff02191690836c01000000000000000000000000900402179055505060026001908060018154018082558091505090600182039060005260206000209060209182820401919006909192909190916101000a81548160ff02191690831515021790555050600160036000846bffffffffffffffffffffffff19166bffffffffffffffffffffffff1916815260200190815260200160002060006101000a81548160ff0219169083151502179055507ff7521880b0f9408d030feb29ac3c9e02abad64c074936ee468aac417cc731b188260405180826bffffffffffffffffffffffff19166bffffffffffffffffffffffff1916815260200191505060405180910390a15b5b505050565b60606002805480602002602001604051908101604052809291908181526020018280548015610dff57602002820191906000526020600020906000905b82829054906101000a900460ff16151581526020019060010190602082600001049283019260010382029150808411610dc95790505b5050505050905090565b6000809054906101000a900473ffffffffffffffffffffffffffffffffffffffff1681565b6000806001805490501415610e465760019050610e96565b600460008373ffffffffffffffffffffffffffffffffffffffff1673ffffffffffffffffffffffffffffffffffffffff16815260200190815260200160002060009054906101000a900460ff1690505b919050565b60606001805480602002602001604051908101604052809291908181526020018280548015610f1157602002820191906000526020600020905b8160009054906101000a90046c01000000000000000000000000026bffffffffffffffffffffffff191681526020019060010190808311610ed5575b5050505050905090565b60036020528060005260406000206000915054906101000a900460ff1681565b6000809054906101000a900473ffffffffffffffffffffffffffffffffffffffff1673ffffffffffffffffffffffffffffffffffffffff163373ffffffffffffffffffffffffffffffffffffffff16141515611025576040517f08c379a000000000000000000000000000000000000000000000000000000000815260040180806020018281038252602a8152602001807f4f6e6c7920636f6e7472616374206f776e65722063616e2063616c6c2074686981526020017f732066756e6374696f6e0000000000000000000000000000000000000000000081525060400191505060405180910390fd5b600073ffffffffffffffffffffffffffffffffffffffff168173ffffffffffffffffffffffffffffffffffffffff161415151561106157600080fd5b8073ffffffffffffffffffffffffffffffffffffffff166000809054906101000a900473ffffffffffffffffffffffffffffffffffffffff1673ffffffffffffffffffffffffffffffffffffffff167f8be0079c531659141344cd1fd0a4f28419497f9722a3daafe3b4186f6b6457e060405160405180910390a3806000806101000a81548173ffffffffffffffffffffffffffffffffffffffff021916908373ffffffffffffffffffffffffffffffffffffffff16021790555050565b60018181548110151561112e57fe5b906000526020600020016000915054906101000a90046c010000000000000000000000000281565b6000809054906101000a900473ffffffffffffffffffffffffffffffffffffffff1673ffffffffffffffffffffffffffffffffffffffff163373ffffffffffffffffffffffffffffffffffffffff16141515611240576040517f08c379a000000000000000000000000000000000000000000000000000000000815260040180806020018281038252602a8152602001807f4f6e6c7920636f6e7472616374206f776e65722063616e2063616c6c2074686981526020017f732066756e6374696f6e0000000000000000000000000000000000000000000081525060400191505060405180910390fd5b600073ffffffffffffffffffffffffffffffffffffffff168273ffffffffffffffffffffffffffffffffffffffff16141580156112cd5750600460008373ffffffffffffffffffffffffffffffffffffffff1673ffffffffffffffffffffffffffffffffffffffff16815260200190815260200160002060009054906101000a900460ff16151581151514155b1561132a5780600460008473ffffffffffffffffffffffffffffffffffffffff1673ffffffffffffffffffffffffffffffffffffffff16815260200190815260200160002060006101000a81548160ff0219169083151502179055505b50505600a165627a7a723058203ae50a9eff06fbc6eb79ea1fcc488804c282f542f0b07ebc8bef814743a01e1f0029",
  "source": "pragma solidity ^0.4.24;\n\n/**\n* @title Ownable\n* @dev The Ownable contract has an owner address, and provides basic authorization control\n* functions, this simplifies the implementation of \"user permissions\".\n*/\ncontract Ownable {\n    address public owner;\n\n    event OwnershipTransferred(address indexed previousOwner, address indexed newOwner);\n\n    /**\n    * @dev The Ownable constructor sets the original `owner` of the contract to the sender\n    * account.\n    */\n    constructor () public {\n        owner = msg.sender;\n    }\n\n    /**\n    * @dev Throws if called by any account other than the owner.\n    */\n    modifier onlyOwner() {\n        require(msg.sender == owner, \"Only contract owner can call this function\");\n        _;\n    }\n\n    /**\n    * @dev Allows the current owner to transfer control of the contract to a newOwner.\n    * @param newOwner The address to transfer ownership to.\n    */\n    function transferOwnership(address newOwner) public onlyOwner {\n        require(newOwner != address(0));\n        emit OwnershipTransferred(owner, newOwner);\n        owner = newOwner;\n    }\n\n}\n\ncontract Approval is Ownable{\n    bytes20[] public allNodes;\n    bool[] public hasApproval;\n    mapping (bytes20 => bool) public nodeApproved;\n\tmapping (address => bool) public identityApproved;\n\n    event NodeApproved(bytes20 nodeId);\n    event NodeRemoved(bytes20 nodeId);\n\n\tfunction identityHasApproval(address identity)\n    public view returns(bool) {\n        if(allNodes.length == 0) return true;\n        return identityApproved[identity];\n    }\n\n    function nodeHasApproval(bytes20 nodeId)\n    public view returns(bool) {\n        return nodeApproved[nodeId];\n    }\n\n    function getAllNodes() public view returns(bytes20[]){\n        return allNodes;\n    }\n\n    function getNodeStatuses() public view returns(bool[]){\n        return hasApproval;\n    }\n    \n    function approve(address identity, bytes20 nodeId, uint256 nodeIndex) \n    public onlyOwner {\n        if(identity != address(0)) identityApproved[identity] = true;\n\n        if(nodeId != bytes20(0)) {\n            if(nodeIndex < allNodes.length && allNodes[nodeIndex] == nodeId && !hasApproval[nodeIndex]) {\n                hasApproval[nodeIndex] = true;\n            }\n            else {\n                allNodes.push(nodeId);\n                hasApproval.push(true);\n                nodeApproved[nodeId] = true;\n                emit NodeApproved(nodeId);\n            }\n        }\n    }\n\n    function removeApproval(address identity, bytes20 nodeId, uint256 nodeIndex) \n    public onlyOwner {\n        if(identity != address(0) && identityApproved[identity]){\n            identityApproved[identity] = false;\n        }\n        if(nodeId != bytes20(0) && nodeApproved[nodeId]){\n            if(allNodes[nodeIndex] == nodeId && hasApproval[nodeIndex]) {\n                hasApproval[nodeIndex] = false;\n                nodeApproved[nodeId] = false;\n                emit NodeRemoved(nodeId);\n            }\n        }\n    }\n\n\tfunction setIdentityApproval(address identity, bool newApproval) \n\tpublic onlyOwner {\n\t\tif(identity != address(0) && newApproval != identityApproved[identity])\n\t\t\tidentityApproved[identity] = newApproval;\n\t}\n}",
  "sourcePath": "/Users/uroskukic/Documents/Projects/Starfleet/builders-demo/truffle/contracts/Approval.sol",
  "compiler": {
    "name": "solc",
    "version": "0.4.26+commit.4563c3fc.Emscripten.clang"
  },
  "schemaVersion": "3.3.3",
  "updatedAt": "2021-01-28T12:35:17.417Z",
  "devdoc": {
    "methods": {
      "transferOwnership(address)": {
        "details": "Allows the current owner to transfer control of the contract to a newOwner.",
        "params": {
          "newOwner": "The address to transfer ownership to."
        }
      }
    }
  },
  "userdoc": {
    "methods": {}
  }
}