{
  "contractName": "BasicToken",
  "abi": [
    {
      "constant": true,
      "inputs": [],
      "name": "totalSupply",
      "outputs": [
        {
          "name": "",
          "type": "uint256"
        }
      ],
      "payable": false,
      "stateMutability": "view",
      "type": "function"
    },
    {
      "anonymous": false,
      "inputs": [
        {
          "indexed": true,
          "name": "from",
          "type": "address"
        },
        {
          "indexed": true,
          "name": "to",
          "type": "address"
        },
        {
          "indexed": false,
          "name": "value",
          "type": "uint256"
        }
      ],
      "name": "Transfer",
      "type": "event"
    },
    {
      "constant": false,
      "inputs": [
        {
          "name": "_to",
          "type": "address"
        },
        {
          "name": "_value",
          "type": "uint256"
        }
      ],
      "name": "transfer",
      "outputs": [
        {
          "name": "",
          "type": "bool"
        }
      ],
      "payable": false,
      "stateMutability": "nonpayable",
      "type": "function"
    },
    {
      "constant": true,
      "inputs": [
        {
          "name": "_owner",
          "type": "address"
        }
      ],
      "name": "balanceOf",
      "outputs": [
        {
          "name": "balance",
          "type": "uint256"
        }
      ],
      "payable": false,
      "stateMutability": "view",
      "type": "function"
    }
  ],
  "bytecode": "0x608060405234801561001057600080fd5b50610419806100206000396000f300608060405260043610610057576000357c0100000000000000000000000000000000000000000000000000000000900463ffffffff16806318160ddd1461005c57806370a0823114610087578063a9059cbb146100de575b600080fd5b34801561006857600080fd5b50610071610143565b6040518082815260200191505060405180910390f35b34801561009357600080fd5b506100c8600480360381019080803573ffffffffffffffffffffffffffffffffffffffff169060200190929190505050610149565b6040518082815260200191505060405180910390f35b3480156100ea57600080fd5b50610129600480360381019080803573ffffffffffffffffffffffffffffffffffffffff16906020019092919080359060200190929190505050610192565b604051808215151515815260200191505060405180910390f35b60005481565b6000600160008373ffffffffffffffffffffffffffffffffffffffff1673ffffffffffffffffffffffffffffffffffffffff168152602001908152602001600020549050919050565b60008073ffffffffffffffffffffffffffffffffffffffff168373ffffffffffffffffffffffffffffffffffffffff16141515156101cf57600080fd5b600160003373ffffffffffffffffffffffffffffffffffffffff1673ffffffffffffffffffffffffffffffffffffffff16815260200190815260200160002054821115151561021d57600080fd5b61026f82600160003373ffffffffffffffffffffffffffffffffffffffff1673ffffffffffffffffffffffffffffffffffffffff168152602001908152602001600020546103b690919063ffffffff16565b600160003373ffffffffffffffffffffffffffffffffffffffff1673ffffffffffffffffffffffffffffffffffffffff1681526020019081526020016000208190555061030482600160008673ffffffffffffffffffffffffffffffffffffffff1673ffffffffffffffffffffffffffffffffffffffff168152602001908152602001600020546103cf90919063ffffffff16565b600160008573ffffffffffffffffffffffffffffffffffffffff1673ffffffffffffffffffffffffffffffffffffffff168152602001908152602001600020819055508273ffffffffffffffffffffffffffffffffffffffff163373ffffffffffffffffffffffffffffffffffffffff167fddf252ad1be2c89b69c2b068fc378daa952ba7f163c4a11628f55a4df523b3ef846040518082815260200191505060405180910390a36001905092915050565b60008282111515156103c457fe5b818303905092915050565b60008082840190508381101515156103e357fe5b80915050929150505600a165627a7a72305820ba6571da7a2509f72486d88b605023beb657f79bff91c30318e6971e2b5db5200029",
  "source": "pragma solidity ^0.4.18;\n\n/**\n * @title SafeMath\n * @dev Math operations with safety checks that throw on error\n */\n\n\nlibrary SafeMath {\n\tfunction mul(uint256 a, uint256 b) internal pure returns (uint256) {\n\t\tuint256 c = a * b;\n\t\tassert(a == 0 || c / a == b);\n\t\treturn c;\n\t}\n\n\tfunction div(uint256 a, uint256 b) internal pure returns (uint256) {\n\t\t// assert(b > 0); // Solidity automatically throws when dividing by 0\n\t\tuint256 c = a / b;\n\t\t// assert(a == b * c + a % b); // There is no case in which this doesn't hold\n\t\treturn c;\n\t}\n\n\tfunction sub(uint256 a, uint256 b) internal pure returns (uint256) {\n\t\tassert(b <= a);\n\t\treturn a - b;\n\t}\n\n\tfunction add(uint256 a, uint256 b) internal pure returns (uint256) {\n\t\tuint256 c = a + b;\n\t\tassert(c >= a);\n\t\treturn c;\n\t}\n}\n\n/**\n * @title Ownable\n * @dev The Ownable contract has an owner address, and provides basic authorization control\n * functions, this simplifies the implementation of \"user permissions\".\n */\ncontract Ownable {\n\taddress public owner;\n\tevent OwnershipTransferred(address indexed previousOwner, address indexed newOwner);\n\n\t/**\n\t * @dev The Ownable constructor sets the original `owner` of the contract to the sender\n\t * account.\n\t */\n\tfunction Ownable() public { owner = msg.sender; }\n\n\t/**\n\t * @dev Throws if called by any account other than the owner.\n\t */\n\tmodifier onlyOwner() { require(msg.sender == owner); _; }\n\n\n\t/**\n\t * @dev Allows the current owner to transfer control of the contract to a newOwner.\n\t * @param newOwner The address to transfer ownership to.\n\t */\n\tfunction transferOwnership(address newOwner) onlyOwner public {\n\t\trequire(newOwner != address(0));\n\t\tOwnershipTransferred(owner, newOwner);\n\t\towner = newOwner;\n\t}\n\n}\n\n/**\n * @title ERC20Basic\n * @dev Simpler version of ERC20 interface\n * @dev see https://github.com/ethereum/EIPs/issues/179\n */\ncontract ERC20Basic {\n\tuint256 public totalSupply;\n\tfunction balanceOf(address who) public constant returns (uint256);\n\tfunction transfer(address to, uint256 value) public returns (bool);\n\tevent Transfer(address indexed from, address indexed to, uint256 value);\n}\n\n\n/**\n * @title Basic token\n * @dev Basic version of StandardToken, with no allowances.\n */\ncontract BasicToken is ERC20Basic {\n\tusing SafeMath for uint256;\n\n\tmapping(address => uint256) balances;\n\n\t/**\n\t* @dev transfer token for a specified address\n\t* @param _to The address to transfer to.\n\t* @param _value The amount to be transferred.\n\t*/\n\tfunction transfer(address _to, uint256 _value) public returns (bool) {\n\t\trequire(_to != address(0));\n\t\trequire(_value <= balances[msg.sender]);\n\n\t\t// SafeMath.sub will throw if there is not enough balance.\n\t\tbalances[msg.sender] = balances[msg.sender].sub(_value);\n\t\tbalances[_to] = balances[_to].add(_value);\n\t\tTransfer(msg.sender, _to, _value);\n\t\treturn true;\n\t}\n\n\t/**\n\t* @dev Gets the balance of the specified address.\n\t* @param _owner The address to query the the balance of.\n\t* @return An uint256 representing the amount owned by the passed address.\n\t*/\n\tfunction balanceOf(address _owner) public constant returns (uint256 balance) {\n\t\treturn balances[_owner];\n\t}\n\n}\n\n\n/**\n * @title ERC20 interface\n * @dev see https://github.com/ethereum/EIPs/issues/20\n */\ncontract ERC20 is ERC20Basic {\n\tfunction allowance(address owner, address spender) public constant returns (uint256);\n\tfunction transferFrom(address from, address to, uint256 value) public returns (bool);\n\tfunction approve(address spender, uint256 value) public returns (bool);\n\tevent Approval(address indexed owner, address indexed spender, uint256 value);\n}\n\n/**\n * @title Standard ERC20 token\n *\n * @dev Implementation of the basic standard token.\n * @dev https://github.com/ethereum/EIPs/issues/20\n * @dev Based on code by FirstBlood: https://github.com/Firstbloodio/token/blob/master/smart_contract/FirstBloodToken.sol\n */\ncontract StandardToken is ERC20, BasicToken {\n\n\tmapping (address => mapping (address => uint256)) internal allowed;\n\n\n\t/**\n\t * @dev Transfer tokens from one address to another\n\t * @param _from address The address which you want to send tokens from\n\t * @param _to address The address which you want to transfer to\n\t * @param _value uint256 the amount of tokens to be transferred\n\t */\n\tfunction transferFrom(address _from, address _to, uint256 _value) public returns (bool) {\n\t\trequire(_to != address(0));\n\t\trequire(_value <= balances[_from]);\n\t\trequire(_value <= allowed[_from][msg.sender]);\n\n\t\tbalances[_from] = balances[_from].sub(_value);\n\t\tbalances[_to] = balances[_to].add(_value);\n\t\tallowed[_from][msg.sender] = allowed[_from][msg.sender].sub(_value);\n\t\tTransfer(_from, _to, _value);\n\t\treturn true;\n\t}\n\n\t/**\n\t * @dev Approve the passed address to spend the specified amount of tokens on behalf of msg.sender.\n\t *\n\t * Beware that changing an allowance with this method brings the risk that someone may use both the old\n\t * and the new allowance by unfortunate transaction ordering. One possible solution to mitigate this\n\t * race condition is to first reduce the spender's allowance to 0 and set the desired value afterwards:\n\t * https://github.com/ethereum/EIPs/issues/20#issuecomment-263524729\n\t * @param _spender The address which will spend the funds.\n\t * @param _value The amount of tokens to be spent.\n\t */\n\tfunction approve(address _spender, uint256 _value) public returns (bool) {\n\t\t// mitigating the race condition\n\t\tassert(allowed[msg.sender][_spender] == 0 || _value == 0);\n\n\t\tallowed[msg.sender][_spender] = _value;\n\t\tApproval(msg.sender, _spender, _value);\n\t\treturn true;\n\t}\n\n\t/**\n\t * @dev Function to check the amount of tokens that an owner allowed to a spender.\n\t * @param _owner address The address which owns the funds.\n\t * @param _spender address The address which will spend the funds.\n\t * @return A uint256 specifying the amount of tokens still available for the spender.\n\t */\n\tfunction allowance(address _owner, address _spender) public constant returns (uint256 remaining) {\n\t\treturn allowed[_owner][_spender];\n\t}\n\n\t/**\n\t * approve should be called when allowed[_spender] == 0. To increment\n\t * allowed value is better to use this function to avoid 2 calls (and wait until\n\t * the first transaction is mined)\n\t * From MonolithDAO Token.sol\n\t */\n\tfunction increaseApproval (address _spender, uint _addedValue) public returns (bool success) {\n\t\tallowed[msg.sender][_spender] = allowed[msg.sender][_spender].add(_addedValue);\n\t\tApproval(msg.sender, _spender, allowed[msg.sender][_spender]);\n\t\treturn true;\n\t}\n\n\tfunction decreaseApproval (address _spender, uint _subtractedValue) public returns (bool success) {\n\t\tuint oldValue = allowed[msg.sender][_spender];\n\t\tif (_subtractedValue > oldValue) {\n\t\t\tallowed[msg.sender][_spender] = 0;\n\t\t} else {\n\t\t\tallowed[msg.sender][_spender] = oldValue.sub(_subtractedValue);\n\t\t}\n\t\tApproval(msg.sender, _spender, allowed[msg.sender][_spender]);\n\t\treturn true;\n\t}\n\n}\n\n/**\n * @title Mintable token\n * @dev Simple ERC20 Token example, with mintable token creation\n * @dev Issue: * https://github.com/OpenZeppelin/zeppelin-solidity/issues/120\n * Based on code by TokenMarketNet: https://github.com/TokenMarketNet/ico/blob/master/contracts/MintableToken.sol\n */\n\ncontract MintableToken is StandardToken, Ownable {\n\tevent Mint(address indexed to, uint256 amount);\n\tevent MintFinished();\n\n\tbool public mintingFinished = false;\n\n\n\tmodifier canMint() {\n\t\trequire(!mintingFinished);\n\t\t_;\n\t}\n\n\t/**\n\t * @dev Function to mint tokens\n\t * @param _to The address that will receive the minted tokens.\n\t * @param _amount The amount of tokens to mint.\n\t * @return A boolean that indicates if the operation was successful.\n\t */\n\tfunction mint(address _to, uint256 _amount) onlyOwner canMint public returns (bool) {\n\t\ttotalSupply = totalSupply.add(_amount);\n\t\tbalances[_to] = balances[_to].add(_amount);\n\t\tMint(_to, _amount);\n\t\tTransfer(0x0, _to, _amount);\n\t\treturn true;\n\t}\n\n\t/**\n\t * @dev Function to stop minting new tokens.\n\t * @return True if the operation was successful.\n\t */\n\tfunction finishMinting() onlyOwner public returns (bool) {\n\t\tmintingFinished = true;\n\t\tMintFinished();\n\t\treturn true;\n\t}\n}\n\ncontract TracToken is MintableToken {\n\n\tstring public constant name = 'Test Trace Token';\n\tstring public constant symbol = 'TTRAC';\n\tuint8 public constant decimals = 18; // one TRAC = 10^18 Tracks\n\tuint256 public startTime = 1516028400; // initial startTime from tokensale contract\n\tuint256 public constant bountyReward = 1e25;\n\tuint256 public constant preicoAndAdvisors = 4e25;\n\tuint256 public constant liquidityPool = 25e24;\n\tuint256 public constant futureDevelopment = 1e26;\n\tuint256 public constant teamAndFounders = 75e24;\n\tuint256 public constant CORRECTION = 9605598917469000000000;  // overrun tokens\n\n\t// Notice: Including compensation for the overminting in initial contract for 9605598917469000000000 TRACKs (~9605.6 Trace tokens)\n\tuint256[8] public founderAmounts = [uint256( teamAndFounders.div(8).sub(CORRECTION) ),teamAndFounders.div(8),teamAndFounders.div(8),teamAndFounders.div(8),teamAndFounders.div(8),teamAndFounders.div(8),teamAndFounders.div(8),teamAndFounders.div(8)];\n\tuint256[2] public preicoAndAdvisorsAmounts = [ uint256(preicoAndAdvisors.mul(2).div(5)),preicoAndAdvisors.mul(2).div(5)];\n\n\t// Withdraw multisig wallet\n\taddress public wallet;\n\n\t// Withdraw multisig wallet\n\taddress public teamAndFoundersWallet;\n\n\t// Withdraw multisig wallet\n\taddress public advisorsAndPreICO;\n\tuint256 public TOTAL_NUM_TOKENS = 5e26;\n\n\n\tfunction TracToken(address _wallet,address _teamAndFoundersWallet,address _advisorsAndPreICO) public {\n\t\trequire(_wallet!=0x0);\n\t\trequire(_teamAndFoundersWallet!=0x0);\n\t\trequire(_advisorsAndPreICO!=0x0);\n\t\twallet = _wallet;\n\t\tteamAndFoundersWallet = _teamAndFoundersWallet;\n\t\tadvisorsAndPreICO = _advisorsAndPreICO;\n\t}\n\n\n\tevent Transfer(address indexed from, address indexed to, uint256 value);\n\tevent TransferAllowed(bool transferIsAllowed);\n\n\tmodifier canTransfer() {\n\t\trequire(mintingFinished);\n\t\t_;\n\t}\n\n\tfunction transferFrom(address from, address to, uint256 value) canTransfer public returns (bool) {\n\t\treturn super.transferFrom(from, to, value);\n\t}\n\n\tfunction transfer(address to, uint256 value) canTransfer public returns (bool) {\n\t\treturn super.transfer(to, value);\n\t}\n\n\tfunction mint(address contributor, uint256 amount) onlyOwner public returns (bool) {\n\t\treturn super.mint(contributor, amount);\n\t}\n\n\tfunction mintMany(address[] contributors, uint256[] amounts) onlyOwner public returns (bool) {\n\t\taddress contributor;\n\t\tuint256 amount;\n\t\trequire(contributors.length == amounts.length);\n\n\t\tfor (uint i = 0; i < contributors.length; i++) {\n\t\t\tcontributor = contributors[i];\n\t\t\tamount = amounts[i];\n\t\t\trequire(mint(contributor, amount));\n\t\t}\n\t\treturn true;\n\t}\n\n\tfunction endMinting() onlyOwner public returns (bool) {\n\t\trequire(!mintingFinished);\n\t\tTransferAllowed(true);\n\t\treturn super.finishMinting();\n\t}\n\n\n}",
  "sourcePath": "/Users/uroskukic/Documents/Projects/Starfleet/builders-demo/truffle/contracts/TracToken.sol",
  "compiler": {
    "name": "solc",
    "version": "0.4.26+commit.4563c3fc.Emscripten.clang"
  },
  "schemaVersion": "3.3.3",
  "updatedAt": "2021-01-28T12:35:17.788Z",
  "devdoc": {
    "methods": {
      "balanceOf(address)": {
        "details": "Gets the balance of the specified address.",
        "params": {
          "_owner": "The address to query the the balance of."
        },
        "return": "An uint256 representing the amount owned by the passed address."
      },
      "transfer(address,uint256)": {
        "details": "transfer token for a specified address",
        "params": {
          "_to": "The address to transfer to.",
          "_value": "The amount to be transferred."
        }
      }
    },
    "title": "Basic token"
  },
  "userdoc": {
    "methods": {}
  }
}