{
  "contractName": "Eventer",
  "abi": [
    {
      "anonymous": false,
      "inputs": [
        {
          "indexed": false,
          "name": "firstValue",
          "type": "uint256"
        },
        {
          "indexed": false,
          "name": "secondValue",
          "type": "bool"
        }
      ],
      "name": "EventOne",
      "type": "event"
    },
    {
      "anonymous": false,
      "inputs": [
        {
          "indexed": false,
          "name": "firstValue",
          "type": "uint256"
        },
        {
          "indexed": true,
          "name": "secondValue",
          "type": "bytes32"
        }
      ],
      "name": "EventTwo",
      "type": "event"
    },
    {
      "constant": false,
      "inputs": [
        {
          "name": "_one",
          "type": "uint256"
        },
        {
          "name": "_two",
          "type": "bool"
        }
      ],
      "name": "emitEventOne",
      "outputs": [],
      "payable": false,
      "stateMutability": "nonpayable",
      "type": "function"
    },
    {
      "constant": false,
      "inputs": [
        {
          "name": "_one",
          "type": "uint256"
        },
        {
          "name": "_two",
          "type": "bytes32"
        }
      ],
      "name": "emitEventTwo",
      "outputs": [],
      "payable": false,
      "stateMutability": "nonpayable",
      "type": "function"
    }
  ],
  "bytecode": "0x608060405234801561001057600080fd5b50610178806100206000396000f30060806040526004361061004c576000357c0100000000000000000000000000000000000000000000000000000000900463ffffffff168063817d3b7914610051578063a9539f141461008a575b600080fd5b34801561005d57600080fd5b50610088600480360381019080803590602001909291908035151590602001909291905050506100c5565b005b34801561009657600080fd5b506100c360048036038101908080359060200190929190803560001916906020019092919050505061010c565b005b7f1dc9b5ecede4d9d03b4f230d5c00e69a48d9909fe4c87ea3b33436295fc80df4828260405180838152602001821515151581526020019250505060405180910390a15050565b80600019167fcc68151fe01b19e3a375449301193cc9e2e97cde7b6394a304d4708b2ed2dfe1836040518082815260200191505060405180910390a250505600a165627a7a72305820f40a5db49e09db44ed6354f516b07c92be784b6225e8e7f4bbc4c227142505500029",
  "source": "pragma solidity ^0.4.24;\n\n\ncontract Eventer {\n    event EventOne(uint256 firstValue, bool secondValue);\n    event EventTwo(uint256 firstValue, bytes32 indexed secondValue);\n\n    function emitEventOne(uint256 _one, bool _two) public {\n        emit EventOne(_one, _two);\n    }\n\n    function emitEventTwo(uint256 _one, bytes32 _two) public {\n        emit EventTwo(_one, _two);\n    }\n}\n",
  "sourcePath": "/Users/uroskukic/Documents/Projects/Starfleet/builders-demo/truffle/contracts/Eventer.sol",
  "compiler": {
    "name": "solc",
    "version": "0.4.26+commit.4563c3fc.Emscripten.clang"
  },
  "schemaVersion": "3.3.3",
  "updatedAt": "2021-01-28T16:03:51.034Z",
  "devdoc": {
    "methods": {}
  },
  "userdoc": {
    "methods": {}
  }
}