{
  "contractName": "Holding",
  "abi": [
    {
      "constant": true,
      "inputs": [],
      "name": "hub",
      "outputs": [
        {
          "name": "",
          "type": "address"
        }
      ],
      "payable": false,
      "stateMutability": "view",
      "type": "function"
    },
    {
      "constant": true,
      "inputs": [],
      "name": "difficultyOverride",
      "outputs": [
        {
          "name": "",
          "type": "uint256"
        }
      ],
      "payable": false,
      "stateMutability": "view",
      "type": "function"
    },
    {
      "constant": true,
      "inputs": [],
      "name": "owner",
      "outputs": [
        {
          "name": "",
          "type": "address"
        }
      ],
      "payable": false,
      "stateMutability": "view",
      "type": "function"
    },
    {
      "constant": false,
      "inputs": [
        {
          "name": "newOwner",
          "type": "address"
        }
      ],
      "name": "transferOwnership",
      "outputs": [],
      "payable": false,
      "stateMutability": "nonpayable",
      "type": "function"
    },
    {
      "inputs": [
        {
          "name": "hubAddress",
          "type": "address"
        }
      ],
      "payable": false,
      "stateMutability": "nonpayable",
      "type": "constructor"
    },
    {
      "anonymous": false,
      "inputs": [
        {
          "indexed": false,
          "name": "dataSetId",
          "type": "bytes32"
        },
        {
          "indexed": false,
          "name": "dcNodeId",
          "type": "bytes32"
        },
        {
          "indexed": false,
          "name": "offerId",
          "type": "bytes32"
        },
        {
          "indexed": false,
          "name": "task",
          "type": "bytes32"
        }
      ],
      "name": "OfferTask",
      "type": "event"
    },
    {
      "anonymous": false,
      "inputs": [
        {
          "indexed": false,
          "name": "offerId",
          "type": "bytes32"
        },
        {
          "indexed": false,
          "name": "dataSetId",
          "type": "bytes32"
        },
        {
          "indexed": false,
          "name": "dcNodeId",
          "type": "bytes32"
        },
        {
          "indexed": false,
          "name": "holdingTimeInMinutes",
          "type": "uint256"
        },
        {
          "indexed": false,
          "name": "dataSetSizeInBytes",
          "type": "uint256"
        },
        {
          "indexed": false,
          "name": "tokenAmountPerHolder",
          "type": "uint256"
        },
        {
          "indexed": false,
          "name": "litigationIntervalInMinutes",
          "type": "uint256"
        }
      ],
      "name": "OfferCreated",
      "type": "event"
    },
    {
      "anonymous": false,
      "inputs": [
        {
          "indexed": false,
          "name": "offerId",
          "type": "bytes32"
        },
        {
          "indexed": false,
          "name": "holder1",
          "type": "address"
        },
        {
          "indexed": false,
          "name": "holder2",
          "type": "address"
        },
        {
          "indexed": false,
          "name": "holder3",
          "type": "address"
        }
      ],
      "name": "OfferFinalized",
      "type": "event"
    },
    {
      "anonymous": false,
      "inputs": [
        {
          "indexed": false,
          "name": "offerId",
          "type": "bytes32"
        },
        {
          "indexed": false,
          "name": "holder",
          "type": "address"
        },
        {
          "indexed": false,
          "name": "amount",
          "type": "uint256"
        }
      ],
      "name": "PaidOut",
      "type": "event"
    },
    {
      "anonymous": false,
      "inputs": [
        {
          "indexed": true,
          "name": "previousOwner",
          "type": "address"
        },
        {
          "indexed": true,
          "name": "newOwner",
          "type": "address"
        }
      ],
      "name": "OwnershipTransferred",
      "type": "event"
    },
    {
      "constant": false,
      "inputs": [
        {
          "name": "newHubAddress",
          "type": "address"
        }
      ],
      "name": "setHubAddress",
      "outputs": [],
      "payable": false,
      "stateMutability": "nonpayable",
      "type": "function"
    },
    {
      "constant": false,
      "inputs": [
        {
          "name": "identity",
          "type": "address"
        },
        {
          "name": "dataSetId",
          "type": "uint256"
        },
        {
          "name": "dataRootHash",
          "type": "uint256"
        },
        {
          "name": "redLitigationHash",
          "type": "uint256"
        },
        {
          "name": "greenLitigationHash",
          "type": "uint256"
        },
        {
          "name": "blueLitigationHash",
          "type": "uint256"
        },
        {
          "name": "dcNodeId",
          "type": "uint256"
        },
        {
          "name": "holdingTimeInMinutes",
          "type": "uint256"
        },
        {
          "name": "tokenAmountPerHolder",
          "type": "uint256"
        },
        {
          "name": "dataSetSizeInBytes",
          "type": "uint256"
        },
        {
          "name": "litigationIntervalInMinutes",
          "type": "uint256"
        }
      ],
      "name": "createOffer",
      "outputs": [],
      "payable": false,
      "stateMutability": "nonpayable",
      "type": "function"
    },
    {
      "constant": false,
      "inputs": [
        {
          "name": "identity",
          "type": "address"
        },
        {
          "name": "offerId",
          "type": "uint256"
        },
        {
          "name": "shift",
          "type": "uint256"
        },
        {
          "name": "confirmation1",
          "type": "bytes"
        },
        {
          "name": "confirmation2",
          "type": "bytes"
        },
        {
          "name": "confirmation3",
          "type": "bytes"
        },
        {
          "name": "encryptionType",
          "type": "uint8[]"
        },
        {
          "name": "holderIdentity",
          "type": "address[]"
        },
        {
          "name": "parentIdentity",
          "type": "address"
        }
      ],
      "name": "finalizeOffer",
      "outputs": [],
      "payable": false,
      "stateMutability": "nonpayable",
      "type": "function"
    },
    {
      "constant": false,
      "inputs": [
        {
          "name": "identity",
          "type": "address"
        },
        {
          "name": "offerId",
          "type": "uint256"
        }
      ],
      "name": "payOut",
      "outputs": [],
      "payable": false,
      "stateMutability": "nonpayable",
      "type": "function"
    }
  ],
  "bytecode": "0x60806040523480156200001157600080fd5b506040516020806200909883398101806040528101908080519060200190929190505050336000806101000a81548173ffffffffffffffffffffffffffffffffffffffff021916908373ffffffffffffffffffffffffffffffffffffffff160217905550600073ffffffffffffffffffffffffffffffffffffffff168173ffffffffffffffffffffffffffffffffffffffff1614151515620000b257600080fd5b80600160006101000a81548173ffffffffffffffffffffffffffffffffffffffff021916908373ffffffffffffffffffffffffffffffffffffffff16021790555050618f9480620001046000396000f30060806040526004361061008e576000357c0100000000000000000000000000000000000000000000000000000000900463ffffffff1680630221038a146100935780631f0a07df146100e0578063212c3925146102af578063365a86fc1461035657806367ebbdc6146103ad5780638da5cb5b146103d8578063c7eb45221461042f578063f2fde38b14610472575b600080fd5b34801561009f57600080fd5b506100de600480360381019080803573ffffffffffffffffffffffffffffffffffffffff169060200190929190803590602001909291905050506104b5565b005b3480156100ec57600080fd5b506102ad600480360381019080803573ffffffffffffffffffffffffffffffffffffffff1690602001909291908035906020019092919080359060200190929190803590602001908201803590602001908080601f0160208091040260200160405190810160405280939291908181526020018383808284378201915050505050509192919290803590602001908201803590602001908080601f0160208091040260200160405190810160405280939291908181526020018383808284378201915050505050509192919290803590602001908201803590602001908080601f01602080910402602001604051908101604052809392919081815260200183838082843782019150505050505091929192908035906020019082018035906020019080806020026020016040519081016040528093929190818152602001838360200280828437820191505050505050919291929080359060200190820180359060200190808060200260200160405190810160405280939291908181526020018383602002808284378201915050505050509192919290803573ffffffffffffffffffffffffffffffffffffffff169060200190929190505050612408565b005b3480156102bb57600080fd5b50610354600480360381019080803573ffffffffffffffffffffffffffffffffffffffff16906020019092919080359060200190929190803590602001909291908035906020019092919080359060200190929190803590602001909291908035906020019092919080359060200190929190803590602001909291908035906020019092919080359060200190929190505050613ef8565b005b34801561036257600080fd5b5061036b61599a565b604051808273ffffffffffffffffffffffffffffffffffffffff1673ffffffffffffffffffffffffffffffffffffffff16815260200191505060405180910390f35b3480156103b957600080fd5b506103c26159c0565b6040518082815260200191505060405180910390f35b3480156103e457600080fd5b506103ed6159c6565b604051808273ffffffffffffffffffffffffffffffffffffffff1673ffffffffffffffffffffffffffffffffffffffff16815260200191505060405180910390f35b34801561043b57600080fd5b50610470600480360381019080803573ffffffffffffffffffffffffffffffffffffffff1690602001909291905050506159eb565b005b34801561047e57600080fd5b506104b3600480360381019080803573ffffffffffffffffffffffffffffffffffffffff169060200190929190505050615bc1565b005b600080600080600080600160009054906101000a900473ffffffffffffffffffffffffffffffffffffffff1673ffffffffffffffffffffffffffffffffffffffff166304433bbc6040518163ffffffff167c010000000000000000000000000000000000000000000000000000000002815260040180806020018281038252600e8152602001807f486f6c64696e6753746f72616765000000000000000000000000000000000000815250602001915050602060405180830381600087803b15801561058057600080fd5b505af1158015610594573d6000803e3d6000fd5b505050506040513d60208110156105aa57600080fd5b810190808051906020019092919050505095508773ffffffffffffffffffffffffffffffffffffffff1663d202158d33604051602001808273ffffffffffffffffffffffffffffffffffffffff1673ffffffffffffffffffffffffffffffffffffffff166c010000000000000000000000000281526014019150506040516020818303038152906040526040518082805190602001908083835b6020831015156106695780518252602082019150602081019050602083039250610644565b6001836020036101000a038019825116818451168082178552505050505050905001915050604051809103902060026040518363ffffffff167c010000000000000000000000000000000000000000000000000000000002815260040180836000191660001916815260200182815260200192505050602060405180830381600087803b1580156106f957600080fd5b505af115801561070d573d6000803e3d6000fd5b505050506040513d602081101561072357600080fd5b8101908080519060200190929190505050806108b257508773ffffffffffffffffffffffffffffffffffffffff1663d202158d33604051602001808273ffffffffffffffffffffffffffffffffffffffff1673ffffffffffffffffffffffffffffffffffffffff166c010000000000000000000000000281526014019150506040516020818303038152906040526040518082805190602001908083835b6020831015156107e657805182526020820191506020810190506020830392506107c1565b6001836020036101000a038019825116818451168082178552505050505050905001915050604051809103902060016040518363ffffffff167c010000000000000000000000000000000000000000000000000000000002815260040180836000191660001916815260200182815260200192505050602060405180830381600087803b15801561087657600080fd5b505af115801561088a573d6000803e3d6000fd5b505050506040513d60208110156108a057600080fd5b81019080805190602001909291905050505b151561094c576040517f08c379a000000000000000000000000000000000000000000000000000000000815260040180806020018281038252603d8152602001807f53656e64657220646f6573206e6f7420686176652070726f706572207065726d81526020017f697373696f6e20746f2063616c6c20746869732066756e6374696f6e2100000081525060400191505060405180910390fd5b600160009054906101000a900473ffffffffffffffffffffffffffffffffffffffff1673ffffffffffffffffffffffffffffffffffffffff166304433bbc6040518163ffffffff167c01000000000000000000000000000000000000000000000000000000000281526004018080602001828103825260088152602001807f417070726f76616c000000000000000000000000000000000000000000000000815250602001915050602060405180830381600087803b158015610a0e57600080fd5b505af1158015610a22573d6000803e3d6000fd5b505050506040513d6020811015610a3857600080fd5b810190808051906020019092919050505073ffffffffffffffffffffffffffffffffffffffff166397fa8406896040518263ffffffff167c0100000000000000000000000000000000000000000000000000000000028152600401808273ffffffffffffffffffffffffffffffffffffffff1673ffffffffffffffffffffffffffffffffffffffff168152602001915050602060405180830381600087803b158015610ae357600080fd5b505af1158015610af7573d6000803e3d6000fd5b505050506040513d6020811015610b0d57600080fd5b81019080805190602001909291905050501515610bb8576040517f08c379a00000000000000000000000000000000000000000000000000000000081526004018080602001828103825260368152602001807f4964656e7469747920646f6573206e6f74206861766520617070726f76616c2081526020017f666f72207573696e672074686520636f6e74726163740000000000000000000081525060400191505060405180910390fd5b600160009054906101000a900473ffffffffffffffffffffffffffffffffffffffff1673ffffffffffffffffffffffffffffffffffffffff166304433bbc6040518163ffffffff167c01000000000000000000000000000000000000000000000000000000000281526004018080602001828103825260118152602001807f4c697469676174696f6e53746f72616765000000000000000000000000000000815250602001915050602060405180830381600087803b158015610c7a57600080fd5b505af1158015610c8e573d6000803e3d6000fd5b505050506040513d6020811015610ca457600080fd5b810190808051906020019092919050505073ffffffffffffffffffffffffffffffffffffffff166359485c7e886001028a6040518363ffffffff167c01000000000000000000000000000000000000000000000000000000000281526004018083600019166000191681526020018273ffffffffffffffffffffffffffffffffffffffff1673ffffffffffffffffffffffffffffffffffffffff16815260200192505050602060405180830381600087803b158015610d6257600080fd5b505af1158015610d76573d6000803e3d6000fd5b505050506040513d6020811015610d8c57600080fd5b81019080805190602001909291905050509450600160009054906101000a900473ffffffffffffffffffffffffffffffffffffffff1673ffffffffffffffffffffffffffffffffffffffff166304433bbc6040518163ffffffff167c01000000000000000000000000000000000000000000000000000000000281526004018080602001828103825260118152602001807f4c697469676174696f6e53746f72616765000000000000000000000000000000815250602001915050602060405180830381600087803b158015610e6157600080fd5b505af1158015610e75573d6000803e3d6000fd5b505050506040513d6020811015610e8b57600080fd5b810190808051906020019092919050505073ffffffffffffffffffffffffffffffffffffffff166315a4aeb1886001028a6040518363ffffffff167c01000000000000000000000000000000000000000000000000000000000281526004018083600019166000191681526020018273ffffffffffffffffffffffffffffffffffffffff1673ffffffffffffffffffffffffffffffffffffffff16815260200192505050602060405180830381600087803b158015610f4957600080fd5b505af1158015610f5d573d6000803e3d6000fd5b505050506040513d6020811015610f7357600080fd5b8101908080519060200190929190505050935061114a603c600160009054906101000a900473ffffffffffffffffffffffffffffffffffffffff1673ffffffffffffffffffffffffffffffffffffffff166304433bbc6040518163ffffffff167c010000000000000000000000000000000000000000000000000000000002815260040180806020018281038252600e8152602001807f486f6c64696e6753746f72616765000000000000000000000000000000000000815250602001915050602060405180830381600087803b15801561104d57600080fd5b505af1158015611061573d6000803e3d6000fd5b505050506040513d602081101561107757600080fd5b810190808051906020019092919050505073ffffffffffffffffffffffffffffffffffffffff1663ebaa74328a6001026040518263ffffffff167c0100000000000000000000000000000000000000000000000000000000028152600401808260001916600019168152602001915050602060405180830381600087803b15801561110157600080fd5b505af1158015611115573d6000803e3d6000fd5b505050506040513d602081101561112b57600080fd5b8101908080519060200190929190505050615da590919063ffffffff16565b92506001600481111561115957fe5b85600481111561116557fe5b14156112225742611180600285615da590919063ffffffff16565b850110151561121d576040517f08c379a00000000000000000000000000000000000000000000000000000000081526004018080602001828103825260318152602001807f556e616e737765726564206c697469676174696f6e20696e2070726f6772657381526020017f732c2063616e6e6f7420706179206f757400000000000000000000000000000081525060400191505060405180910390fd5b61139b565b6002600481111561122f57fe5b85600481111561123b57fe5b14156112e557428385011015156112e0576040517f08c379a00000000000000000000000000000000000000000000000000000000081526004018080602001828103825260318152602001807f556e616e737765726564206c697469676174696f6e20696e2070726f6772657381526020017f732c2063616e6e6f7420706179206f757400000000000000000000000000000081525060400191505060405180910390fd5b61139a565b600060048111156112f257fe5b8560048111156112fe57fe5b141515611399576040517f08c379a00000000000000000000000000000000000000000000000000000000081526004018080602001828103825260398152602001807f4461746120686f6c646572206973207265706c61636564206f72206265696e6781526020017f207265706c616365642c2063616e6e6f74207061796f7574210000000000000081525060400191505060405180910390fd5b5b5b60008673ffffffffffffffffffffffffffffffffffffffff166338d525f1896001028b6040518363ffffffff167c01000000000000000000000000000000000000000000000000000000000281526004018083600019166000191681526020018273ffffffffffffffffffffffffffffffffffffffff1673ffffffffffffffffffffffffffffffffffffffff16815260200192505050602060405180830381600087803b15801561144b57600080fd5b505af115801561145f573d6000803e3d6000fd5b505050506040513d602081101561147557600080fd5b8101908080519060200190929190505050111515611521576040517f08c379a00000000000000000000000000000000000000000000000000000000081526004018080602001828103825260248152602001807f53656e646572206973206e6f7420686f6c64696e67207468697320646174612081526020017f736574210000000000000000000000000000000000000000000000000000000081525060400191505060405180910390fd5b8573ffffffffffffffffffffffffffffffffffffffff16636c833cf5886001026040518263ffffffff167c0100000000000000000000000000000000000000000000000000000000028152600401808260001916600019168152602001915050602060405180830381600087803b15801561159b57600080fd5b505af11580156115af573d6000803e3d6000fd5b505050506040513d60208110156115c557600080fd5b810190808051906020019092919050505091506116e56116d68773ffffffffffffffffffffffffffffffffffffffff1663809a05a78a6001028c6040518363ffffffff167c01000000000000000000000000000000000000000000000000000000000281526004018083600019166000191681526020018273ffffffffffffffffffffffffffffffffffffffff1673ffffffffffffffffffffffffffffffffffffffff16815260200192505050602060405180830381600087803b15801561168c57600080fd5b505af11580156116a0573d6000803e3d6000fd5b505050506040513d60208110156116b657600080fd5b810190808051906020019092919050505042615dd890919063ffffffff16565b83615da590919063ffffffff16565b91506117c16117b2603c8873ffffffffffffffffffffffffffffffffffffffff1663c2fb60968b6001026040518263ffffffff167c0100000000000000000000000000000000000000000000000000000000028152600401808260001916600019168152602001915050602060405180830381600087803b15801561176957600080fd5b505af115801561177d573d6000803e3d6000fd5b505050506040513d602081101561179357600080fd5b8101908080519060200190929190505050615da590919063ffffffff16565b83615df190919063ffffffff16565b91508573ffffffffffffffffffffffffffffffffffffffff166338d525f1886001028a6040518363ffffffff167c01000000000000000000000000000000000000000000000000000000000281526004018083600019166000191681526020018273ffffffffffffffffffffffffffffffffffffffff1673ffffffffffffffffffffffffffffffffffffffff16815260200192505050602060405180830381600087803b15801561187157600080fd5b505af1158015611885573d6000803e3d6000fd5b505050506040513d602081101561189b57600080fd5b81019080805190602001909291905050506119a78773ffffffffffffffffffffffffffffffffffffffff1663530bde3d8a6001028c6040518363ffffffff167c01000000000000000000000000000000000000000000000000000000000281526004018083600019166000191681526020018273ffffffffffffffffffffffffffffffffffffffff1673ffffffffffffffffffffffffffffffffffffffff16815260200192505050602060405180830381600087803b15801561195d57600080fd5b505af1158015611971573d6000803e3d6000fd5b505050506040513d602081101561198757600080fd5b810190808051906020019092919050505084615e0c90919063ffffffff16565b101515611e44578573ffffffffffffffffffffffffffffffffffffffff166338d525f1886001028a6040518363ffffffff167c01000000000000000000000000000000000000000000000000000000000281526004018083600019166000191681526020018273ffffffffffffffffffffffffffffffffffffffff1673ffffffffffffffffffffffffffffffffffffffff16815260200192505050602060405180830381600087803b158015611a5c57600080fd5b505af1158015611a70573d6000803e3d6000fd5b505050506040513d6020811015611a8657600080fd5b81019080805190602001909291905050509150611b948673ffffffffffffffffffffffffffffffffffffffff1663530bde3d896001028b6040518363ffffffff167c01000000000000000000000000000000000000000000000000000000000281526004018083600019166000191681526020018273ffffffffffffffffffffffffffffffffffffffff1673ffffffffffffffffffffffffffffffffffffffff16815260200192505050602060405180830381600087803b158015611b4a57600080fd5b505af1158015611b5e573d6000803e3d6000fd5b505050506040513d6020811015611b7457600080fd5b810190808051906020019092919050505083615dd890919063ffffffff16565b91506000821415611ba4576123fe565b600160009054906101000a900473ffffffffffffffffffffffffffffffffffffffff1673ffffffffffffffffffffffffffffffffffffffff166304433bbc6040518163ffffffff167c01000000000000000000000000000000000000000000000000000000000281526004018080602001828103825260078152602001807f50726f66696c6500000000000000000000000000000000000000000000000000815250602001915050602060405180830381600087803b158015611c6657600080fd5b505af1158015611c7a573d6000803e3d6000fd5b505050506040513d6020811015611c9057600080fd5b810190808051906020019092919050505073ffffffffffffffffffffffffffffffffffffffff1663f40d71f1898873ffffffffffffffffffffffffffffffffffffffff166338d525f18b6001028d6040518363ffffffff167c01000000000000000000000000000000000000000000000000000000000281526004018083600019166000191681526020018273ffffffffffffffffffffffffffffffffffffffff1673ffffffffffffffffffffffffffffffffffffffff16815260200192505050602060405180830381600087803b158015611d6b57600080fd5b505af1158015611d7f573d6000803e3d6000fd5b505050506040513d6020811015611d9557600080fd5b81019080805190602001909291905050506040518363ffffffff167c0100000000000000000000000000000000000000000000000000000000028152600401808373ffffffffffffffffffffffffffffffffffffffff1673ffffffffffffffffffffffffffffffffffffffff16815260200182815260200192505050600060405180830381600087803b158015611e2b57600080fd5b505af1158015611e3f573d6000803e3d6000fd5b505050505b600160009054906101000a900473ffffffffffffffffffffffffffffffffffffffff1673ffffffffffffffffffffffffffffffffffffffff166304433bbc6040518163ffffffff167c01000000000000000000000000000000000000000000000000000000000281526004018080602001828103825260078152602001807f50726f66696c6500000000000000000000000000000000000000000000000000815250602001915050602060405180830381600087803b158015611f0657600080fd5b505af1158015611f1a573d6000803e3d6000fd5b505050506040513d6020811015611f3057600080fd5b810190808051906020019092919050505073ffffffffffffffffffffffffffffffffffffffff1663a64b6e5f8773ffffffffffffffffffffffffffffffffffffffff1663a26573158a6001026040518263ffffffff167c0100000000000000000000000000000000000000000000000000000000028152600401808260001916600019168152602001915050602060405180830381600087803b158015611fd657600080fd5b505af1158015611fea573d6000803e3d6000fd5b505050506040513d602081101561200057600080fd5b81019080805190602001909291905050508a856040518463ffffffff167c0100000000000000000000000000000000000000000000000000000000028152600401808473ffffffffffffffffffffffffffffffffffffffff1673ffffffffffffffffffffffffffffffffffffffff1681526020018373ffffffffffffffffffffffffffffffffffffffff1673ffffffffffffffffffffffffffffffffffffffff1681526020018281526020019350505050600060405180830381600087803b1580156120cb57600080fd5b505af11580156120df573d6000803e3d6000fd5b505050508573ffffffffffffffffffffffffffffffffffffffff166391a70e4f886001028a426040518463ffffffff167c01000000000000000000000000000000000000000000000000000000000281526004018084600019166000191681526020018373ffffffffffffffffffffffffffffffffffffffff1673ffffffffffffffffffffffffffffffffffffffff1681526020018281526020019350505050600060405180830381600087803b15801561219957600080fd5b505af11580156121ad573d6000803e3d6000fd5b505050508573ffffffffffffffffffffffffffffffffffffffff1663530bde3d886001028a6040518363ffffffff167c01000000000000000000000000000000000000000000000000000000000281526004018083600019166000191681526020018273ffffffffffffffffffffffffffffffffffffffff1673ffffffffffffffffffffffffffffffffffffffff16815260200192505050602060405180830381600087803b15801561225f57600080fd5b505af1158015612273573d6000803e3d6000fd5b505050506040513d602081101561228957600080fd5b810190808051906020019092919050505090506122af8282615e0c90919063ffffffff16565b90508573ffffffffffffffffffffffffffffffffffffffff166305c6ff60886001028a846040518463ffffffff167c01000000000000000000000000000000000000000000000000000000000281526004018084600019166000191681526020018373ffffffffffffffffffffffffffffffffffffffff1673ffffffffffffffffffffffffffffffffffffffff1681526020018281526020019350505050600060405180830381600087803b15801561236757600080fd5b505af115801561237b573d6000803e3d6000fd5b505050507ff4292e0ae547c949263a88899ebcdac1a5493bef4f206b7592b5a7de68f4c0de8760010289846040518084600019166000191681526020018373ffffffffffffffffffffffffffffffffffffffff1673ffffffffffffffffffffffffffffffffffffffff168152602001828152602001935050505060405180910390a15b5050505050505050565b6000612412618f45565b600160009054906101000a900473ffffffffffffffffffffffffffffffffffffffff1673ffffffffffffffffffffffffffffffffffffffff166304433bbc6040518163ffffffff167c010000000000000000000000000000000000000000000000000000000002815260040180806020018281038252600e8152602001807f486f6c64696e6753746f72616765000000000000000000000000000000000000815250602001915050602060405180830381600087803b1580156124d457600080fd5b505af11580156124e8573d6000803e3d6000fd5b505050506040513d60208110156124fe57600080fd5b810190808051906020019092919050505091508a73ffffffffffffffffffffffffffffffffffffffff1663d202158d33604051602001808273ffffffffffffffffffffffffffffffffffffffff1673ffffffffffffffffffffffffffffffffffffffff166c010000000000000000000000000281526014019150506040516020818303038152906040526040518082805190602001908083835b6020831015156125bd5780518252602082019150602081019050602083039250612598565b6001836020036101000a038019825116818451168082178552505050505050905001915050604051809103902060026040518363ffffffff167c010000000000000000000000000000000000000000000000000000000002815260040180836000191660001916815260200182815260200192505050602060405180830381600087803b15801561264d57600080fd5b505af1158015612661573d6000803e3d6000fd5b505050506040513d602081101561267757600080fd5b81019080805190602001909291905050501515612722576040517f08c379a000000000000000000000000000000000000000000000000000000000815260040180806020018281038252603d8152602001807f53656e64657220646f6573206e6f74206861766520616374696f6e207065726d81526020017f697373696f6e20746f2063616c6c20746869732066756e6374696f6e2100000081525060400191505060405180910390fd5b600073ffffffffffffffffffffffffffffffffffffffff168373ffffffffffffffffffffffffffffffffffffffff1614151561294457600160009054906101000a900473ffffffffffffffffffffffffffffffffffffffff1673ffffffffffffffffffffffffffffffffffffffff166304433bbc6040518163ffffffff167c010000000000000000000000000000000000000000000000000000000002815260040180806020018281038252600f8152602001807f4372656469746f7248616e646c65720000000000000000000000000000000000815250602001915050602060405180830381600087803b15801561281a57600080fd5b505af115801561282e573d6000803e3d6000fd5b505050506040513d602081101561284457600080fd5b810190808051906020019092919050505073ffffffffffffffffffffffffffffffffffffffff16639bcaee508b8d866040518463ffffffff167c0100000000000000000000000000000000000000000000000000000000028152600401808481526020018373ffffffffffffffffffffffffffffffffffffffff1673ffffffffffffffffffffffffffffffffffffffff1681526020018273ffffffffffffffffffffffffffffffffffffffff1673ffffffffffffffffffffffffffffffffffffffff1681526020019350505050600060405180830381600087803b15801561292b57600080fd5b505af115801561293f573d6000803e3d6000fd5b505050505b8173ffffffffffffffffffffffffffffffffffffffff1663a26573158b6001026040518263ffffffff167c0100000000000000000000000000000000000000000000000000000000028152600401808260001916600019168152602001915050602060405180830381600087803b1580156129be57600080fd5b505af11580156129d2573d6000803e3d6000fd5b505050506040513d60208110156129e857600080fd5b810190808051906020019092919050505073ffffffffffffffffffffffffffffffffffffffff168b73ffffffffffffffffffffffffffffffffffffffff16141515612ac1576040517f08c379a000000000000000000000000000000000000000000000000000000000815260040180806020018281038252602b8152602001807f4f666665722063616e206f6e6c792062652066696e616c697a6564206279206981526020017f74732063726561746f722100000000000000000000000000000000000000000081525060400191505060405180910390fd5b836000815181101515612ad057fe5b9060200190602002015173ffffffffffffffffffffffffffffffffffffffff1663d202158d612bb68c876000815181101515612b0857fe5b9060200190602002015173ffffffffffffffffffffffffffffffffffffffff1660405160200180838152602001828152602001925050506040516020818303038152906040526040518082805190602001908083835b602083101515612b835780518252602082019150602081019050602083039250612b5e565b6001836020036101000a03801982511681845116808217855250505050505090500191505060405180910390208b615e2a565b604051602001808273ffffffffffffffffffffffffffffffffffffffff1673ffffffffffffffffffffffffffffffffffffffff166c010000000000000000000000000281526014019150506040516020818303038152906040526040518082805190602001908083835b602083101515612c455780518252602082019150602081019050602083039250612c20565b6001836020036101000a038019825116818451168082178552505050505050905001915050604051809103902060046040518363ffffffff167c010000000000000000000000000000000000000000000000000000000002815260040180836000191660001916815260200182815260200192505050602060405180830381600087803b158015612cd557600080fd5b505af1158015612ce9573d6000803e3d6000fd5b505050506040513d6020811015612cff57600080fd5b81019080805190602001909291905050501515612daa576040517f08c379a00000000000000000000000000000000000000000000000000000000081526004018080602001828103825260378152602001807f57616c6c65742066726f6d20686f6c646572203120646f6573206e6f7420686181526020017f766520656e6372797074696f6e20617070726f76616c2100000000000000000081525060400191505060405180910390fd5b836001815181101515612db957fe5b9060200190602002015173ffffffffffffffffffffffffffffffffffffffff1663d202158d612e9f8c876001815181101515612df157fe5b9060200190602002015173ffffffffffffffffffffffffffffffffffffffff1660405160200180838152602001828152602001925050506040516020818303038152906040526040518082805190602001908083835b602083101515612e6c5780518252602082019150602081019050602083039250612e47565b6001836020036101000a03801982511681845116808217855250505050505090500191505060405180910390208a615e2a565b604051602001808273ffffffffffffffffffffffffffffffffffffffff1673ffffffffffffffffffffffffffffffffffffffff166c010000000000000000000000000281526014019150506040516020818303038152906040526040518082805190602001908083835b602083101515612f2e5780518252602082019150602081019050602083039250612f09565b6001836020036101000a038019825116818451168082178552505050505050905001915050604051809103902060046040518363ffffffff167c010000000000000000000000000000000000000000000000000000000002815260040180836000191660001916815260200182815260200192505050602060405180830381600087803b158015612fbe57600080fd5b505af1158015612fd2573d6000803e3d6000fd5b505050506040513d6020811015612fe857600080fd5b81019080805190602001909291905050501515613093576040517f08c379a00000000000000000000000000000000000000000000000000000000081526004018080602001828103825260378152602001807f57616c6c65742066726f6d20686f6c646572203220646f6573206e6f7420686181526020017f766520656e6372797074696f6e20617070726f76616c2100000000000000000081525060400191505060405180910390fd5b8360028151811015156130a257fe5b9060200190602002015173ffffffffffffffffffffffffffffffffffffffff1663d202158d6131888c8760028151811015156130da57fe5b9060200190602002015173ffffffffffffffffffffffffffffffffffffffff1660405160200180838152602001828152602001925050506040516020818303038152906040526040518082805190602001908083835b6020831015156131555780518252602082019150602081019050602083039250613130565b6001836020036101000a038019825116818451168082178552505050505050905001915050604051809103902089615e2a565b604051602001808273ffffffffffffffffffffffffffffffffffffffff1673ffffffffffffffffffffffffffffffffffffffff166c010000000000000000000000000281526014019150506040516020818303038152906040526040518082805190602001908083835b60208310151561321757805182526020820191506020810190506020830392506131f2565b6001836020036101000a038019825116818451168082178552505050505050905001915050604051809103902060046040518363ffffffff167c010000000000000000000000000000000000000000000000000000000002815260040180836000191660001916815260200182815260200192505050602060405180830381600087803b1580156132a757600080fd5b505af11580156132bb573d6000803e3d6000fd5b505050506040513d60208110156132d157600080fd5b8101908080519060200190929190505050151561337c576040517f08c379a00000000000000000000000000000000000000000000000000000000081526004018080602001828103825260378152602001807f57616c6c65742066726f6d20686f6c646572203320646f6573206e6f7420686181526020017f766520656e6372797074696f6e20617070726f76616c2100000000000000000081525060400191505060405180910390fd5b83600081518110151561338b57fe5b906020019060200201518273ffffffffffffffffffffffffffffffffffffffff1663ea1ef4508c6001026040518263ffffffff167c0100000000000000000000000000000000000000000000000000000000028152600401808260001916600019168152602001915050602060405180830381600087803b15801561340f57600080fd5b505af1158015613423573d6000803e3d6000fd5b505050506040513d602081101561343957600080fd5b8101908080519060200190929190505050604051602001808373ffffffffffffffffffffffffffffffffffffffff1673ffffffffffffffffffffffffffffffffffffffff166c010000000000000000000000000281526014018260001916600019168152602001925050506040516020818303038152906040526040518082805190602001908083835b6020831015156134e857805182526020820191506020810190506020830392506134c3565b6001836020036101000a038019825116818451168082178552505050505050905001915050604051809103902081600060038110151561352457fe5b6020020190600019169081600019168152505083600181518110151561354657fe5b906020019060200201518273ffffffffffffffffffffffffffffffffffffffff1663ea1ef4508c6001026040518263ffffffff167c0100000000000000000000000000000000000000000000000000000000028152600401808260001916600019168152602001915050602060405180830381600087803b1580156135ca57600080fd5b505af11580156135de573d6000803e3d6000fd5b505050506040513d60208110156135f457600080fd5b8101908080519060200190929190505050604051602001808373ffffffffffffffffffffffffffffffffffffffff1673ffffffffffffffffffffffffffffffffffffffff166c010000000000000000000000000281526014018260001916600019168152602001925050506040516020818303038152906040526040518082805190602001908083835b6020831015156136a3578051825260208201915060208101905060208303925061367e565b6001836020036101000a03801982511681845116808217855250505050505090500191505060405180910390208160016003811015156136df57fe5b6020020190600019169081600019168152505083600281518110151561370157fe5b906020019060200201518273ffffffffffffffffffffffffffffffffffffffff1663ea1ef4508c6001026040518263ffffffff167c0100000000000000000000000000000000000000000000000000000000028152600401808260001916600019168152602001915050602060405180830381600087803b15801561378557600080fd5b505af1158015613799573d6000803e3d6000fd5b505050506040513d60208110156137af57600080fd5b8101908080519060200190929190505050604051602001808373ffffffffffffffffffffffffffffffffffffffff1673ffffffffffffffffffffffffffffffffffffffff166c010000000000000000000000000281526014018260001916600019168152602001925050506040516020818303038152906040526040518082805190602001908083835b60208310151561385e5780518252602082019150602081019050602083039250613839565b6001836020036101000a038019825116818451168082178552505050505050905001915050604051809103902081600260038110151561389a57fe5b602002019060001916908160001916815250508060016003811015156138bc57fe5b6020020151600190048160006003811015156138d457fe5b60200201516001900410801561391757508060026003811015156138f457fe5b60200201516001900481600160038110151561390c57fe5b602002015160019004105b151561398b576040517f08c379a000000000000000000000000000000000000000000000000000000000815260040180806020018281038252601f8152602001807f536f6c7574696f6e2068617368657320617265206e6f7420736f72746564210081525060200191505060405180910390fd5b8173ffffffffffffffffffffffffffffffffffffffff1663ea1ef4508b6001026040518263ffffffff167c0100000000000000000000000000000000000000000000000000000000028152600401808260001916600019168152602001915050602060405180830381600087803b158015613a0557600080fd5b505af1158015613a19573d6000803e3d6000fd5b505050506040513d6020811015613a2f57600080fd5b81019080805190602001909291905050506000191660018373ffffffffffffffffffffffffffffffffffffffff16631535f5748d6001026040518263ffffffff167c0100000000000000000000000000000000000000000000000000000000028152600401808260001916600019168152602001915050602060405180830381600087803b158015613ac057600080fd5b505af1158015613ad4573d6000803e3d6000fd5b505050506040513d6020811015613aea57600080fd5b810190808051906020019092919050505060040260020a0360010260048b02836000600381101515613b1857fe5b6020020151846001600381101515613b2c57fe5b6020020151856002600381101515613b4057fe5b60200201516040516020018084600019166000191681526020018360001916600019168152602001826000191660001916815260200193505050506040516020818303038152906040526040518082805190602001908083835b602083101515613bbf5780518252602082019150602081019050602083039250613b9a565b6001836020036101000a0380198251168184511680821785525050505050509050019150506040518091039020600019169060020a90041660001916141515613c96576040517f08c379a00000000000000000000000000000000000000000000000000000000081526004018080602001828103825260368152602001807f5375626d6974746564206964656e74697469657320646f206e6f7420616e737781526020017f657220746865207461736b20636f72726563746c79210000000000000000000081525060400191505060405180910390fd5b8173ffffffffffffffffffffffffffffffffffffffff166317d79cd98b60010286886040518463ffffffff167c01000000000000000000000000000000000000000000000000000000000281526004018084600019166000191681526020018060200180602001838103835285818151815260200191508051906020019060200280838360005b83811015613d38578082015181840152602081019050613d1d565b50505050905001838103825284818151815260200191508051906020019060200280838360005b83811015613d7a578082015181840152602081019050613d5f565b5050505090500195505050505050600060405180830381600087803b158015613da257600080fd5b505af1158015613db6573d6000803e3d6000fd5b50505050613dc58a8c86616041565b7feac1e15fac392f7eb69fb5accdf5e9892330f41cd8fa89933c2d2c8c68e4d4a78a600102856000815181101515613df957fe5b90602001906020020151866001815181101515613e1257fe5b90602001906020020151876002815181101515613e2b57fe5b906020019060200201516040518085600019166000191681526020018473ffffffffffffffffffffffffffffffffffffffff1673ffffffffffffffffffffffffffffffffffffffff1681526020018373ffffffffffffffffffffffffffffffffffffffff1673ffffffffffffffffffffffffffffffffffffffff1681526020018273ffffffffffffffffffffffffffffffffffffffff1673ffffffffffffffffffffffffffffffffffffffff16815260200194505050505060405180910390a15050505050505050505050565b6000808c73ffffffffffffffffffffffffffffffffffffffff1663d202158d33604051602001808273ffffffffffffffffffffffffffffffffffffffff1673ffffffffffffffffffffffffffffffffffffffff166c010000000000000000000000000281526014019150506040516020818303038152906040526040518082805190602001908083835b602083101515613fa75780518252602082019150602081019050602083039250613f82565b6001836020036101000a038019825116818451168082178552505050505050905001915050604051809103902060026040518363ffffffff167c010000000000000000000000000000000000000000000000000000000002815260040180836000191660001916815260200182815260200192505050602060405180830381600087803b15801561403757600080fd5b505af115801561404b573d6000803e3d6000fd5b505050506040513d602081101561406157600080fd5b8101908080519060200190929190505050151561407d57600080fd5b600160009054906101000a900473ffffffffffffffffffffffffffffffffffffffff1673ffffffffffffffffffffffffffffffffffffffff166304433bbc6040518163ffffffff167c01000000000000000000000000000000000000000000000000000000000281526004018080602001828103825260088152602001807f417070726f76616c000000000000000000000000000000000000000000000000815250602001915050602060405180830381600087803b15801561413f57600080fd5b505af1158015614153573d6000803e3d6000fd5b505050506040513d602081101561416957600080fd5b810190808051906020019092919050505073ffffffffffffffffffffffffffffffffffffffff166397fa84068e6040518263ffffffff167c0100000000000000000000000000000000000000000000000000000000028152600401808273ffffffffffffffffffffffffffffffffffffffff1673ffffffffffffffffffffffffffffffffffffffff168152602001915050602060405180830381600087803b15801561421457600080fd5b505af1158015614228573d6000803e3d6000fd5b505050506040513d602081101561423e57600080fd5b810190808051906020019092919050505015156142e9576040517f08c379a00000000000000000000000000000000000000000000000000000000081526004018080602001828103825260368152602001807f4964656e7469747920646f6573206e6f74206861766520617070726f76616c2081526020017f666f72207573696e672074686520636f6e74726163740000000000000000000081525060400191505060405180910390fd5b60008b14151515614362576040517f08c379a000000000000000000000000000000000000000000000000000000000815260040180806020018281038252601d8152602001807f4461746120726f6f7420686173682063616e6e6f74206265207a65726f00000081525060200191505060405180910390fd5b60008a141515156143db576040517f08c379a000000000000000000000000000000000000000000000000000000000815260040180806020018281038252601e8152602001807f4c697469676174696f6e20686173682063616e6e6f74206265207a65726f000081525060200191505060405180910390fd5b6000891415151561447a576040517f08c379a00000000000000000000000000000000000000000000000000000000081526004018080602001828103825260238152602001807f4c697469676174696f6e20726f6f7420686173682063616e6e6f74206265207a81526020017f65726f000000000000000000000000000000000000000000000000000000000081525060400191505060405180910390fd5b60008814151515614519576040517f08c379a00000000000000000000000000000000000000000000000000000000081526004018080602001828103825260238152602001807f4c697469676174696f6e20726f6f7420686173682063616e6e6f74206265207a81526020017f65726f000000000000000000000000000000000000000000000000000000000081525060400191505060405180910390fd5b600086111515614591576040517f08c379a000000000000000000000000000000000000000000000000000000000815260040180806020018281038252601b8152602001807f486f6c64696e672074696d652063616e6e6f74206265207a65726f000000000081525060200191505060405180910390fd5b600084111515614609576040517f08c379a00000000000000000000000000000000000000000000000000000000081526004018080602001828103825260188152602001807f446174612073697a652063616e6e6f74206265207a65726f000000000000000081525060200191505060405180910390fd5b6000851115156146a7576040517f08c379a00000000000000000000000000000000000000000000000000000000081526004018080602001828103825260268152602001807f546f6b656e20616d6f756e742070657220686f6c6465722063616e6e6f74206281526020017f65207a65726f000000000000000000000000000000000000000000000000000081525060400191505060405180910390fd5b600083111515614745576040517f08c379a00000000000000000000000000000000000000000000000000000000081526004018080602001828103825260228152602001807f4c697469676174696f6e20696e74657276616c2063616e6e6f74206265207a6581526020017f726f00000000000000000000000000000000000000000000000000000000000081525060400191505060405180910390fd5b600060010260001916600160009054906101000a900473ffffffffffffffffffffffffffffffffffffffff1673ffffffffffffffffffffffffffffffffffffffff166304433bbc6040518163ffffffff167c010000000000000000000000000000000000000000000000000000000002815260040180806020018281038252600e8152602001807f486f6c64696e6753746f72616765000000000000000000000000000000000000815250602001915050602060405180830381600087803b15801561481057600080fd5b505af1158015614824573d6000803e3d6000fd5b505050506040513d602081101561483a57600080fd5b810190808051906020019092919050505073ffffffffffffffffffffffffffffffffffffffff1663b2ccba828e6001026040518263ffffffff167c0100000000000000000000000000000000000000000000000000000000028152600401808260001916600019168152602001915050602060405180830381600087803b1580156148c457600080fd5b505af11580156148d8573d6000803e3d6000fd5b505050506040513d60208110156148ee57600080fd5b8101908080519060200190929190505050600019161415614aaf57600160009054906101000a900473ffffffffffffffffffffffffffffffffffffffff1673ffffffffffffffffffffffffffffffffffffffff166304433bbc6040518163ffffffff167c010000000000000000000000000000000000000000000000000000000002815260040180806020018281038252600e8152602001807f486f6c64696e6753746f72616765000000000000000000000000000000000000815250602001915050602060405180830381600087803b1580156149cb57600080fd5b505af11580156149df573d6000803e3d6000fd5b505050506040513d60208110156149f557600080fd5b810190808051906020019092919050505073ffffffffffffffffffffffffffffffffffffffff1663df85fbd08d6001028d6001026040518363ffffffff167c0100000000000000000000000000000000000000000000000000000000028152600401808360001916600019168152602001826000191660001916815260200192505050600060405180830381600087803b158015614a9257600080fd5b505af1158015614aa6573d6000803e3d6000fd5b50505050614d08565b600160009054906101000a900473ffffffffffffffffffffffffffffffffffffffff1673ffffffffffffffffffffffffffffffffffffffff166304433bbc6040518163ffffffff167c010000000000000000000000000000000000000000000000000000000002815260040180806020018281038252600e8152602001807f486f6c64696e6753746f72616765000000000000000000000000000000000000815250602001915050602060405180830381600087803b158015614b7157600080fd5b505af1158015614b85573d6000803e3d6000fd5b505050506040513d6020811015614b9b57600080fd5b810190808051906020019092919050505073ffffffffffffffffffffffffffffffffffffffff1663b2ccba828d6001026040518263ffffffff167c0100000000000000000000000000000000000000000000000000000000028152600401808260001916600019168152602001915050602060405180830381600087803b158015614c2557600080fd5b505af1158015614c39573d6000803e3d6000fd5b505050506040513d6020811015614c4f57600080fd5b8101908080519060200190929190505050600019168b60010260001916141515614d07576040517f08c379a00000000000000000000000000000000000000000000000000000000081526004018080602001828103825260328152602001807f43616e6e6f7420637265617465206f666665722077697468206469666665726581526020017f6e74206461746120726f6f74206861736821000000000000000000000000000081525060400191505060405180910390fd5b5b8b6001028d60014303406040516020018084600019166000191681526020018373ffffffffffffffffffffffffffffffffffffffff1673ffffffffffffffffffffffffffffffffffffffff166c01000000000000000000000000028152601401826000191660001916815260200193505050506040516020818303038152906040526040518082805190602001908083835b602083101515614dbf5780518252602082019150602081019050602083039250614d9a565b6001836020036101000a038019825116818451168082178552505050505050905001915050604051809103902091506000600160009054906101000a900473ffffffffffffffffffffffffffffffffffffffff1673ffffffffffffffffffffffffffffffffffffffff166304433bbc6040518163ffffffff167c010000000000000000000000000000000000000000000000000000000002815260040180806020018281038252600e8152602001807f486f6c64696e6753746f72616765000000000000000000000000000000000000815250602001915050602060405180830381600087803b158015614eb257600080fd5b505af1158015614ec6573d6000803e3d6000fd5b505050506040513d6020811015614edc57600080fd5b810190808051906020019092919050505073ffffffffffffffffffffffffffffffffffffffff1663ab9c46ff6040518163ffffffff167c0100000000000000000000000000000000000000000000000000000000028152600401602060405180830381600087803b158015614f5057600080fd5b505af1158015614f64573d6000803e3d6000fd5b505050506040513d6020811015614f7a57600080fd5b810190808051906020019092919050505014151561513457600160009054906101000a900473ffffffffffffffffffffffffffffffffffffffff1673ffffffffffffffffffffffffffffffffffffffff166304433bbc6040518163ffffffff167c010000000000000000000000000000000000000000000000000000000002815260040180806020018281038252600e8152602001807f486f6c64696e6753746f72616765000000000000000000000000000000000000815250602001915050602060405180830381600087803b15801561505457600080fd5b505af1158015615068573d6000803e3d6000fd5b505050506040513d602081101561507e57600080fd5b810190808051906020019092919050505073ffffffffffffffffffffffffffffffffffffffff1663ab9c46ff6040518163ffffffff167c0100000000000000000000000000000000000000000000000000000000028152600401602060405180830381600087803b1580156150f257600080fd5b505af1158015615106573d6000803e3d6000fd5b505050506040513d602081101561511c57600080fd5b810190808051906020019092919050505090506154a7565b60046152d9600160009054906101000a900473ffffffffffffffffffffffffffffffffffffffff1673ffffffffffffffffffffffffffffffffffffffff166304433bbc6040518163ffffffff167c010000000000000000000000000000000000000000000000000000000002815260040180806020018281038252600e8152602001807f50726f66696c6553746f72616765000000000000000000000000000000000000815250602001915050602060405180830381600087803b1580156151fb57600080fd5b505af115801561520f573d6000803e3d6000fd5b505050506040513d602081101561522557600080fd5b810190808051906020019092919050505073ffffffffffffffffffffffffffffffffffffffff166307f196516040518163ffffffff167c0100000000000000000000000000000000000000000000000000000000028152600401602060405180830381600087803b15801561529957600080fd5b505af11580156152ad573d6000803e3d6000fd5b505050506040513d60208110156152c357600080fd5b8101908080519060200190929190505050618ca2565b1115156152e957600190506154a6565b6133a36127106004615494600160009054906101000a900473ffffffffffffffffffffffffffffffffffffffff1673ffffffffffffffffffffffffffffffffffffffff166304433bbc6040518163ffffffff167c010000000000000000000000000000000000000000000000000000000002815260040180806020018281038252600e8152602001807f50726f66696c6553746f72616765000000000000000000000000000000000000815250602001915050602060405180830381600087803b1580156153b657600080fd5b505af11580156153ca573d6000803e3d6000fd5b505050506040513d60208110156153e057600080fd5b810190808051906020019092919050505073ffffffffffffffffffffffffffffffffffffffff166307f196516040518163ffffffff167c0100000000000000000000000000000000000000000000000000000000028152600401602060405180830381600087803b15801561545457600080fd5b505af1158015615468573d6000803e3d6000fd5b505050506040513d602081101561547e57600080fd5b8101908080519060200190929190505050618ca2565b030281151561549f57fe5b0460040190505b5b600160009054906101000a900473ffffffffffffffffffffffffffffffffffffffff1673ffffffffffffffffffffffffffffffffffffffff166304433bbc6040518163ffffffff167c010000000000000000000000000000000000000000000000000000000002815260040180806020018281038252600e8152602001807f486f6c64696e6753746f72616765000000000000000000000000000000000000815250602001915050602060405180830381600087803b15801561556957600080fd5b505af115801561557d573d6000803e3d6000fd5b505050506040513d602081101561559357600080fd5b810190808051906020019092919050505073ffffffffffffffffffffffffffffffffffffffff16631d6f0b36838f8f6001028a8a89600160048a0260020a03600102600143034016896040518963ffffffff167c01000000000000000000000000000000000000000000000000000000000281526004018089600019166000191681526020018873ffffffffffffffffffffffffffffffffffffffff1673ffffffffffffffffffffffffffffffffffffffff1681526020018760001916600019168152602001868152602001858152602001848152602001836000191660001916815260200182815260200198505050505050505050600060405180830381600087803b1580156156a357600080fd5b505af11580156156b7573d6000803e3d6000fd5b50505050600160009054906101000a900473ffffffffffffffffffffffffffffffffffffffff1673ffffffffffffffffffffffffffffffffffffffff166304433bbc6040518163ffffffff167c010000000000000000000000000000000000000000000000000000000002815260040180806020018281038252600e8152602001807f486f6c64696e6753746f72616765000000000000000000000000000000000000815250602001915050602060405180830381600087803b15801561577d57600080fd5b505af1158015615791573d6000803e3d6000fd5b505050506040513d60208110156157a757600080fd5b810190808051906020019092919050505073ffffffffffffffffffffffffffffffffffffffff1663aa1d1f2b838c6001028c6001028c6001026040518563ffffffff167c0100000000000000000000000000000000000000000000000000000000028152600401808560001916600019168152602001846000191660001916815260200183600019166000191681526020018260001916600019168152602001945050505050600060405180830381600087803b15801561586757600080fd5b505af115801561587b573d6000803e3d6000fd5b505050507fc02335f4c444cce217a60853f6fd34ba3e698ba52c208883d9752537320554958c600102886001028460016004860260020a0360010260014303401660405180856000191660001916815260200184600019166000191681526020018360001916600019168152602001826000191660001916815260200194505050505060405180910390a17fb9705efa5b8a53b16627c24baa6d9acb1767218fe3bcfeb0b4e26a4325ef79cf828d6001028960010289888a896040518088600019166000191681526020018760001916600019168152602001866000191660001916815260200185815260200184815260200183815260200182815260200197505050505050505060405180910390a150505050505050505050505050565b600160009054906101000a900473ffffffffffffffffffffffffffffffffffffffff1681565b60025481565b6000809054906101000a900473ffffffffffffffffffffffffffffffffffffffff1681565b600160009054906101000a900473ffffffffffffffffffffffffffffffffffffffff1673ffffffffffffffffffffffffffffffffffffffff166316279055336040518263ffffffff167c0100000000000000000000000000000000000000000000000000000000028152600401808273ffffffffffffffffffffffffffffffffffffffff1673ffffffffffffffffffffffffffffffffffffffff168152602001915050602060405180830381600087803b158015615aa857600080fd5b505af1158015615abc573d6000803e3d6000fd5b505050506040513d6020811015615ad257600080fd5b81019080805190602001909291905050501515615b7d576040517f08c379a000000000000000000000000000000000000000000000000000000000815260040180806020018281038252603f8152602001807f546869732066756e6374696f6e2063616e206f6e6c792062652063616c6c656481526020017f20627920636f6e747261637473206f722074686569722063726561746f72210081525060400191505060405180910390fd5b80600160006101000a81548173ffffffffffffffffffffffffffffffffffffffff021916908373ffffffffffffffffffffffffffffffffffffffff16021790555050565b6000809054906101000a900473ffffffffffffffffffffffffffffffffffffffff1673ffffffffffffffffffffffffffffffffffffffff163373ffffffffffffffffffffffffffffffffffffffff16141515615cab576040517f08c379a000000000000000000000000000000000000000000000000000000000815260040180806020018281038252602a8152602001807f4f6e6c7920636f6e7472616374206f776e65722063616e2063616c6c2074686981526020017f732066756e6374696f6e0000000000000000000000000000000000000000000081525060400191505060405180910390fd5b600073ffffffffffffffffffffffffffffffffffffffff168173ffffffffffffffffffffffffffffffffffffffff1614151515615ce757600080fd5b8073ffffffffffffffffffffffffffffffffffffffff166000809054906101000a900473ffffffffffffffffffffffffffffffffffffffff1673ffffffffffffffffffffffffffffffffffffffff167f8be0079c531659141344cd1fd0a4f28419497f9722a3daafe3b4186f6b6457e060405160405180910390a3806000806101000a81548173ffffffffffffffffffffffffffffffffffffffff021916908373ffffffffffffffffffffffffffffffffffffffff16021790555050565b60008082840290506000841480615dc65750828482811515615dc357fe5b04145b1515615dce57fe5b8091505092915050565b6000828211151515615de657fe5b818303905092915050565b6000808284811515615dff57fe5b0490508091505092915050565b6000808284019050838110151515615e2057fe5b8091505092915050565b6000806000806060600060418751141515615e485760009550616036565b6040805190810160405280601c81526020017f19457468657265756d205369676e6564204d6573736167653a0a333200000000815250915081886040516020018083805190602001908083835b602083101515615eba5780518252602082019150602081019050602083039250615e95565b6001836020036101000a0380198251168184511680821785525050505050509050018260001916600019168152602001925050506040516020818303038152906040526040518082805190602001908083835b602083101515615f325780518252602082019150602081019050602083039250615f0d565b6001836020036101000a038019825116818451168082178552505050505050905001915050604051809103902090506020870151945060408701519350606087015160001a9250601b8360ff161015615f8c57601b830192505b601b8360ff1614158015615fa45750601c8360ff1614155b15615fb25760009550616036565b600181848787604051600081526020016040526040518085600019166000191681526020018460ff1660ff1681526020018360001916600019168152602001826000191660001916815260200194505050505060206040516020810390808403906000865af1158015616029573d6000803e3d6000fd5b5050506020604051035195505b505050505092915050565b6000806000600160009054906101000a900473ffffffffffffffffffffffffffffffffffffffff1673ffffffffffffffffffffffffffffffffffffffff166304433bbc6040518163ffffffff167c010000000000000000000000000000000000000000000000000000000002815260040180806020018281038252600e8152602001807f50726f66696c6553746f72616765000000000000000000000000000000000000815250602001915050602060405180830381600087803b15801561610857600080fd5b505af115801561611c573d6000803e3d6000fd5b505050506040513d602081101561613257600080fd5b81019080805190602001909291905050509250600160009054906101000a900473ffffffffffffffffffffffffffffffffffffffff1673ffffffffffffffffffffffffffffffffffffffff166304433bbc6040518163ffffffff167c010000000000000000000000000000000000000000000000000000000002815260040180806020018281038252600e8152602001807f486f6c64696e6753746f72616765000000000000000000000000000000000000815250602001915050602060405180830381600087803b15801561620757600080fd5b505af115801561621b573d6000803e3d6000fd5b505050506040513d602081101561623157600080fd5b810190808051906020019092919050505073ffffffffffffffffffffffffffffffffffffffff16636c833cf5876001026040518263ffffffff167c0100000000000000000000000000000000000000000000000000000000028152600401808260001916600019168152602001915050602060405180830381600087803b1580156162bb57600080fd5b505af11580156162cf573d6000803e3d6000fd5b505050506040513d60208110156162e557600080fd5b810190808051906020019092919050505091508273ffffffffffffffffffffffffffffffffffffffff16632ba97595866040518263ffffffff167c0100000000000000000000000000000000000000000000000000000000028152600401808273ffffffffffffffffffffffffffffffffffffffff1673ffffffffffffffffffffffffffffffffffffffff168152602001915050602060405180830381600087803b15801561639357600080fd5b505af11580156163a7573d6000803e3d6000fd5b505050506040513d60208110156163bd57600080fd5b8101908080519060200190929190505050801561667f57508273ffffffffffffffffffffffffffffffffffffffff16635ffe0282866040518263ffffffff167c0100000000000000000000000000000000000000000000000000000000028152600401808273ffffffffffffffffffffffffffffffffffffffff1673ffffffffffffffffffffffffffffffffffffffff168152602001915050602060405180830381600087803b15801561647057600080fd5b505af1158015616484573d6000803e3d6000fd5b505050506040513d602081101561649a57600080fd5b81019080805190602001909291905050508373ffffffffffffffffffffffffffffffffffffffff16637a766460876040518263ffffffff167c0100000000000000000000000000000000000000000000000000000000028152600401808273ffffffffffffffffffffffffffffffffffffffff1673ffffffffffffffffffffffffffffffffffffffff168152602001915050602060405180830381600087803b15801561654657600080fd5b505af115801561655a573d6000803e3d6000fd5b505050506040513d602081101561657057600080fd5b81019080805190602001909291905050500361667d616599600385615da590919063ffffffff16565b8573ffffffffffffffffffffffffffffffffffffffff166356582bf9896040518263ffffffff167c0100000000000000000000000000000000000000000000000000000000028152600401808273ffffffffffffffffffffffffffffffffffffffff1673ffffffffffffffffffffffffffffffffffffffff168152602001915050602060405180830381600087803b15801561663457600080fd5b505af1158015616648573d6000803e3d6000fd5b505050506040513d602081101561665e57600080fd5b8101908080519060200190929190505050615e0c90919063ffffffff16565b115b15616745578273ffffffffffffffffffffffffffffffffffffffff16639385067f8660006040518363ffffffff167c0100000000000000000000000000000000000000000000000000000000028152600401808373ffffffffffffffffffffffffffffffffffffffff1673ffffffffffffffffffffffffffffffffffffffff1681526020018215151515815260200192505050600060405180830381600087803b15801561672c57600080fd5b505af1158015616740573d6000803e3d6000fd5b505050505b8273ffffffffffffffffffffffffffffffffffffffff16632ba9759585600081518110151561677057fe5b906020019060200201516040518263ffffffff167c0100000000000000000000000000000000000000000000000000000000028152600401808273ffffffffffffffffffffffffffffffffffffffff1673ffffffffffffffffffffffffffffffffffffffff168152602001915050602060405180830381600087803b1580156167f857600080fd5b505af115801561680c573d6000803e3d6000fd5b505050506040513d602081101561682257600080fd5b81019080805190602001909291905050508015616b1957508273ffffffffffffffffffffffffffffffffffffffff16635ffe028285600081518110151561686557fe5b906020019060200201516040518263ffffffff167c0100000000000000000000000000000000000000000000000000000000028152600401808273ffffffffffffffffffffffffffffffffffffffff1673ffffffffffffffffffffffffffffffffffffffff168152602001915050602060405180830381600087803b1580156168ed57600080fd5b505af1158015616901573d6000803e3d6000fd5b505050506040513d602081101561691757600080fd5b81019080805190602001909291905050508373ffffffffffffffffffffffffffffffffffffffff16637a76646086600081518110151561695357fe5b906020019060200201516040518263ffffffff167c0100000000000000000000000000000000000000000000000000000000028152600401808273ffffffffffffffffffffffffffffffffffffffff1673ffffffffffffffffffffffffffffffffffffffff168152602001915050602060405180830381600087803b1580156169db57600080fd5b505af11580156169ef573d6000803e3d6000fd5b505050506040513d6020811015616a0557600080fd5b810190808051906020019092919050505003616b17838573ffffffffffffffffffffffffffffffffffffffff166356582bf9886000815181101515616a4657fe5b906020019060200201516040518263ffffffff167c0100000000000000000000000000000000000000000000000000000000028152600401808273ffffffffffffffffffffffffffffffffffffffff1673ffffffffffffffffffffffffffffffffffffffff168152602001915050602060405180830381600087803b158015616ace57600080fd5b505af1158015616ae2573d6000803e3d6000fd5b505050506040513d6020811015616af857600080fd5b8101908080519060200190929190505050615e0c90919063ffffffff16565b115b15616bf7578273ffffffffffffffffffffffffffffffffffffffff16639385067f856000815181101515616b4957fe5b9060200190602002015160006040518363ffffffff167c0100000000000000000000000000000000000000000000000000000000028152600401808373ffffffffffffffffffffffffffffffffffffffff1673ffffffffffffffffffffffffffffffffffffffff1681526020018215151515815260200192505050600060405180830381600087803b158015616bde57600080fd5b505af1158015616bf2573d6000803e3d6000fd5b505050505b8273ffffffffffffffffffffffffffffffffffffffff16632ba97595856001815181101515616c2257fe5b906020019060200201516040518263ffffffff167c0100000000000000000000000000000000000000000000000000000000028152600401808273ffffffffffffffffffffffffffffffffffffffff1673ffffffffffffffffffffffffffffffffffffffff168152602001915050602060405180830381600087803b158015616caa57600080fd5b505af1158015616cbe573d6000803e3d6000fd5b505050506040513d6020811015616cd457600080fd5b81019080805190602001909291905050508015616fcb57508273ffffffffffffffffffffffffffffffffffffffff16635ffe0282856001815181101515616d1757fe5b906020019060200201516040518263ffffffff167c0100000000000000000000000000000000000000000000000000000000028152600401808273ffffffffffffffffffffffffffffffffffffffff1673ffffffffffffffffffffffffffffffffffffffff168152602001915050602060405180830381600087803b158015616d9f57600080fd5b505af1158015616db3573d6000803e3d6000fd5b505050506040513d6020811015616dc957600080fd5b81019080805190602001909291905050508373ffffffffffffffffffffffffffffffffffffffff16637a766460866001815181101515616e0557fe5b906020019060200201516040518263ffffffff167c0100000000000000000000000000000000000000000000000000000000028152600401808273ffffffffffffffffffffffffffffffffffffffff1673ffffffffffffffffffffffffffffffffffffffff168152602001915050602060405180830381600087803b158015616e8d57600080fd5b505af1158015616ea1573d6000803e3d6000fd5b505050506040513d6020811015616eb757600080fd5b810190808051906020019092919050505003616fc9838573ffffffffffffffffffffffffffffffffffffffff166356582bf9886001815181101515616ef857fe5b906020019060200201516040518263ffffffff167c0100000000000000000000000000000000000000000000000000000000028152600401808273ffffffffffffffffffffffffffffffffffffffff1673ffffffffffffffffffffffffffffffffffffffff168152602001915050602060405180830381600087803b158015616f8057600080fd5b505af1158015616f94573d6000803e3d6000fd5b505050506040513d6020811015616faa57600080fd5b8101908080519060200190929190505050615e0c90919063ffffffff16565b115b156170a9578273ffffffffffffffffffffffffffffffffffffffff16639385067f856001815181101515616ffb57fe5b9060200190602002015160006040518363ffffffff167c0100000000000000000000000000000000000000000000000000000000028152600401808373ffffffffffffffffffffffffffffffffffffffff1673ffffffffffffffffffffffffffffffffffffffff1681526020018215151515815260200192505050600060405180830381600087803b15801561709057600080fd5b505af11580156170a4573d6000803e3d6000fd5b505050505b8273ffffffffffffffffffffffffffffffffffffffff16632ba975958560028151811015156170d457fe5b906020019060200201516040518263ffffffff167c0100000000000000000000000000000000000000000000000000000000028152600401808273ffffffffffffffffffffffffffffffffffffffff1673ffffffffffffffffffffffffffffffffffffffff168152602001915050602060405180830381600087803b15801561715c57600080fd5b505af1158015617170573d6000803e3d6000fd5b505050506040513d602081101561718657600080fd5b8101908080519060200190929190505050801561747d57508273ffffffffffffffffffffffffffffffffffffffff16635ffe02828560028151811015156171c957fe5b906020019060200201516040518263ffffffff167c0100000000000000000000000000000000000000000000000000000000028152600401808273ffffffffffffffffffffffffffffffffffffffff1673ffffffffffffffffffffffffffffffffffffffff168152602001915050602060405180830381600087803b15801561725157600080fd5b505af1158015617265573d6000803e3d6000fd5b505050506040513d602081101561727b57600080fd5b81019080805190602001909291905050508373ffffffffffffffffffffffffffffffffffffffff16637a7664608660028151811015156172b757fe5b906020019060200201516040518263ffffffff167c0100000000000000000000000000000000000000000000000000000000028152600401808273ffffffffffffffffffffffffffffffffffffffff1673ffffffffffffffffffffffffffffffffffffffff168152602001915050602060405180830381600087803b15801561733f57600080fd5b505af1158015617353573d6000803e3d6000fd5b505050506040513d602081101561736957600080fd5b81019080805190602001909291905050500361747b838573ffffffffffffffffffffffffffffffffffffffff166356582bf98860028151811015156173aa57fe5b906020019060200201516040518263ffffffff167c0100000000000000000000000000000000000000000000000000000000028152600401808273ffffffffffffffffffffffffffffffffffffffff1673ffffffffffffffffffffffffffffffffffffffff168152602001915050602060405180830381600087803b15801561743257600080fd5b505af1158015617446573d6000803e3d6000fd5b505050506040513d602081101561745c57600080fd5b8101908080519060200190929190505050615e0c90919063ffffffff16565b115b1561755b578273ffffffffffffffffffffffffffffffffffffffff16639385067f8560028151811015156174ad57fe5b9060200190602002015160006040518363ffffffff167c0100000000000000000000000000000000000000000000000000000000028152600401808373ffffffffffffffffffffffffffffffffffffffff1673ffffffffffffffffffffffffffffffffffffffff1681526020018215151515815260200192505050600060405180830381600087803b15801561754257600080fd5b505af1158015617556573d6000803e3d6000fd5b505050505b600160009054906101000a900473ffffffffffffffffffffffffffffffffffffffff1673ffffffffffffffffffffffffffffffffffffffff166304433bbc6040518163ffffffff167c01000000000000000000000000000000000000000000000000000000000281526004018080602001828103825260078152602001807f50726f66696c6500000000000000000000000000000000000000000000000000815250602001915050602060405180830381600087803b15801561761d57600080fd5b505af1158015617631573d6000803e3d6000fd5b505050506040513d602081101561764757600080fd5b810190808051906020019092919050505073ffffffffffffffffffffffffffffffffffffffff16639ec41a2d6040518163ffffffff167c0100000000000000000000000000000000000000000000000000000000028152600401602060405180830381600087803b1580156176bb57600080fd5b505af11580156176cf573d6000803e3d6000fd5b505050506040513d60208110156176e557600080fd5b810190808051906020019092919050505090506178b58373ffffffffffffffffffffffffffffffffffffffff16635ffe0282876040518263ffffffff167c0100000000000000000000000000000000000000000000000000000000028152600401808273ffffffffffffffffffffffffffffffffffffffff1673ffffffffffffffffffffffffffffffffffffffff168152602001915050602060405180830381600087803b15801561779657600080fd5b505af11580156177aa573d6000803e3d6000fd5b505050506040513d60208110156177c057600080fd5b81019080805190602001909291905050508473ffffffffffffffffffffffffffffffffffffffff16637a766460886040518263ffffffff167c0100000000000000000000000000000000000000000000000000000000028152600401808273ffffffffffffffffffffffffffffffffffffffff1673ffffffffffffffffffffffffffffffffffffffff168152602001915050602060405180830381600087803b15801561786c57600080fd5b505af1158015617880573d6000803e3d6000fd5b505050506040513d602081101561789657600080fd5b8101908080519060200190929190505050615dd890919063ffffffff16565b8111151515617952576040517f08c379a000000000000000000000000000000000000000000000000000000000815260040180806020018281038252603b8152602001807f446174612063726561746f7220646f6573206e6f74206861766520656e6f756781526020017f68207374616b6520746f20637265617465206e6577206a6f627321000000000081525060400191505060405180910390fd5b617b3f8373ffffffffffffffffffffffffffffffffffffffff16635ffe028286600081518110151561798057fe5b906020019060200201516040518263ffffffff167c0100000000000000000000000000000000000000000000000000000000028152600401808273ffffffffffffffffffffffffffffffffffffffff1673ffffffffffffffffffffffffffffffffffffffff168152602001915050602060405180830381600087803b158015617a0857600080fd5b505af1158015617a1c573d6000803e3d6000fd5b505050506040513d6020811015617a3257600080fd5b81019080805190602001909291905050508473ffffffffffffffffffffffffffffffffffffffff16637a766460876000815181101515617a6e57fe5b906020019060200201516040518263ffffffff167c0100000000000000000000000000000000000000000000000000000000028152600401808273ffffffffffffffffffffffffffffffffffffffff1673ffffffffffffffffffffffffffffffffffffffff168152602001915050602060405180830381600087803b158015617af657600080fd5b505af1158015617b0a573d6000803e3d6000fd5b505050506040513d6020811015617b2057600080fd5b8101908080519060200190929190505050615dd890919063ffffffff16565b8111151515617bdc576040517f08c379a000000000000000000000000000000000000000000000000000000000815260040180806020018281038252603a8152602001807f46697273742070726f66696c6520646f6573206e6f74206861766520656e6f7581526020017f6768207374616b6520746f2074616b65206e6577206a6f62732100000000000081525060400191505060405180910390fd5b617dc98373ffffffffffffffffffffffffffffffffffffffff16635ffe0282866001815181101515617c0a57fe5b906020019060200201516040518263ffffffff167c0100000000000000000000000000000000000000000000000000000000028152600401808273ffffffffffffffffffffffffffffffffffffffff1673ffffffffffffffffffffffffffffffffffffffff168152602001915050602060405180830381600087803b158015617c9257600080fd5b505af1158015617ca6573d6000803e3d6000fd5b505050506040513d6020811015617cbc57600080fd5b81019080805190602001909291905050508473ffffffffffffffffffffffffffffffffffffffff16637a766460876001815181101515617cf857fe5b906020019060200201516040518263ffffffff167c0100000000000000000000000000000000000000000000000000000000028152600401808273ffffffffffffffffffffffffffffffffffffffff1673ffffffffffffffffffffffffffffffffffffffff168152602001915050602060405180830381600087803b158015617d8057600080fd5b505af1158015617d94573d6000803e3d6000fd5b505050506040513d6020811015617daa57600080fd5b8101908080519060200190929190505050615dd890919063ffffffff16565b8111151515617e66576040517f08c379a000000000000000000000000000000000000000000000000000000000815260040180806020018281038252603b8152602001807f5365636f6e642070726f66696c6520646f6573206e6f74206861766520656e6f81526020017f756768207374616b6520746f2074616b65206e6577206a6f627321000000000081525060400191505060405180910390fd5b6180538373ffffffffffffffffffffffffffffffffffffffff16635ffe0282866002815181101515617e9457fe5b906020019060200201516040518263ffffffff167c0100000000000000000000000000000000000000000000000000000000028152600401808273ffffffffffffffffffffffffffffffffffffffff1673ffffffffffffffffffffffffffffffffffffffff168152602001915050602060405180830381600087803b158015617f1c57600080fd5b505af1158015617f30573d6000803e3d6000fd5b505050506040513d6020811015617f4657600080fd5b81019080805190602001909291905050508473ffffffffffffffffffffffffffffffffffffffff16637a766460876002815181101515617f8257fe5b906020019060200201516040518263ffffffff167c0100000000000000000000000000000000000000000000000000000000028152600401808273ffffffffffffffffffffffffffffffffffffffff1673ffffffffffffffffffffffffffffffffffffffff168152602001915050602060405180830381600087803b15801561800a57600080fd5b505af115801561801e573d6000803e3d6000fd5b505050506040513d602081101561803457600080fd5b8101908080519060200190929190505050615dd890919063ffffffff16565b81111515156180f0576040517f08c379a000000000000000000000000000000000000000000000000000000000815260040180806020018281038252603a8152602001807f54686972642070726f66696c6520646f6573206e6f74206861766520656e6f7581526020017f6768207374616b6520746f2074616b65206e6577206a6f62732100000000000081525060400191505060405180910390fd5b618104600383615da590919063ffffffff16565b6182c18473ffffffffffffffffffffffffffffffffffffffff16635ffe0282886040518263ffffffff167c0100000000000000000000000000000000000000000000000000000000028152600401808273ffffffffffffffffffffffffffffffffffffffff1673ffffffffffffffffffffffffffffffffffffffff168152602001915050602060405180830381600087803b1580156181a257600080fd5b505af11580156181b6573d6000803e3d6000fd5b505050506040513d60208110156181cc57600080fd5b81019080805190602001909291905050508573ffffffffffffffffffffffffffffffffffffffff16637a766460896040518263ffffffff167c0100000000000000000000000000000000000000000000000000000000028152600401808273ffffffffffffffffffffffffffffffffffffffff1673ffffffffffffffffffffffffffffffffffffffff168152602001915050602060405180830381600087803b15801561827857600080fd5b505af115801561828c573d6000803e3d6000fd5b505050506040513d60208110156182a257600080fd5b8101908080519060200190929190505050615dd890919063ffffffff16565b1015151561835d576040517f08c379a00000000000000000000000000000000000000000000000000000000081526004018080602001828103825260368152602001807f446174612063726561746f7220646f6573206e6f74206861766520656e6f756781526020017f68207374616b6520666f7220726573657276696e67210000000000000000000081525060400191505060405180910390fd5b8161854b8473ffffffffffffffffffffffffffffffffffffffff16635ffe028287600081518110151561838c57fe5b906020019060200201516040518263ffffffff167c0100000000000000000000000000000000000000000000000000000000028152600401808273ffffffffffffffffffffffffffffffffffffffff1673ffffffffffffffffffffffffffffffffffffffff168152602001915050602060405180830381600087803b15801561841457600080fd5b505af1158015618428573d6000803e3d6000fd5b505050506040513d602081101561843e57600080fd5b81019080805190602001909291905050508573ffffffffffffffffffffffffffffffffffffffff16637a76646088600081518110151561847a57fe5b906020019060200201516040518263ffffffff167c0100000000000000000000000000000000000000000000000000000000028152600401808273ffffffffffffffffffffffffffffffffffffffff1673ffffffffffffffffffffffffffffffffffffffff168152602001915050602060405180830381600087803b15801561850257600080fd5b505af1158015618516573d6000803e3d6000fd5b505050506040513d602081101561852c57600080fd5b8101908080519060200190929190505050615dd890919063ffffffff16565b101515156185e7576040517f08c379a00000000000000000000000000000000000000000000000000000000081526004018080602001828103825260378152602001807f46697273742070726f66696c6520646f6573206e6f74206861766520656e6f7581526020017f6768207374616b6520666f7220726573657276696e672100000000000000000081525060400191505060405180910390fd5b816187d58473ffffffffffffffffffffffffffffffffffffffff16635ffe028287600181518110151561861657fe5b906020019060200201516040518263ffffffff167c0100000000000000000000000000000000000000000000000000000000028152600401808273ffffffffffffffffffffffffffffffffffffffff1673ffffffffffffffffffffffffffffffffffffffff168152602001915050602060405180830381600087803b15801561869e57600080fd5b505af11580156186b2573d6000803e3d6000fd5b505050506040513d60208110156186c857600080fd5b81019080805190602001909291905050508573ffffffffffffffffffffffffffffffffffffffff16637a76646088600181518110151561870457fe5b906020019060200201516040518263ffffffff167c0100000000000000000000000000000000000000000000000000000000028152600401808273ffffffffffffffffffffffffffffffffffffffff1673ffffffffffffffffffffffffffffffffffffffff168152602001915050602060405180830381600087803b15801561878c57600080fd5b505af11580156187a0573d6000803e3d6000fd5b505050506040513d60208110156187b657600080fd5b8101908080519060200190929190505050615dd890919063ffffffff16565b10151515618871576040517f08c379a00000000000000000000000000000000000000000000000000000000081526004018080602001828103825260388152602001807f5365636f6e642070726f66696c6520646f6573206e6f74206861766520656e6f81526020017f756768207374616b6520666f7220726573657276696e6721000000000000000081525060400191505060405180910390fd5b81618a5f8473ffffffffffffffffffffffffffffffffffffffff16635ffe02828760028151811015156188a057fe5b906020019060200201516040518263ffffffff167c0100000000000000000000000000000000000000000000000000000000028152600401808273ffffffffffffffffffffffffffffffffffffffff1673ffffffffffffffffffffffffffffffffffffffff168152602001915050602060405180830381600087803b15801561892857600080fd5b505af115801561893c573d6000803e3d6000fd5b505050506040513d602081101561895257600080fd5b81019080805190602001909291905050508573ffffffffffffffffffffffffffffffffffffffff16637a76646088600281518110151561898e57fe5b906020019060200201516040518263ffffffff167c0100000000000000000000000000000000000000000000000000000000028152600401808273ffffffffffffffffffffffffffffffffffffffff1673ffffffffffffffffffffffffffffffffffffffff168152602001915050602060405180830381600087803b158015618a1657600080fd5b505af1158015618a2a573d6000803e3d6000fd5b505050506040513d6020811015618a4057600080fd5b8101908080519060200190929190505050615dd890919063ffffffff16565b10151515618afb576040517f08c379a00000000000000000000000000000000000000000000000000000000081526004018080602001828103825260378152602001807f54686972642070726f66696c6520646f6573206e6f74206861766520656e6f7581526020017f6768207374616b6520666f7220726573657276696e672100000000000000000081525060400191505060405180910390fd5b8273ffffffffffffffffffffffffffffffffffffffff1663a6748ef586866000815181101515618b2757fe5b90602001906020020151876001815181101515618b4057fe5b90602001906020020151886002815181101515618b5957fe5b90602001906020020151876040518663ffffffff167c0100000000000000000000000000000000000000000000000000000000028152600401808673ffffffffffffffffffffffffffffffffffffffff1673ffffffffffffffffffffffffffffffffffffffff1681526020018573ffffffffffffffffffffffffffffffffffffffff1673ffffffffffffffffffffffffffffffffffffffff1681526020018473ffffffffffffffffffffffffffffffffffffffff1673ffffffffffffffffffffffffffffffffffffffff1681526020018373ffffffffffffffffffffffffffffffffffffffff1673ffffffffffffffffffffffffffffffffffffffff16815260200182815260200195505050505050600060405180830381600087803b158015618c8257600080fd5b505af1158015618c96573d6000803e3d6000fd5b50505050505050505050565b60008082111515618d1b576040517f08c379a00000000000000000000000000000000000000000000000000000000081526004018080602001828103825260128152602001807f6c6f67283029206e6f7420616c6c6f776564000000000000000000000000000081525060200191505060405180910390fd5b8160018303925060028304831792506004830483179250601083048317925061010083048317925062010000830483179250640100000000830483179250680100000000000000008304831792507001000000000000000000000000000000008304831792506001830192506040517ff8f9cbfae6cc78fbefe7cdc3a1793dfcf4f0e8bbd8cec470b6a28a7a5a3e1efd81527ff5ecf1b3e9debc68e1d9cfabc5997135bfb7a7a3938b7b606b5b4b3f2f1f0ffe60208201527ff6e4ed9ff2d6b458eadcdf97bd91692de2d4da8fd2d0ac50c6ae9a827252361660408201527fc8c0b887b0a8a4489c948c7f847c6125746c645c544c444038302820181008ff60608201527ff7cae577eec2a03cf3bad76fb589591debb2dd67e0aa9834bea6925f6a4a2e0e60808201527fe39ed557db96902cd38ed14fad815115c786af479b7e8324736353433727170760a08201527fc976c13bb96e881cb166a933a55e490d9d56952b8d4e801485467d236242260660c08201527f753a6d1b65325d0c552a4d1345224105391a310b29122104190a11030902010060e082015261010081016040527e818283848586878898a8b8c8d8e8f929395969799a9b9d9e9faaeb6bedeeff7f01000000000000000000000000000000000000000000000000000000000000008082870204818160ff038501510495507f8000000000000000000000000000000000000000000000000000000000000000851161010002860195505050505050919050565b6060604051908101604052806003906020820280388339808201915050905050905600a165627a7a72305820c3149ac633bf3019db8f5d3e4d35ee62dfe3a16c7df4b9ce1d71ac3a1b81a33b0029",
  "source": "pragma solidity ^0.4.24;\n\nimport './Hub.sol';\nimport {ERC725} from './ERC725.sol';\nimport {HoldingStorage} from './HoldingStorage.sol';\nimport {ProfileStorage} from './ProfileStorage.sol';\nimport {LitigationStorage} from './LitigationStorage.sol';\nimport {Profile} from './Profile.sol';\nimport {CreditorHandler} from './CreditorHandler.sol';\nimport {Approval} from './Approval.sol';\nimport {SafeMath} from './SafeMath.sol';\n\ncontract Holding is Ownable {\n    using SafeMath for uint256;\n\n    Hub public hub;\n    uint256 public difficultyOverride;\n\n    constructor(address hubAddress) public{\n        require(hubAddress!=address(0));\n        hub = Hub(hubAddress);\n    }\n\n    function setHubAddress(address newHubAddress) public{\n        require(hub.isContract(msg.sender), \"This function can only be called by contracts or their creator!\");\n\n        hub = Hub(newHubAddress);\n    }\n\n    event OfferTask(bytes32 dataSetId, bytes32 dcNodeId, bytes32 offerId, bytes32 task);\n    event OfferCreated(bytes32 offerId, bytes32 dataSetId, bytes32 dcNodeId, uint256 holdingTimeInMinutes, uint256 dataSetSizeInBytes, uint256 tokenAmountPerHolder, uint256 litigationIntervalInMinutes);\n    event OfferFinalized(bytes32 offerId, address holder1, address holder2, address holder3);\n\n    event PaidOut(bytes32 offerId, address holder, uint256 amount);\n\n    function createOffer(address identity, uint256 dataSetId,\n        uint256 dataRootHash, uint256 redLitigationHash, uint256 greenLitigationHash, uint256 blueLitigationHash, uint256 dcNodeId,\n        uint256 holdingTimeInMinutes, uint256 tokenAmountPerHolder, uint256 dataSetSizeInBytes, uint256 litigationIntervalInMinutes) public {\n        // Verify sender\n        require(ERC725(identity).keyHasPurpose(keccak256(abi.encodePacked(msg.sender)), 2));\n        require(Approval(hub.getContractAddress(\"Approval\")).identityHasApproval(identity), \"Identity does not have approval for using the contract\");\n        // First we check that the paramaters are valid\n        require(dataRootHash != 0, \"Data root hash cannot be zero\");\n        require(redLitigationHash != 0, \"Litigation hash cannot be zero\");\n        require(greenLitigationHash != 0, \"Litigation root hash cannot be zero\");\n        require(blueLitigationHash != 0, \"Litigation root hash cannot be zero\");\n        require(holdingTimeInMinutes > 0, \"Holding time cannot be zero\");\n        require(dataSetSizeInBytes > 0, \"Data size cannot be zero\");\n        require(tokenAmountPerHolder > 0, \"Token amount per holder cannot be zero\");\n        require(litigationIntervalInMinutes > 0, \"Litigation interval cannot be zero\");\n\n        // Writing data root hash if it wasn't previously set\n        if(HoldingStorage(hub.getContractAddress(\"HoldingStorage\")).fingerprint(bytes32(dataSetId)) == bytes32(0)){\n            HoldingStorage(hub.getContractAddress(\"HoldingStorage\")).setFingerprint(bytes32(dataSetId), bytes32(dataRootHash));\n        } else {\n            require(bytes32(dataRootHash) == HoldingStorage(hub.getContractAddress(\"HoldingStorage\")).fingerprint(bytes32(dataSetId)),\n                \"Cannot create offer with different data root hash!\");\n        }\n\n        // Now we calculate the offerId, which should be unique\n        // We consider a pair of dataSet and identity unique within one block, hence the formula for offerId\n        bytes32 offerId = keccak256(abi.encodePacked(bytes32(dataSetId), identity, blockhash(block.number - 1)));\n\n\n        //We calculate the task for the data creator to solve\n        //Calculating task difficulty\n        uint256 difficulty;\n        if(HoldingStorage(hub.getContractAddress(\"HoldingStorage\")).getDifficultyOverride() != 0) {\n            difficulty = HoldingStorage(hub.getContractAddress(\"HoldingStorage\")).getDifficultyOverride();\n        }\n        else {\n            if(logs2(ProfileStorage(hub.getContractAddress(\"ProfileStorage\")).activeNodes()) <= 4) difficulty = 1;\n            else {\n                difficulty = 4 + (((logs2(ProfileStorage(hub.getContractAddress(\"ProfileStorage\")).activeNodes()) - 4) * 10000) / 13219);\n            }\n        }\n\n        // Writing variables into storage\n        HoldingStorage(hub.getContractAddress(\"HoldingStorage\")).setOfferParameters(\n            offerId,\n            identity,\n            bytes32(dataSetId),\n            holdingTimeInMinutes,\n            tokenAmountPerHolder,\n            litigationIntervalInMinutes,\n            blockhash(block.number - 1) & bytes32(2 ** (difficulty * 4) - 1),\n            difficulty\n        );\n\n        HoldingStorage(hub.getContractAddress(\"HoldingStorage\")).setOfferLitigationHashes(\n            offerId,\n            bytes32(redLitigationHash),\n            bytes32(greenLitigationHash),\n            bytes32(blueLitigationHash)\n        );\n\n        emit OfferTask(bytes32(dataSetId), bytes32(dcNodeId), offerId, blockhash(block.number - 1) & bytes32(2 ** (difficulty * 4) - 1));\n        emit OfferCreated(offerId, bytes32(dataSetId), bytes32(dcNodeId), holdingTimeInMinutes, dataSetSizeInBytes, tokenAmountPerHolder, litigationIntervalInMinutes);\n    }\n\n    function finalizeOffer(address identity, uint256 offerId, uint256 shift,\n        bytes confirmation1, bytes confirmation2, bytes confirmation3,\n        uint8[] encryptionType, address[] holderIdentity, address parentIdentity)\n    public {\n        HoldingStorage holdingStorage = HoldingStorage(hub.getContractAddress(\"HoldingStorage\"));\n\n        // Verify sender\n        require(ERC725(identity).keyHasPurpose(keccak256(abi.encodePacked(msg.sender)), 2), \"Sender does not have action permission to call this function!\");\n        if(parentIdentity != address(0)){\n            CreditorHandler(hub.getContractAddress(\"CreditorHandler\")).finalizeOffer(offerId, identity, parentIdentity);\n        }\n        require(identity == holdingStorage.getOfferCreator(bytes32(offerId)), \"Offer can only be finalized by its creator!\");\n\n        // Check if signatures match identities\n        require(ERC725(holderIdentity[0]).keyHasPurpose(keccak256(abi.encodePacked(ecrecovery(keccak256(abi.encodePacked(offerId,uint256(holderIdentity[0]))), confirmation1))), 4), \"Wallet from holder 1 does not have encryption approval!\");\n        require(ERC725(holderIdentity[1]).keyHasPurpose(keccak256(abi.encodePacked(ecrecovery(keccak256(abi.encodePacked(offerId,uint256(holderIdentity[1]))), confirmation2))), 4), \"Wallet from holder 2 does not have encryption approval!\");\n        require(ERC725(holderIdentity[2]).keyHasPurpose(keccak256(abi.encodePacked(ecrecovery(keccak256(abi.encodePacked(offerId,uint256(holderIdentity[2]))), confirmation3))), 4), \"Wallet from holder 3 does not have encryption approval!\");\n\n        // Verify task answer\n        bytes32[3] memory hashes;\n\n        hashes[0] = keccak256(abi.encodePacked(holderIdentity[0], holdingStorage.getOfferTask(bytes32(offerId))));\n        hashes[1] = keccak256(abi.encodePacked(holderIdentity[1], holdingStorage.getOfferTask(bytes32(offerId))));\n        hashes[2] = keccak256(abi.encodePacked(holderIdentity[2], holdingStorage.getOfferTask(bytes32(offerId))));\n\n        require(uint256(hashes[0]) < uint256(hashes[1]) && uint256(hashes[1]) < uint256(hashes[2]), \"Solution hashes are not sorted!\");\n\n        // Verify task answer\n        require(((keccak256(abi.encodePacked(hashes[0], hashes[1], hashes[2])) >> (shift * 4)) & bytes32((2 ** (4 * holdingStorage.getOfferDifficulty(bytes32(offerId)))) - 1))\n            == holdingStorage.getOfferTask(bytes32(offerId)), \"Submitted identities do not answer the task correctly!\");\n\n        // Write data into storage\n        holdingStorage.setHolders(bytes32(offerId), holderIdentity, encryptionType);\n\n        // Secure funds from all parties\n        reserveTokens(offerId, identity, holderIdentity);\n\n        emit OfferFinalized(bytes32(offerId), holderIdentity[0], holderIdentity[1], holderIdentity[2]);\n    }\n\n    function reserveTokens(uint256 offerId, address payer, address[] identity)\n    internal {\n        ProfileStorage profileStorage = ProfileStorage(hub.getContractAddress(\"ProfileStorage\"));\n\n        uint256 amount = HoldingStorage(hub.getContractAddress(\"HoldingStorage\")).getOfferTokenAmountPerHolder(bytes32(offerId));\n\n        if(profileStorage.getWithdrawalPending(payer) && profileStorage.getWithdrawalAmount(payer).add(amount.mul(3)) > profileStorage.getStake(payer) - profileStorage.getStakeReserved(payer)) {\n            profileStorage.setWithdrawalPending(payer,false);\n        }\n        if(profileStorage.getWithdrawalPending(identity[0]) && profileStorage.getWithdrawalAmount(identity[0]).add(amount) > profileStorage.getStake(identity[0]) - profileStorage.getStakeReserved(identity[0])) {\n            profileStorage.setWithdrawalPending(identity[0],false);\n        }\n        if(profileStorage.getWithdrawalPending(identity[1]) && profileStorage.getWithdrawalAmount(identity[1]).add(amount) > profileStorage.getStake(identity[1]) - profileStorage.getStakeReserved(identity[1])) {\n            profileStorage.setWithdrawalPending(identity[1],false);\n        }\n        if(profileStorage.getWithdrawalPending(identity[2]) && profileStorage.getWithdrawalAmount(identity[2]).add(amount) > profileStorage.getStake(identity[2]) - profileStorage.getStakeReserved(identity[2])) {\n            profileStorage.setWithdrawalPending(identity[2],false);\n        }\n\n        uint256 minimalStake = Profile(hub.getContractAddress(\"Profile\")).minimalStake();\n\n        require(minimalStake <= profileStorage.getStake(payer).sub(profileStorage.getStakeReserved(payer)),\n            \"Data creator does not have enough stake to create new jobs!\");\n        require(minimalStake <= profileStorage.getStake(identity[0]).sub(profileStorage.getStakeReserved(identity[0])),\n            \"First profile does not have enough stake to take new jobs!\");\n        require(minimalStake <= profileStorage.getStake(identity[1]).sub(profileStorage.getStakeReserved(identity[1])),\n            \"Second profile does not have enough stake to take new jobs!\");\n        require(minimalStake <= profileStorage.getStake(identity[2]).sub(profileStorage.getStakeReserved(identity[2])),\n            \"Third profile does not have enough stake to take new jobs!\");\n\n        require(profileStorage.getStake(payer).sub(profileStorage.getStakeReserved(payer)) >= amount.mul(3),\n            \"Data creator does not have enough stake for reserving!\");\n        require(profileStorage.getStake(identity[0]).sub(profileStorage.getStakeReserved(identity[0])) >= amount,\n            \"First profile does not have enough stake for reserving!\");\n        require(profileStorage.getStake(identity[1]).sub(profileStorage.getStakeReserved(identity[1])) >= amount,\n            \"Second profile does not have enough stake for reserving!\");\n        require(profileStorage.getStake(identity[2]).sub(profileStorage.getStakeReserved(identity[2])) >= amount,\n            \"Third profile does not have enough stake for reserving!\");\n\n        profileStorage.increaseStakesReserved(\n            payer,\n            identity[0],\n            identity[1],\n            identity[2],\n            amount\n        );\n    }\n\n    function payOut(address identity, uint256 offerId)\n    public {\n        HoldingStorage holdingStorage = HoldingStorage(hub.getContractAddress(\"HoldingStorage\"));\n\n        // Verify sender\n        require(ERC725(identity).keyHasPurpose(keccak256(abi.encodePacked(msg.sender)), 2) || ERC725(identity).keyHasPurpose(keccak256(abi.encodePacked(msg.sender)), 1), \"Sender does not have proper permission to call this function!\");\n        require(Approval(hub.getContractAddress(\"Approval\")).identityHasApproval(identity), \"Identity does not have approval for using the contract\");\n\n        // Verify that the litigation is not in progress\n        LitigationStorage.LitigationStatus status = LitigationStorage(hub.getContractAddress(\"LitigationStorage\")).getLitigationStatus(bytes32(offerId), identity);\n        uint256 litigationTimestamp = LitigationStorage(hub.getContractAddress(\"LitigationStorage\")).getLitigationTimestamp(bytes32(offerId), identity);\n        uint256 litigationInterval = HoldingStorage(hub.getContractAddress(\"HoldingStorage\")).getOfferLitigationIntervalInMinutes(bytes32(offerId)).mul(60);\n\n        if(status == LitigationStorage.LitigationStatus.initiated) {\n            require(litigationTimestamp + litigationInterval.mul(2) < block.timestamp,\n                \"Unanswered litigation in progress, cannot pay out\");\n        }\n        else if(status == LitigationStorage.LitigationStatus.answered){\n            require(litigationTimestamp + litigationInterval < block.timestamp,\n                \"Unanswered litigation in progress, cannot pay out\");\n        }\n        else {\n            require(status == LitigationStorage.LitigationStatus.completed,\n                \"Data holder is replaced or being replaced, cannot payout!\");\n        }\n\n        // Verify holder\n        require(holdingStorage.getHolderStakedAmount(bytes32(offerId), identity) > 0, \"Sender is not holding this data set!\");\n\n        // Calculate amount to send\n        uint256 amountToTransfer = holdingStorage.getOfferTokenAmountPerHolder(bytes32(offerId));\n        // Multiply the tokenAmountPerHolder by the time the the holder held the data\n        amountToTransfer = amountToTransfer.mul((block.timestamp).sub(holdingStorage.getHolderPaymentTimestamp(bytes32(offerId), identity)));\n        // Divide the tokenAmountPerHolder by the total time\n        amountToTransfer = amountToTransfer.div(holdingStorage.getOfferHoldingTimeInMinutes(bytes32(offerId)).mul(60));\n\n        if(amountToTransfer.add(holdingStorage.getHolderPaidAmount(bytes32(offerId), identity))\n            >= holdingStorage.getHolderStakedAmount(bytes32(offerId), identity)) {\n\n            amountToTransfer = holdingStorage.getHolderStakedAmount(bytes32(offerId), identity);\n            amountToTransfer = amountToTransfer.sub(holdingStorage.getHolderPaidAmount(bytes32(offerId), identity));\n\n            if (amountToTransfer == 0) return;\n            // Offer is completed, release holder stake\n            Profile(hub.getContractAddress(\"Profile\")).releaseTokens(identity, holdingStorage.getHolderStakedAmount(bytes32(offerId), identity));\n        }\n\n        // Release tokens staked by holder and transfer tokens from data creator to holder\n        Profile(hub.getContractAddress(\"Profile\")).transferTokens(holdingStorage.getOfferCreator(bytes32(offerId)), identity, amountToTransfer);\n\n        holdingStorage.setHolderPaymentTimestamp(bytes32(offerId), identity, block.timestamp);\n\n        uint256 holderPaidAmount = holdingStorage.getHolderPaidAmount(bytes32(offerId), identity);\n        holderPaidAmount = holderPaidAmount.add(amountToTransfer);\n        holdingStorage.setHolderPaidAmount(bytes32(offerId), identity, holderPaidAmount);\n\n        emit PaidOut(bytes32(offerId), identity, amountToTransfer);\n    }\n\n    function ecrecovery(bytes32 hash, bytes sig) internal pure returns (address) {\n        bytes32 r;\n        bytes32 s;\n        uint8 v;\n\n        if (sig.length != 65)\n            return address(0);\n\n        bytes memory prefix = \"\\x19Ethereum Signed Message:\\n32\";\n        bytes32 prefixedHash = keccak256(abi.encodePacked(prefix, hash));\n\n        // The signature format is a compact form of:\n        //   {bytes32 r}{bytes32 s}{uint8 v}\n        // Compact means, uint8 is not padded to 32 bytes.\n        assembly {\n            r := mload(add(sig, 32))\n            s := mload(add(sig, 64))\n\n        // Here we are loading the last 32 bytes. We exploit the fact that\n        // 'mload' will pad with zeroes if we overread.\n        // There is no 'mload8' to do this, but that would be nicer.\n            v := byte(0, mload(add(sig, 96)))\n        }\n\n        // geth uses [0, 1] and some clients have followed. This might change, see:\n        //  https://github.com/ethereum/go-ethereum/issues/2053\n        if (v < 27) v += 27;\n\n        if (v != 27 && v != 28) return address(0);\n\n        return ecrecover(prefixedHash, v, r, s);\n    }\n\n    function logs2(uint x) internal pure returns (uint y) {\n        require(x > 0, \"log(0) not allowed\");\n        assembly {\n            let arg := x\n            x := sub(x,1)\n            x := or(x, div(x, 0x02))\n            x := or(x, div(x, 0x04))\n            x := or(x, div(x, 0x10))\n            x := or(x, div(x, 0x100))\n            x := or(x, div(x, 0x10000))\n            x := or(x, div(x, 0x100000000))\n            x := or(x, div(x, 0x10000000000000000))\n            x := or(x, div(x, 0x100000000000000000000000000000000))\n            x := add(x, 1)\n            let m := mload(0x40)\n            mstore(m,           0xf8f9cbfae6cc78fbefe7cdc3a1793dfcf4f0e8bbd8cec470b6a28a7a5a3e1efd)\n            mstore(add(m,0x20), 0xf5ecf1b3e9debc68e1d9cfabc5997135bfb7a7a3938b7b606b5b4b3f2f1f0ffe)\n            mstore(add(m,0x40), 0xf6e4ed9ff2d6b458eadcdf97bd91692de2d4da8fd2d0ac50c6ae9a8272523616)\n            mstore(add(m,0x60), 0xc8c0b887b0a8a4489c948c7f847c6125746c645c544c444038302820181008ff)\n            mstore(add(m,0x80), 0xf7cae577eec2a03cf3bad76fb589591debb2dd67e0aa9834bea6925f6a4a2e0e)\n            mstore(add(m,0xa0), 0xe39ed557db96902cd38ed14fad815115c786af479b7e83247363534337271707)\n            mstore(add(m,0xc0), 0xc976c13bb96e881cb166a933a55e490d9d56952b8d4e801485467d2362422606)\n            mstore(add(m,0xe0), 0x753a6d1b65325d0c552a4d1345224105391a310b29122104190a110309020100)\n            mstore(0x40, add(m, 0x100))\n            let magic := 0x818283848586878898a8b8c8d8e8f929395969799a9b9d9e9faaeb6bedeeff\n            let shift := 0x100000000000000000000000000000000000000000000000000000000000000\n            let a := div(mul(x, magic), shift)\n            y := div(mload(add(m,sub(255,a))), shift)\n            y := add(y, mul(256, gt(arg, 0x8000000000000000000000000000000000000000000000000000000000000000)))\n        }\n    }\n}\n\n",
  "sourcePath": "/Users/uroskukic/Documents/Projects/Starfleet/builders-demo/truffle/contracts/Holding.sol",
  "compiler": {
    "name": "solc",
    "version": "0.4.26+commit.4563c3fc.Emscripten.clang"
  },
  "schemaVersion": "3.3.3",
  "updatedAt": "2021-01-28T12:36:03.871Z",
  "devdoc": {
    "methods": {
      "transferOwnership(address)": {
        "details": "Allows the current owner to transfer control of the contract to a newOwner.",
        "params": {
          "newOwner": "The address to transfer ownership to."
        }
      }
    }
  },
  "userdoc": {
    "methods": {}
  }
}