{
  "contractName": "HoldingStorage",
  "abi": [
    {
      "constant": true,
      "inputs": [],
      "name": "hub",
      "outputs": [
        {
          "name": "",
          "type": "address"
        }
      ],
      "payable": false,
      "stateMutability": "view",
      "type": "function"
    },
    {
      "constant": true,
      "inputs": [],
      "name": "difficultyOverride",
      "outputs": [
        {
          "name": "",
          "type": "uint256"
        }
      ],
      "payable": false,
      "stateMutability": "view",
      "type": "function"
    },
    {
      "constant": true,
      "inputs": [
        {
          "name": "",
          "type": "bytes32"
        }
      ],
      "name": "fingerprint",
      "outputs": [
        {
          "name": "",
          "type": "bytes32"
        }
      ],
      "payable": false,
      "stateMutability": "view",
      "type": "function"
    },
    {
      "constant": true,
      "inputs": [
        {
          "name": "",
          "type": "bytes32"
        },
        {
          "name": "",
          "type": "address"
        }
      ],
      "name": "holder",
      "outputs": [
        {
          "name": "stakedAmount",
          "type": "uint256"
        },
        {
          "name": "paidAmount",
          "type": "uint256"
        },
        {
          "name": "litigationEncryptionType",
          "type": "uint256"
        },
        {
          "name": "paymentTimestamp",
          "type": "uint256"
        }
      ],
      "payable": false,
      "stateMutability": "view",
      "type": "function"
    },
    {
      "constant": true,
      "inputs": [
        {
          "name": "",
          "type": "bytes32"
        }
      ],
      "name": "offer",
      "outputs": [
        {
          "name": "creator",
          "type": "address"
        },
        {
          "name": "dataSetId",
          "type": "bytes32"
        },
        {
          "name": "holdingTimeInMinutes",
          "type": "uint256"
        },
        {
          "name": "tokenAmountPerHolder",
          "type": "uint256"
        },
        {
          "name": "litigationIntervalInMinutes",
          "type": "uint256"
        },
        {
          "name": "task",
          "type": "bytes32"
        },
        {
          "name": "difficulty",
          "type": "uint256"
        },
        {
          "name": "redLitigationHash",
          "type": "bytes32"
        },
        {
          "name": "greenLitigationHash",
          "type": "bytes32"
        },
        {
          "name": "blueLitigationHash",
          "type": "bytes32"
        },
        {
          "name": "startTime",
          "type": "uint256"
        }
      ],
      "payable": false,
      "stateMutability": "view",
      "type": "function"
    },
    {
      "inputs": [
        {
          "name": "hubAddress",
          "type": "address"
        }
      ],
      "payable": false,
      "stateMutability": "nonpayable",
      "type": "constructor"
    },
    {
      "constant": true,
      "inputs": [],
      "name": "getDifficultyOverride",
      "outputs": [
        {
          "name": "",
          "type": "uint256"
        }
      ],
      "payable": false,
      "stateMutability": "view",
      "type": "function"
    },
    {
      "constant": false,
      "inputs": [
        {
          "name": "new_difficulty",
          "type": "uint256"
        }
      ],
      "name": "setDifficultyOverride",
      "outputs": [],
      "payable": false,
      "stateMutability": "nonpayable",
      "type": "function"
    },
    {
      "constant": false,
      "inputs": [
        {
          "name": "dataSetId",
          "type": "bytes32"
        },
        {
          "name": "dataRootHash",
          "type": "bytes32"
        }
      ],
      "name": "setFingerprint",
      "outputs": [],
      "payable": false,
      "stateMutability": "nonpayable",
      "type": "function"
    },
    {
      "constant": true,
      "inputs": [
        {
          "name": "offerId",
          "type": "bytes32"
        }
      ],
      "name": "getOfferCreator",
      "outputs": [
        {
          "name": "creator",
          "type": "address"
        }
      ],
      "payable": false,
      "stateMutability": "view",
      "type": "function"
    },
    {
      "constant": true,
      "inputs": [
        {
          "name": "offerId",
          "type": "bytes32"
        }
      ],
      "name": "getOfferDataSetId",
      "outputs": [
        {
          "name": "dataSetId",
          "type": "bytes32"
        }
      ],
      "payable": false,
      "stateMutability": "view",
      "type": "function"
    },
    {
      "constant": true,
      "inputs": [
        {
          "name": "offerId",
          "type": "bytes32"
        }
      ],
      "name": "getOfferHoldingTimeInMinutes",
      "outputs": [
        {
          "name": "holdingTimeInMinutes",
          "type": "uint256"
        }
      ],
      "payable": false,
      "stateMutability": "view",
      "type": "function"
    },
    {
      "constant": true,
      "inputs": [
        {
          "name": "offerId",
          "type": "bytes32"
        }
      ],
      "name": "getOfferTokenAmountPerHolder",
      "outputs": [
        {
          "name": "tokenAmountPerHolder",
          "type": "uint256"
        }
      ],
      "payable": false,
      "stateMutability": "view",
      "type": "function"
    },
    {
      "constant": true,
      "inputs": [
        {
          "name": "offerId",
          "type": "bytes32"
        }
      ],
      "name": "getOfferLitigationIntervalInMinutes",
      "outputs": [
        {
          "name": "litigationIntervalInMinutes",
          "type": "uint256"
        }
      ],
      "payable": false,
      "stateMutability": "view",
      "type": "function"
    },
    {
      "constant": true,
      "inputs": [
        {
          "name": "offerId",
          "type": "bytes32"
        }
      ],
      "name": "getOfferTask",
      "outputs": [
        {
          "name": "task",
          "type": "bytes32"
        }
      ],
      "payable": false,
      "stateMutability": "view",
      "type": "function"
    },
    {
      "constant": true,
      "inputs": [
        {
          "name": "offerId",
          "type": "bytes32"
        }
      ],
      "name": "getOfferDifficulty",
      "outputs": [
        {
          "name": "difficulty",
          "type": "uint256"
        }
      ],
      "payable": false,
      "stateMutability": "view",
      "type": "function"
    },
    {
      "constant": true,
      "inputs": [
        {
          "name": "offerId",
          "type": "bytes32"
        }
      ],
      "name": "getOfferRedLitigationHash",
      "outputs": [
        {
          "name": "redLitigationHash",
          "type": "bytes32"
        }
      ],
      "payable": false,
      "stateMutability": "view",
      "type": "function"
    },
    {
      "constant": true,
      "inputs": [
        {
          "name": "offerId",
          "type": "bytes32"
        }
      ],
      "name": "getOfferGreenLitigationHash",
      "outputs": [
        {
          "name": "greenLitigationHash",
          "type": "bytes32"
        }
      ],
      "payable": false,
      "stateMutability": "view",
      "type": "function"
    },
    {
      "constant": true,
      "inputs": [
        {
          "name": "offerId",
          "type": "bytes32"
        }
      ],
      "name": "getOfferBlueLitigationHash",
      "outputs": [
        {
          "name": "blueLitigationHash",
          "type": "bytes32"
        }
      ],
      "payable": false,
      "stateMutability": "view",
      "type": "function"
    },
    {
      "constant": true,
      "inputs": [
        {
          "name": "offerId",
          "type": "bytes32"
        }
      ],
      "name": "getOfferStartTime",
      "outputs": [
        {
          "name": "startTime",
          "type": "uint256"
        }
      ],
      "payable": false,
      "stateMutability": "view",
      "type": "function"
    },
    {
      "constant": false,
      "inputs": [
        {
          "name": "offerId",
          "type": "bytes32"
        },
        {
          "name": "creator",
          "type": "address"
        }
      ],
      "name": "setOfferCreator",
      "outputs": [],
      "payable": false,
      "stateMutability": "nonpayable",
      "type": "function"
    },
    {
      "constant": false,
      "inputs": [
        {
          "name": "offerId",
          "type": "bytes32"
        },
        {
          "name": "dataSetId",
          "type": "bytes32"
        }
      ],
      "name": "setOfferDataSetId",
      "outputs": [],
      "payable": false,
      "stateMutability": "nonpayable",
      "type": "function"
    },
    {
      "constant": false,
      "inputs": [
        {
          "name": "offerId",
          "type": "bytes32"
        },
        {
          "name": "holdingTimeInMinutes",
          "type": "uint256"
        }
      ],
      "name": "setOfferHoldingTimeInMinutes",
      "outputs": [],
      "payable": false,
      "stateMutability": "nonpayable",
      "type": "function"
    },
    {
      "constant": false,
      "inputs": [
        {
          "name": "offerId",
          "type": "bytes32"
        },
        {
          "name": "tokenAmountPerHolder",
          "type": "uint256"
        }
      ],
      "name": "setOfferTokenAmountPerHolder",
      "outputs": [],
      "payable": false,
      "stateMutability": "nonpayable",
      "type": "function"
    },
    {
      "constant": false,
      "inputs": [
        {
          "name": "offerId",
          "type": "bytes32"
        },
        {
          "name": "litigationIntervalInMinutes",
          "type": "uint256"
        }
      ],
      "name": "setOfferLitigationIntervalInMinutes",
      "outputs": [],
      "payable": false,
      "stateMutability": "nonpayable",
      "type": "function"
    },
    {
      "constant": false,
      "inputs": [
        {
          "name": "offerId",
          "type": "bytes32"
        },
        {
          "name": "task",
          "type": "bytes32"
        }
      ],
      "name": "setOfferTask",
      "outputs": [],
      "payable": false,
      "stateMutability": "nonpayable",
      "type": "function"
    },
    {
      "constant": false,
      "inputs": [
        {
          "name": "offerId",
          "type": "bytes32"
        },
        {
          "name": "difficulty",
          "type": "uint256"
        }
      ],
      "name": "setOfferDifficulty",
      "outputs": [],
      "payable": false,
      "stateMutability": "nonpayable",
      "type": "function"
    },
    {
      "constant": false,
      "inputs": [
        {
          "name": "offerId",
          "type": "bytes32"
        },
        {
          "name": "redLitigationHash",
          "type": "bytes32"
        }
      ],
      "name": "setOfferRedLitigationHash",
      "outputs": [],
      "payable": false,
      "stateMutability": "nonpayable",
      "type": "function"
    },
    {
      "constant": false,
      "inputs": [
        {
          "name": "offerId",
          "type": "bytes32"
        },
        {
          "name": "greenLitigationHash",
          "type": "bytes32"
        }
      ],
      "name": "setOfferGreenLitigationHash",
      "outputs": [],
      "payable": false,
      "stateMutability": "nonpayable",
      "type": "function"
    },
    {
      "constant": false,
      "inputs": [
        {
          "name": "offerId",
          "type": "bytes32"
        },
        {
          "name": "blueLitigationHash",
          "type": "bytes32"
        }
      ],
      "name": "setOfferBlueLitigationHash",
      "outputs": [],
      "payable": false,
      "stateMutability": "nonpayable",
      "type": "function"
    },
    {
      "constant": false,
      "inputs": [
        {
          "name": "offerId",
          "type": "bytes32"
        },
        {
          "name": "startTime",
          "type": "uint256"
        }
      ],
      "name": "setOfferStartTime",
      "outputs": [],
      "payable": false,
      "stateMutability": "nonpayable",
      "type": "function"
    },
    {
      "constant": false,
      "inputs": [
        {
          "name": "offerId",
          "type": "bytes32"
        },
        {
          "name": "creator",
          "type": "address"
        },
        {
          "name": "dataSetId",
          "type": "bytes32"
        },
        {
          "name": "holdingTimeInMinutes",
          "type": "uint256"
        },
        {
          "name": "tokenAmountPerHolder",
          "type": "uint256"
        },
        {
          "name": "litigationIntervalInMinutes",
          "type": "uint256"
        },
        {
          "name": "task",
          "type": "bytes32"
        },
        {
          "name": "difficulty",
          "type": "uint256"
        }
      ],
      "name": "setOfferParameters",
      "outputs": [],
      "payable": false,
      "stateMutability": "nonpayable",
      "type": "function"
    },
    {
      "constant": false,
      "inputs": [
        {
          "name": "offerId",
          "type": "bytes32"
        },
        {
          "name": "redLitigationHash",
          "type": "bytes32"
        },
        {
          "name": "greenLitigationHash",
          "type": "bytes32"
        },
        {
          "name": "blueLitigationHash",
          "type": "bytes32"
        }
      ],
      "name": "setOfferLitigationHashes",
      "outputs": [],
      "payable": false,
      "stateMutability": "nonpayable",
      "type": "function"
    },
    {
      "constant": false,
      "inputs": [
        {
          "name": "offerId",
          "type": "bytes32"
        },
        {
          "name": "identities",
          "type": "address[]"
        },
        {
          "name": "litigationEncryptionTypes",
          "type": "uint8[]"
        }
      ],
      "name": "setHolders",
      "outputs": [],
      "payable": false,
      "stateMutability": "nonpayable",
      "type": "function"
    },
    {
      "constant": false,
      "inputs": [
        {
          "name": "offerId",
          "type": "bytes32"
        },
        {
          "name": "identity",
          "type": "address"
        },
        {
          "name": "stakedAmount",
          "type": "uint256"
        }
      ],
      "name": "setHolderStakedAmount",
      "outputs": [],
      "payable": false,
      "stateMutability": "nonpayable",
      "type": "function"
    },
    {
      "constant": false,
      "inputs": [
        {
          "name": "offerId",
          "type": "bytes32"
        },
        {
          "name": "identity",
          "type": "address"
        },
        {
          "name": "paidAmount",
          "type": "uint256"
        }
      ],
      "name": "setHolderPaidAmount",
      "outputs": [],
      "payable": false,
      "stateMutability": "nonpayable",
      "type": "function"
    },
    {
      "constant": false,
      "inputs": [
        {
          "name": "offerId",
          "type": "bytes32"
        },
        {
          "name": "identity",
          "type": "address"
        },
        {
          "name": "litigationEncryptionType",
          "type": "uint256"
        }
      ],
      "name": "setHolderLitigationEncryptionType",
      "outputs": [],
      "payable": false,
      "stateMutability": "nonpayable",
      "type": "function"
    },
    {
      "constant": false,
      "inputs": [
        {
          "name": "offerId",
          "type": "bytes32"
        },
        {
          "name": "identity",
          "type": "address"
        },
        {
          "name": "paymentTimestamp",
          "type": "uint256"
        }
      ],
      "name": "setHolderPaymentTimestamp",
      "outputs": [],
      "payable": false,
      "stateMutability": "nonpayable",
      "type": "function"
    },
    {
      "constant": true,
      "inputs": [
        {
          "name": "offerId",
          "type": "bytes32"
        },
        {
          "name": "identity",
          "type": "address"
        }
      ],
      "name": "getHolderStakedAmount",
      "outputs": [
        {
          "name": "stakedAmount",
          "type": "uint256"
        }
      ],
      "payable": false,
      "stateMutability": "view",
      "type": "function"
    },
    {
      "constant": true,
      "inputs": [
        {
          "name": "offerId",
          "type": "bytes32"
        },
        {
          "name": "identity",
          "type": "address"
        }
      ],
      "name": "getHolderPaidAmount",
      "outputs": [
        {
          "name": "paidAmount",
          "type": "uint256"
        }
      ],
      "payable": false,
      "stateMutability": "view",
      "type": "function"
    },
    {
      "constant": true,
      "inputs": [
        {
          "name": "offerId",
          "type": "bytes32"
        },
        {
          "name": "identity",
          "type": "address"
        }
      ],
      "name": "getHolderLitigationEncryptionType",
      "outputs": [
        {
          "name": "litigationEncryptionType",
          "type": "uint256"
        }
      ],
      "payable": false,
      "stateMutability": "view",
      "type": "function"
    },
    {
      "constant": true,
      "inputs": [
        {
          "name": "offerId",
          "type": "bytes32"
        },
        {
          "name": "identity",
          "type": "address"
        }
      ],
      "name": "getHolderPaymentTimestamp",
      "outputs": [
        {
          "name": "paymentTimestamp",
          "type": "uint256"
        }
      ],
      "payable": false,
      "stateMutability": "view",
      "type": "function"
    },
    {
      "constant": false,
      "inputs": [
        {
          "name": "newHubAddress",
          "type": "address"
        }
      ],
      "name": "setHubAddress",
      "outputs": [],
      "payable": false,
      "stateMutability": "nonpayable",
      "type": "function"
    }
  ],
  "bytecode": "0x608060405234801561001057600080fd5b5060405160208061441c83398101806040528101908080519060200190929190505050806000806101000a81548173ffffffffffffffffffffffffffffffffffffffff021916908373ffffffffffffffffffffffffffffffffffffffff16021790555050614399806100836000396000f300608060405260043610610204576000357c0100000000000000000000000000000000000000000000000000000000900463ffffffff16806305c6ff601461020957806309991ce6146102645780630d61a8e3146102a35780631535f574146102e257806317d79cd91461032757806319a60ed2146103de5780631aa063a71461042b5780631d6f0b36146104905780632181e89a14610525578063324310ee14610564578063365a86fc146105bf57806338d525f11461061657806339dbeb311461067b578063530bde3d146106ba57806367ebbdc61461071f5780636c833cf51461074a578063809a05a71461078f57806391a70e4f146107f45780639cdfa98d1461084f5780639e0bf37b1461088a578063a2657315146108c9578063aa1d1f2b1461093a578063ab9c46ff14610995578063b2ccba82146109c0578063b2e64acf14610a0d578063b65d8f7614610a48578063bafb8e3a14610ac2578063c2fb609614610afd578063c7eb452214610b42578063c8ce8d5414610b85578063d31b4fda14610bd6578063d38be5a014610c23578063d63fea5614610c7e578063dec4b4b814610cb9578063df85fbd014610d98578063e3d908a314610dd7578063e7b73e5b14610e12578063e845c66714610e3f578063ea1ef45014610e84578063ebaa743214610ed1578063eca7248014610f16578063f06f8da714610f63575b600080fd5b34801561021557600080fd5b506102626004803603810190808035600019169060200190929190803573ffffffffffffffffffffffffffffffffffffffff16906020019092919080359060200190929190505050610fb0565b005b34801561027057600080fd5b506102a1600480360381019080803560001916906020019092919080356000191690602001909291905050506111e2565b005b3480156102af57600080fd5b506102e06004803603810190808035600019169060200190929190803560001916906020019092919050505061139e565b005b3480156102ee57600080fd5b50610311600480360381019080803560001916906020019092919050505061155a565b6040518082815260200191505060405180910390f35b34801561033357600080fd5b506103dc60048036038101908080356000191690602001909291908035906020019082018035906020019080806020026020016040519081016040528093929190818152602001838360200280828437820191505050505050919291929080359060200190820180359060200190808060200260200160405190810160405280939291908181526020018383602002808284378201915050505050509192919290505050611582565b005b3480156103ea57600080fd5b5061040d6004803603810190808035600019169060200190929190505050611de6565b60405180826000191660001916815260200191505060405180910390f35b34801561043757600080fd5b5061047a6004803603810190808035600019169060200190929190803573ffffffffffffffffffffffffffffffffffffffff169060200190929190505050611e0e565b6040518082815260200191505060405180910390f35b34801561049c57600080fd5b506105236004803603810190808035600019169060200190929190803573ffffffffffffffffffffffffffffffffffffffff1690602001909291908035600019169060200190929190803590602001909291908035906020019092919080359060200190929190803560001916906020019092919080359060200190929190505050611eaf565b005b34801561053157600080fd5b50610562600480360381019080803560001916906020019092919080356000191690602001909291905050506121b1565b005b34801561057057600080fd5b506105bd6004803603810190808035600019169060200190929190803573ffffffffffffffffffffffffffffffffffffffff1690602001909291908035906020019092919050505061236d565b005b3480156105cb57600080fd5b506105d461259f565b604051808273ffffffffffffffffffffffffffffffffffffffff1673ffffffffffffffffffffffffffffffffffffffff16815260200191505060405180910390f35b34801561062257600080fd5b506106656004803603810190808035600019169060200190929190803573ffffffffffffffffffffffffffffffffffffffff1690602001909291905050506125c4565b6040518082815260200191505060405180910390f35b34801561068757600080fd5b506106b860048036038101908080356000191690602001909291908035600019169060200190929190505050612665565b005b3480156106c657600080fd5b506107096004803603810190808035600019169060200190929190803573ffffffffffffffffffffffffffffffffffffffff169060200190929190505050612821565b6040518082815260200191505060405180910390f35b34801561072b57600080fd5b506107346128c2565b6040518082815260200191505060405180910390f35b34801561075657600080fd5b5061077960048036038101908080356000191690602001909291905050506128c8565b6040518082815260200191505060405180910390f35b34801561079b57600080fd5b506107de6004803603810190808035600019169060200190929190803573ffffffffffffffffffffffffffffffffffffffff1690602001909291905050506128f0565b6040518082815260200191505060405180910390f35b34801561080057600080fd5b5061084d6004803603810190808035600019169060200190929190803573ffffffffffffffffffffffffffffffffffffffff16906020019092919080359060200190929190505050612956565b005b34801561085b57600080fd5b50610888600480360381019080803560001916906020019092919080359060200190929190505050612b4c565b005b34801561089657600080fd5b506108c760048036038101908080356000191690602001909291908035600019169060200190929190505050612d04565b005b3480156108d557600080fd5b506108f86004803603810190808035600019169060200190929190505050612ec0565b604051808273ffffffffffffffffffffffffffffffffffffffff1673ffffffffffffffffffffffffffffffffffffffff16815260200191505060405180910390f35b34801561094657600080fd5b506109936004803603810190808035600019169060200190929190803560001916906020019092919080356000191690602001909291908035600019169060200190929190505050612f08565b005b3480156109a157600080fd5b506109aa613114565b6040518082815260200191505060405180910390f35b3480156109cc57600080fd5b506109ef600480360381019080803560001916906020019092919050505061311e565b60405180826000191660001916815260200191505060405180910390f35b348015610a1957600080fd5b50610a46600480360381019080803560001916906020019092919080359060200190929190505050613136565b005b348015610a5457600080fd5b50610a976004803603810190808035600019169060200190929190803573ffffffffffffffffffffffffffffffffffffffff1690602001909291905050506132ee565b6040518085815260200184815260200183815260200182815260200194505050505060405180910390f35b348015610ace57600080fd5b50610afb60048036038101908080356000191690602001909291908035906020019092919050505061332b565b005b348015610b0957600080fd5b50610b2c60048036038101908080356000191690602001909291905050506134e3565b6040518082815260200191505060405180910390f35b348015610b4e57600080fd5b50610b83600480360381019080803573ffffffffffffffffffffffffffffffffffffffff16906020019092919050505061350b565b005b348015610b9157600080fd5b50610bd46004803603810190808035600019169060200190929190803573ffffffffffffffffffffffffffffffffffffffff16906020019092919050505061371b565b005b348015610be257600080fd5b50610c05600480360381019080803560001916906020019092919050505061390d565b60405180826000191660001916815260200191505060405180910390f35b348015610c2f57600080fd5b50610c7c6004803603810190808035600019169060200190929190803573ffffffffffffffffffffffffffffffffffffffff16906020019092919080359060200190929190505050613935565b005b348015610c8a57600080fd5b50610cb7600480360381019080803560001916906020019092919080359060200190929190505050613b67565b005b348015610cc557600080fd5b50610ce86004803603810190808035600019169060200190929190505050613d1f565b604051808c73ffffffffffffffffffffffffffffffffffffffff1673ffffffffffffffffffffffffffffffffffffffff1681526020018b600019166000191681526020018a815260200189815260200188815260200187600019166000191681526020018681526020018560001916600019168152602001846000191660001916815260200183600019166000191681526020018281526020019b50505050505050505050505060405180910390f35b348015610da457600080fd5b50610dd560048036038101908080356000191690602001909291908035600019169060200190929190505050613d99565b005b348015610de357600080fd5b50610e10600480360381019080803560001916906020019092919080359060200190929190505050613f52565b005b348015610e1e57600080fd5b50610e3d6004803603810190808035906020019092919050505061410a565b005b348015610e4b57600080fd5b50610e6e60048036038101908080356000191690602001909291905050506142a5565b6040518082815260200191505060405180910390f35b348015610e9057600080fd5b50610eb360048036038101908080356000191690602001909291905050506142cd565b60405180826000191660001916815260200191505060405180910390f35b348015610edd57600080fd5b50610f0060048036038101908080356000191690602001909291905050506142f5565b6040518082815260200191505060405180910390f35b348015610f2257600080fd5b50610f45600480360381019080803560001916906020019092919050505061431d565b60405180826000191660001916815260200191505060405180910390f35b348015610f6f57600080fd5b50610f926004803603810190808035600019169060200190929190505050614345565b60405180826000191660001916815260200191505060405180910390f35b6000809054906101000a900473ffffffffffffffffffffffffffffffffffffffff1673ffffffffffffffffffffffffffffffffffffffff166316279055336040518263ffffffff167c0100000000000000000000000000000000000000000000000000000000028152600401808273ffffffffffffffffffffffffffffffffffffffff1673ffffffffffffffffffffffffffffffffffffffff168152602001915050602060405180830381600087803b15801561106c57600080fd5b505af1158015611080573d6000803e3d6000fd5b505050506040513d602081101561109657600080fd5b81019080805190602001909291905050501515611141576040517f08c379a00000000000000000000000000000000000000000000000000000000081526004018080602001828103825260298152602001807f46756e6374696f6e2063616e206f6e6c792062652063616c6c6564206279206381526020017f6f6e74726163747321000000000000000000000000000000000000000000000081525060400191505060405180910390fd5b600073ffffffffffffffffffffffffffffffffffffffff168273ffffffffffffffffffffffffffffffffffffffff161415151561117d57600080fd5b8060046000856000191660001916815260200190815260200160002060008473ffffffffffffffffffffffffffffffffffffffff1673ffffffffffffffffffffffffffffffffffffffff16815260200190815260200160002060010181905550505050565b6000809054906101000a900473ffffffffffffffffffffffffffffffffffffffff1673ffffffffffffffffffffffffffffffffffffffff166316279055336040518263ffffffff167c0100000000000000000000000000000000000000000000000000000000028152600401808273ffffffffffffffffffffffffffffffffffffffff1673ffffffffffffffffffffffffffffffffffffffff168152602001915050602060405180830381600087803b15801561129e57600080fd5b505af11580156112b2573d6000803e3d6000fd5b505050506040513d60208110156112c857600080fd5b81019080805190602001909291905050501515611373576040517f08c379a00000000000000000000000000000000000000000000000000000000081526004018080602001828103825260298152602001807f46756e6374696f6e2063616e206f6e6c792062652063616c6c6564206279206381526020017f6f6e74726163747321000000000000000000000000000000000000000000000081525060400191505060405180910390fd5b8060036000846000191660001916815260200190815260200160002060050181600019169055505050565b6000809054906101000a900473ffffffffffffffffffffffffffffffffffffffff1673ffffffffffffffffffffffffffffffffffffffff166316279055336040518263ffffffff167c0100000000000000000000000000000000000000000000000000000000028152600401808273ffffffffffffffffffffffffffffffffffffffff1673ffffffffffffffffffffffffffffffffffffffff168152602001915050602060405180830381600087803b15801561145a57600080fd5b505af115801561146e573d6000803e3d6000fd5b505050506040513d602081101561148457600080fd5b8101908080519060200190929190505050151561152f576040517f08c379a00000000000000000000000000000000000000000000000000000000081526004018080602001828103825260298152602001807f46756e6374696f6e2063616e206f6e6c792062652063616c6c6564206279206381526020017f6f6e74726163747321000000000000000000000000000000000000000000000081525060400191505060405180910390fd5b8060036000846000191660001916815260200190815260200160002060090181600019169055505050565b6000600360008360001916600019168152602001908152602001600020600601549050919050565b6000809054906101000a900473ffffffffffffffffffffffffffffffffffffffff1673ffffffffffffffffffffffffffffffffffffffff166316279055336040518263ffffffff167c0100000000000000000000000000000000000000000000000000000000028152600401808273ffffffffffffffffffffffffffffffffffffffff1673ffffffffffffffffffffffffffffffffffffffff168152602001915050602060405180830381600087803b15801561163e57600080fd5b505af1158015611652573d6000803e3d6000fd5b505050506040513d602081101561166857600080fd5b81019080805190602001909291905050501515611713576040517f08c379a00000000000000000000000000000000000000000000000000000000081526004018080602001828103825260298152602001807f46756e6374696f6e2063616e206f6e6c792062652063616c6c6564206279206381526020017f6f6e74726163747321000000000000000000000000000000000000000000000081525060400191505060405180910390fd5b42600360008560001916600019168152602001908152602001600020600a018190555060036000846000191660001916815260200190815260200160002060030154600460008560001916600019168152602001908152602001600020600084600081518110151561178157fe5b9060200190602002015173ffffffffffffffffffffffffffffffffffffffff1673ffffffffffffffffffffffffffffffffffffffff168152602001908152602001600020600001819055508060008151811015156117db57fe5b9060200190602002015160ff16600460008560001916600019168152602001908152602001600020600084600081518110151561181457fe5b9060200190602002015173ffffffffffffffffffffffffffffffffffffffff1673ffffffffffffffffffffffffffffffffffffffff168152602001908152602001600020600201541415156118f75780600081518110151561187257fe5b9060200190602002015160ff1660046000856000191660001916815260200190815260200160002060008460008151811015156118ab57fe5b9060200190602002015173ffffffffffffffffffffffffffffffffffffffff1673ffffffffffffffffffffffffffffffffffffffff168152602001908152602001600020600201819055505b60036000846000191660001916815260200190815260200160002060030154600460008560001916600019168152602001908152602001600020600084600181518110151561194257fe5b9060200190602002015173ffffffffffffffffffffffffffffffffffffffff1673ffffffffffffffffffffffffffffffffffffffff1681526020019081526020016000206000018190555080600181518110151561199c57fe5b9060200190602002015160ff1660046000856000191660001916815260200190815260200160002060008460018151811015156119d557fe5b9060200190602002015173ffffffffffffffffffffffffffffffffffffffff1673ffffffffffffffffffffffffffffffffffffffff16815260200190815260200160002060020154141515611ab857806001815181101515611a3357fe5b9060200190602002015160ff166004600085600019166000191681526020019081526020016000206000846001815181101515611a6c57fe5b9060200190602002015173ffffffffffffffffffffffffffffffffffffffff1673ffffffffffffffffffffffffffffffffffffffff168152602001908152602001600020600201819055505b600360008460001916600019168152602001908152602001600020600301546004600085600019166000191681526020019081526020016000206000846002815181101515611b0357fe5b9060200190602002015173ffffffffffffffffffffffffffffffffffffffff1673ffffffffffffffffffffffffffffffffffffffff16815260200190815260200160002060000181905550806002815181101515611b5d57fe5b9060200190602002015160ff166004600085600019166000191681526020019081526020016000206000846002815181101515611b9657fe5b9060200190602002015173ffffffffffffffffffffffffffffffffffffffff1673ffffffffffffffffffffffffffffffffffffffff16815260200190815260200160002060020154141515611c7957806002815181101515611bf457fe5b9060200190602002015160ff166004600085600019166000191681526020019081526020016000206000846002815181101515611c2d57fe5b9060200190602002015173ffffffffffffffffffffffffffffffffffffffff1673ffffffffffffffffffffffffffffffffffffffff168152602001908152602001600020600201819055505b426004600085600019166000191681526020019081526020016000206000846000815181101515611ca657fe5b9060200190602002015173ffffffffffffffffffffffffffffffffffffffff1673ffffffffffffffffffffffffffffffffffffffff16815260200190815260200160002060030181905550426004600085600019166000191681526020019081526020016000206000846001815181101515611d1e57fe5b9060200190602002015173ffffffffffffffffffffffffffffffffffffffff1673ffffffffffffffffffffffffffffffffffffffff16815260200190815260200160002060030181905550426004600085600019166000191681526020019081526020016000206000846002815181101515611d9657fe5b9060200190602002015173ffffffffffffffffffffffffffffffffffffffff1673ffffffffffffffffffffffffffffffffffffffff16815260200190815260200160002060030181905550505050565b6000600360008360001916600019168152602001908152602001600020600701549050919050565b60008073ffffffffffffffffffffffffffffffffffffffff168273ffffffffffffffffffffffffffffffffffffffff1614151515611e4b57600080fd5b60046000846000191660001916815260200190815260200160002060008373ffffffffffffffffffffffffffffffffffffffff1673ffffffffffffffffffffffffffffffffffffffff16815260200190815260200160002060020154905092915050565b6000809054906101000a900473ffffffffffffffffffffffffffffffffffffffff1673ffffffffffffffffffffffffffffffffffffffff166316279055336040518263ffffffff167c0100000000000000000000000000000000000000000000000000000000028152600401808273ffffffffffffffffffffffffffffffffffffffff1673ffffffffffffffffffffffffffffffffffffffff168152602001915050602060405180830381600087803b158015611f6b57600080fd5b505af1158015611f7f573d6000803e3d6000fd5b505050506040513d6020811015611f9557600080fd5b81019080805190602001909291905050501515612040576040517f08c379a00000000000000000000000000000000000000000000000000000000081526004018080602001828103825260298152602001807f46756e6374696f6e2063616e206f6e6c792062652063616c6c6564206279206381526020017f6f6e74726163747321000000000000000000000000000000000000000000000081525060400191505060405180910390fd5b86600360008a6000191660001916815260200190815260200160002060000160006101000a81548173ffffffffffffffffffffffffffffffffffffffff021916908373ffffffffffffffffffffffffffffffffffffffff16021790555085600360008a60001916600019168152602001908152602001600020600101816000191690555084600360008a600019166000191681526020019081526020016000206002018190555083600360008a600019166000191681526020019081526020016000206003018190555082600360008a60001916600019168152602001908152602001600020600401819055508160001916600360008a6000191660001916815260200190815260200160002060050154600019161415156121845781600360008a6000191660001916815260200190815260200160002060050181600019169055505b80600360008a60001916600019168152602001908152602001600020600601819055505050505050505050565b6000809054906101000a900473ffffffffffffffffffffffffffffffffffffffff1673ffffffffffffffffffffffffffffffffffffffff166316279055336040518263ffffffff167c0100000000000000000000000000000000000000000000000000000000028152600401808273ffffffffffffffffffffffffffffffffffffffff1673ffffffffffffffffffffffffffffffffffffffff168152602001915050602060405180830381600087803b15801561226d57600080fd5b505af1158015612281573d6000803e3d6000fd5b505050506040513d602081101561229757600080fd5b81019080805190602001909291905050501515612342576040517f08c379a00000000000000000000000000000000000000000000000000000000081526004018080602001828103825260298152602001807f46756e6374696f6e2063616e206f6e6c792062652063616c6c6564206279206381526020017f6f6e74726163747321000000000000000000000000000000000000000000000081525060400191505060405180910390fd5b8060036000846000191660001916815260200190815260200160002060070181600019169055505050565b6000809054906101000a900473ffffffffffffffffffffffffffffffffffffffff1673ffffffffffffffffffffffffffffffffffffffff166316279055336040518263ffffffff167c0100000000000000000000000000000000000000000000000000000000028152600401808273ffffffffffffffffffffffffffffffffffffffff1673ffffffffffffffffffffffffffffffffffffffff168152602001915050602060405180830381600087803b15801561242957600080fd5b505af115801561243d573d6000803e3d6000fd5b505050506040513d602081101561245357600080fd5b810190808051906020019092919050505015156124fe576040517f08c379a00000000000000000000000000000000000000000000000000000000081526004018080602001828103825260298152602001807f46756e6374696f6e2063616e206f6e6c792062652063616c6c6564206279206381526020017f6f6e74726163747321000000000000000000000000000000000000000000000081525060400191505060405180910390fd5b600073ffffffffffffffffffffffffffffffffffffffff168273ffffffffffffffffffffffffffffffffffffffff161415151561253a57600080fd5b8060046000856000191660001916815260200190815260200160002060008473ffffffffffffffffffffffffffffffffffffffff1673ffffffffffffffffffffffffffffffffffffffff16815260200190815260200160002060000181905550505050565b6000809054906101000a900473ffffffffffffffffffffffffffffffffffffffff1681565b60008073ffffffffffffffffffffffffffffffffffffffff168273ffffffffffffffffffffffffffffffffffffffff161415151561260157600080fd5b60046000846000191660001916815260200190815260200160002060008373ffffffffffffffffffffffffffffffffffffffff1673ffffffffffffffffffffffffffffffffffffffff16815260200190815260200160002060000154905092915050565b6000809054906101000a900473ffffffffffffffffffffffffffffffffffffffff1673ffffffffffffffffffffffffffffffffffffffff166316279055336040518263ffffffff167c0100000000000000000000000000000000000000000000000000000000028152600401808273ffffffffffffffffffffffffffffffffffffffff1673ffffffffffffffffffffffffffffffffffffffff168152602001915050602060405180830381600087803b15801561272157600080fd5b505af1158015612735573d6000803e3d6000fd5b505050506040513d602081101561274b57600080fd5b810190808051906020019092919050505015156127f6576040517f08c379a00000000000000000000000000000000000000000000000000000000081526004018080602001828103825260298152602001807f46756e6374696f6e2063616e206f6e6c792062652063616c6c6564206279206381526020017f6f6e74726163747321000000000000000000000000000000000000000000000081525060400191505060405180910390fd5b8060036000846000191660001916815260200190815260200160002060080181600019169055505050565b60008073ffffffffffffffffffffffffffffffffffffffff168273ffffffffffffffffffffffffffffffffffffffff161415151561285e57600080fd5b60046000846000191660001916815260200190815260200160002060008373ffffffffffffffffffffffffffffffffffffffff1673ffffffffffffffffffffffffffffffffffffffff16815260200190815260200160002060010154905092915050565b60015481565b6000600360008360001916600019168152602001908152602001600020600301549050919050565b600060046000846000191660001916815260200190815260200160002060008373ffffffffffffffffffffffffffffffffffffffff1673ffffffffffffffffffffffffffffffffffffffff16815260200190815260200160002060030154905092915050565b6000809054906101000a900473ffffffffffffffffffffffffffffffffffffffff1673ffffffffffffffffffffffffffffffffffffffff166316279055336040518263ffffffff167c0100000000000000000000000000000000000000000000000000000000028152600401808273ffffffffffffffffffffffffffffffffffffffff1673ffffffffffffffffffffffffffffffffffffffff168152602001915050602060405180830381600087803b158015612a1257600080fd5b505af1158015612a26573d6000803e3d6000fd5b505050506040513d6020811015612a3c57600080fd5b81019080805190602001909291905050501515612ae7576040517f08c379a00000000000000000000000000000000000000000000000000000000081526004018080602001828103825260298152602001807f46756e6374696f6e2063616e206f6e6c792062652063616c6c6564206279206381526020017f6f6e74726163747321000000000000000000000000000000000000000000000081525060400191505060405180910390fd5b8060046000856000191660001916815260200190815260200160002060008473ffffffffffffffffffffffffffffffffffffffff1673ffffffffffffffffffffffffffffffffffffffff16815260200190815260200160002060030181905550505050565b6000809054906101000a900473ffffffffffffffffffffffffffffffffffffffff1673ffffffffffffffffffffffffffffffffffffffff166316279055336040518263ffffffff167c0100000000000000000000000000000000000000000000000000000000028152600401808273ffffffffffffffffffffffffffffffffffffffff1673ffffffffffffffffffffffffffffffffffffffff168152602001915050602060405180830381600087803b158015612c0857600080fd5b505af1158015612c1c573d6000803e3d6000fd5b505050506040513d6020811015612c3257600080fd5b81019080805190602001909291905050501515612cdd576040517f08c379a00000000000000000000000000000000000000000000000000000000081526004018080602001828103825260298152602001807f46756e6374696f6e2063616e206f6e6c792062652063616c6c6564206279206381526020017f6f6e74726163747321000000000000000000000000000000000000000000000081525060400191505060405180910390fd5b80600360008460001916600019168152602001908152602001600020600201819055505050565b6000809054906101000a900473ffffffffffffffffffffffffffffffffffffffff1673ffffffffffffffffffffffffffffffffffffffff166316279055336040518263ffffffff167c0100000000000000000000000000000000000000000000000000000000028152600401808273ffffffffffffffffffffffffffffffffffffffff1673ffffffffffffffffffffffffffffffffffffffff168152602001915050602060405180830381600087803b158015612dc057600080fd5b505af1158015612dd4573d6000803e3d6000fd5b505050506040513d6020811015612dea57600080fd5b81019080805190602001909291905050501515612e95576040517f08c379a00000000000000000000000000000000000000000000000000000000081526004018080602001828103825260298152602001807f46756e6374696f6e2063616e206f6e6c792062652063616c6c6564206279206381526020017f6f6e74726163747321000000000000000000000000000000000000000000000081525060400191505060405180910390fd5b8060036000846000191660001916815260200190815260200160002060010181600019169055505050565b600060036000836000191660001916815260200190815260200160002060000160009054906101000a900473ffffffffffffffffffffffffffffffffffffffff169050919050565b6000809054906101000a900473ffffffffffffffffffffffffffffffffffffffff1673ffffffffffffffffffffffffffffffffffffffff166316279055336040518263ffffffff167c0100000000000000000000000000000000000000000000000000000000028152600401808273ffffffffffffffffffffffffffffffffffffffff1673ffffffffffffffffffffffffffffffffffffffff168152602001915050602060405180830381600087803b158015612fc457600080fd5b505af1158015612fd8573d6000803e3d6000fd5b505050506040513d6020811015612fee57600080fd5b81019080805190602001909291905050501515613099576040517f08c379a00000000000000000000000000000000000000000000000000000000081526004018080602001828103825260298152602001807f46756e6374696f6e2063616e206f6e6c792062652063616c6c6564206279206381526020017f6f6e74726163747321000000000000000000000000000000000000000000000081525060400191505060405180910390fd5b82600360008660001916600019168152602001908152602001600020600701816000191690555081600360008660001916600019168152602001908152602001600020600801816000191690555080600360008660001916600019168152602001908152602001600020600901816000191690555050505050565b6000600154905090565b60026020528060005260406000206000915090505481565b6000809054906101000a900473ffffffffffffffffffffffffffffffffffffffff1673ffffffffffffffffffffffffffffffffffffffff166316279055336040518263ffffffff167c0100000000000000000000000000000000000000000000000000000000028152600401808273ffffffffffffffffffffffffffffffffffffffff1673ffffffffffffffffffffffffffffffffffffffff168152602001915050602060405180830381600087803b1580156131f257600080fd5b505af1158015613206573d6000803e3d6000fd5b505050506040513d602081101561321c57600080fd5b810190808051906020019092919050505015156132c7576040517f08c379a00000000000000000000000000000000000000000000000000000000081526004018080602001828103825260298152602001807f46756e6374696f6e2063616e206f6e6c792062652063616c6c6564206279206381526020017f6f6e74726163747321000000000000000000000000000000000000000000000081525060400191505060405180910390fd5b80600360008460001916600019168152602001908152602001600020600301819055505050565b6004602052816000526040600020602052806000526040600020600091509150508060000154908060010154908060020154908060030154905084565b6000809054906101000a900473ffffffffffffffffffffffffffffffffffffffff1673ffffffffffffffffffffffffffffffffffffffff166316279055336040518263ffffffff167c0100000000000000000000000000000000000000000000000000000000028152600401808273ffffffffffffffffffffffffffffffffffffffff1673ffffffffffffffffffffffffffffffffffffffff168152602001915050602060405180830381600087803b1580156133e757600080fd5b505af11580156133fb573d6000803e3d6000fd5b505050506040513d602081101561341157600080fd5b810190808051906020019092919050505015156134bc576040517f08c379a00000000000000000000000000000000000000000000000000000000081526004018080602001828103825260298152602001807f46756e6374696f6e2063616e206f6e6c792062652063616c6c6564206279206381526020017f6f6e74726163747321000000000000000000000000000000000000000000000081525060400191505060405180910390fd5b80600360008460001916600019168152602001908152602001600020600401819055505050565b6000600360008360001916600019168152602001908152602001600020600201549050919050565b6000809054906101000a900473ffffffffffffffffffffffffffffffffffffffff1673ffffffffffffffffffffffffffffffffffffffff166316279055336040518263ffffffff167c0100000000000000000000000000000000000000000000000000000000028152600401808273ffffffffffffffffffffffffffffffffffffffff1673ffffffffffffffffffffffffffffffffffffffff168152602001915050602060405180830381600087803b1580156135c757600080fd5b505af11580156135db573d6000803e3d6000fd5b505050506040513d60208110156135f157600080fd5b8101908080519060200190929190505050151561369c576040517f08c379a00000000000000000000000000000000000000000000000000000000081526004018080602001828103825260298152602001807f46756e6374696f6e2063616e206f6e6c792062652063616c6c6564206279206381526020017f6f6e74726163747321000000000000000000000000000000000000000000000081525060400191505060405180910390fd5b600073ffffffffffffffffffffffffffffffffffffffff168173ffffffffffffffffffffffffffffffffffffffff16141515156136d857600080fd5b806000806101000a81548173ffffffffffffffffffffffffffffffffffffffff021916908373ffffffffffffffffffffffffffffffffffffffff16021790555050565b6000809054906101000a900473ffffffffffffffffffffffffffffffffffffffff1673ffffffffffffffffffffffffffffffffffffffff166316279055336040518263ffffffff167c0100000000000000000000000000000000000000000000000000000000028152600401808273ffffffffffffffffffffffffffffffffffffffff1673ffffffffffffffffffffffffffffffffffffffff168152602001915050602060405180830381600087803b1580156137d757600080fd5b505af11580156137eb573d6000803e3d6000fd5b505050506040513d602081101561380157600080fd5b810190808051906020019092919050505015156138ac576040517f08c379a00000000000000000000000000000000000000000000000000000000081526004018080602001828103825260298152602001807f46756e6374696f6e2063616e206f6e6c792062652063616c6c6564206279206381526020017f6f6e74726163747321000000000000000000000000000000000000000000000081525060400191505060405180910390fd5b8060036000846000191660001916815260200190815260200160002060000160006101000a81548173ffffffffffffffffffffffffffffffffffffffff021916908373ffffffffffffffffffffffffffffffffffffffff1602179055505050565b6000600360008360001916600019168152602001908152602001600020600101549050919050565b6000809054906101000a900473ffffffffffffffffffffffffffffffffffffffff1673ffffffffffffffffffffffffffffffffffffffff166316279055336040518263ffffffff167c0100000000000000000000000000000000000000000000000000000000028152600401808273ffffffffffffffffffffffffffffffffffffffff1673ffffffffffffffffffffffffffffffffffffffff168152602001915050602060405180830381600087803b1580156139f157600080fd5b505af1158015613a05573d6000803e3d6000fd5b505050506040513d6020811015613a1b57600080fd5b81019080805190602001909291905050501515613ac6576040517f08c379a00000000000000000000000000000000000000000000000000000000081526004018080602001828103825260298152602001807f46756e6374696f6e2063616e206f6e6c792062652063616c6c6564206279206381526020017f6f6e74726163747321000000000000000000000000000000000000000000000081525060400191505060405180910390fd5b600073ffffffffffffffffffffffffffffffffffffffff168273ffffffffffffffffffffffffffffffffffffffff1614151515613b0257600080fd5b8060046000856000191660001916815260200190815260200160002060008473ffffffffffffffffffffffffffffffffffffffff1673ffffffffffffffffffffffffffffffffffffffff16815260200190815260200160002060020181905550505050565b6000809054906101000a900473ffffffffffffffffffffffffffffffffffffffff1673ffffffffffffffffffffffffffffffffffffffff166316279055336040518263ffffffff167c0100000000000000000000000000000000000000000000000000000000028152600401808273ffffffffffffffffffffffffffffffffffffffff1673ffffffffffffffffffffffffffffffffffffffff168152602001915050602060405180830381600087803b158015613c2357600080fd5b505af1158015613c37573d6000803e3d6000fd5b505050506040513d6020811015613c4d57600080fd5b81019080805190602001909291905050501515613cf8576040517f08c379a00000000000000000000000000000000000000000000000000000000081526004018080602001828103825260298152602001807f46756e6374696f6e2063616e206f6e6c792062652063616c6c6564206279206381526020017f6f6e74726163747321000000000000000000000000000000000000000000000081525060400191505060405180910390fd5b80600360008460001916600019168152602001908152602001600020600601819055505050565b60036020528060005260406000206000915090508060000160009054906101000a900473ffffffffffffffffffffffffffffffffffffffff169080600101549080600201549080600301549080600401549080600501549080600601549080600701549080600801549080600901549080600a015490508b565b6000809054906101000a900473ffffffffffffffffffffffffffffffffffffffff1673ffffffffffffffffffffffffffffffffffffffff166316279055336040518263ffffffff167c0100000000000000000000000000000000000000000000000000000000028152600401808273ffffffffffffffffffffffffffffffffffffffff1673ffffffffffffffffffffffffffffffffffffffff168152602001915050602060405180830381600087803b158015613e5557600080fd5b505af1158015613e69573d6000803e3d6000fd5b505050506040513d6020811015613e7f57600080fd5b81019080805190602001909291905050501515613f2a576040517f08c379a00000000000000000000000000000000000000000000000000000000081526004018080602001828103825260298152602001807f46756e6374696f6e2063616e206f6e6c792062652063616c6c6564206279206381526020017f6f6e74726163747321000000000000000000000000000000000000000000000081525060400191505060405180910390fd5b8060026000846000191660001916815260200190815260200160002081600019169055505050565b6000809054906101000a900473ffffffffffffffffffffffffffffffffffffffff1673ffffffffffffffffffffffffffffffffffffffff166316279055336040518263ffffffff167c0100000000000000000000000000000000000000000000000000000000028152600401808273ffffffffffffffffffffffffffffffffffffffff1673ffffffffffffffffffffffffffffffffffffffff168152602001915050602060405180830381600087803b15801561400e57600080fd5b505af1158015614022573d6000803e3d6000fd5b505050506040513d602081101561403857600080fd5b810190808051906020019092919050505015156140e3576040517f08c379a00000000000000000000000000000000000000000000000000000000081526004018080602001828103825260298152602001807f46756e6374696f6e2063616e206f6e6c792062652063616c6c6564206279206381526020017f6f6e74726163747321000000000000000000000000000000000000000000000081525060400191505060405180910390fd5b80600360008460001916600019168152602001908152602001600020600a01819055505050565b6000809054906101000a900473ffffffffffffffffffffffffffffffffffffffff1673ffffffffffffffffffffffffffffffffffffffff166316279055336040518263ffffffff167c0100000000000000000000000000000000000000000000000000000000028152600401808273ffffffffffffffffffffffffffffffffffffffff1673ffffffffffffffffffffffffffffffffffffffff168152602001915050602060405180830381600087803b1580156141c657600080fd5b505af11580156141da573d6000803e3d6000fd5b505050506040513d60208110156141f057600080fd5b8101908080519060200190929190505050151561429b576040517f08c379a00000000000000000000000000000000000000000000000000000000081526004018080602001828103825260298152602001807f46756e6374696f6e2063616e206f6e6c792062652063616c6c6564206279206381526020017f6f6e74726163747321000000000000000000000000000000000000000000000081525060400191505060405180910390fd5b8060018190555050565b6000600360008360001916600019168152602001908152602001600020600a01549050919050565b6000600360008360001916600019168152602001908152602001600020600501549050919050565b6000600360008360001916600019168152602001908152602001600020600401549050919050565b6000600360008360001916600019168152602001908152602001600020600901549050919050565b60006003600083600019166000191681526020019081526020016000206008015490509190505600a165627a7a723058203d1c879d28f2f54dc7d0d17c56c9d6ba4efb4bac60b53ec9c3b8debd2f0c512a0029",
  "source": "pragma solidity ^0.4.24;\n\nimport './Hub.sol';\n\ncontract HoldingStorage {\n    Hub public hub;\n\n    constructor(address hubAddress) public{\n        hub = Hub(hubAddress);\n    }\n\n    modifier onlyContracts() {\n        require(hub.isContract(msg.sender),\n            \"Function can only be called by contracts!\");\n        _;\n    }\n\n    uint256 public difficultyOverride;\n    function getDifficultyOverride()\n    public view returns (uint256) {\n        return difficultyOverride;\n    }\n    function setDifficultyOverride(uint256 new_difficulty)\n    public onlyContracts {\n        difficultyOverride = new_difficulty;\n    }\n\n    mapping(bytes32 => bytes32) public fingerprint;\n\n    function setFingerprint(bytes32 dataSetId, bytes32 dataRootHash)\n    public onlyContracts {\n        fingerprint[dataSetId] = dataRootHash;\n    }\n\n    struct OfferDefinition {\n        address creator;\n        bytes32 dataSetId;\n\n        uint256 holdingTimeInMinutes;\n        uint256 tokenAmountPerHolder;\n        uint256 litigationIntervalInMinutes;\n\n        bytes32 task;\n        uint256 difficulty;\n\n        bytes32 redLitigationHash;\n        bytes32 greenLitigationHash;\n        bytes32 blueLitigationHash;\n\n        uint256 startTime;\n    }\n    mapping(bytes32 => OfferDefinition) public offer; // offer[offerId];\n\n    function getOfferCreator (bytes32 offerId)\n    public view returns(address creator){\n        return offer[offerId].creator;\n    }\n    function getOfferDataSetId (bytes32 offerId)\n    public view returns(bytes32 dataSetId){\n        return offer[offerId].dataSetId;\n    }\n    function getOfferHoldingTimeInMinutes (bytes32 offerId)\n    public view returns(uint256 holdingTimeInMinutes){\n        return offer[offerId].holdingTimeInMinutes;\n    }\n    function getOfferTokenAmountPerHolder (bytes32 offerId)\n    public view returns(uint256 tokenAmountPerHolder){\n        return offer[offerId].tokenAmountPerHolder;\n    }\n    function getOfferLitigationIntervalInMinutes (bytes32 offerId)\n    public view returns(uint256 litigationIntervalInMinutes){\n        return offer[offerId].litigationIntervalInMinutes;\n    }\n    function getOfferTask (bytes32 offerId)\n    public view returns(bytes32 task){\n        return offer[offerId].task;\n    }\n    function getOfferDifficulty (bytes32 offerId)\n    public view returns(uint256 difficulty){\n        return offer[offerId].difficulty;\n    }\n    function getOfferRedLitigationHash (bytes32 offerId)\n    public view returns(bytes32 redLitigationHash){\n        return offer[offerId].redLitigationHash;\n    }\n    function getOfferGreenLitigationHash (bytes32 offerId)\n    public view returns(bytes32 greenLitigationHash){\n        return offer[offerId].greenLitigationHash;\n    }\n    function getOfferBlueLitigationHash (bytes32 offerId)\n    public view returns(bytes32 blueLitigationHash){\n        return offer[offerId].blueLitigationHash;\n    }\n    function getOfferStartTime (bytes32 offerId)\n    public view returns(uint256 startTime){\n        return offer[offerId].startTime;\n    }\n\n    function setOfferCreator (bytes32 offerId, address creator)\n    public onlyContracts {\n        offer[offerId].creator = creator;\n    }\n    function setOfferDataSetId (bytes32 offerId, bytes32 dataSetId)\n    public onlyContracts {\n        offer[offerId].dataSetId = dataSetId;\n    }\n    function setOfferHoldingTimeInMinutes (bytes32 offerId, uint256 holdingTimeInMinutes)\n    public onlyContracts {\n        offer[offerId].holdingTimeInMinutes = holdingTimeInMinutes;\n    }\n    function setOfferTokenAmountPerHolder (bytes32 offerId, uint256 tokenAmountPerHolder)\n    public onlyContracts {\n        offer[offerId].tokenAmountPerHolder = tokenAmountPerHolder;\n    }\n    function setOfferLitigationIntervalInMinutes (bytes32 offerId, uint256 litigationIntervalInMinutes)\n    public onlyContracts {\n        offer[offerId].litigationIntervalInMinutes = litigationIntervalInMinutes;\n    }\n    function setOfferTask (bytes32 offerId, bytes32 task)\n    public onlyContracts {\n        offer[offerId].task = task;\n    }\n    function setOfferDifficulty (bytes32 offerId, uint256 difficulty)\n    public onlyContracts {\n        offer[offerId].difficulty = difficulty;\n    }\n    function setOfferRedLitigationHash (bytes32 offerId, bytes32 redLitigationHash)\n    public onlyContracts {\n        offer[offerId].redLitigationHash = redLitigationHash;\n    }\n    function setOfferGreenLitigationHash (bytes32 offerId, bytes32 greenLitigationHash)\n    public onlyContracts {\n        offer[offerId].greenLitigationHash = greenLitigationHash;\n    }\n    function setOfferBlueLitigationHash (bytes32 offerId, bytes32 blueLitigationHash)\n    public onlyContracts {\n        offer[offerId].blueLitigationHash = blueLitigationHash;\n    }\n    function setOfferStartTime (bytes32 offerId, uint256 startTime)\n    public onlyContracts {\n        offer[offerId].startTime = startTime;\n    }\n    function setOfferParameters (\n        bytes32 offerId,\n        address creator,\n        bytes32 dataSetId,\n        uint256 holdingTimeInMinutes,\n        uint256 tokenAmountPerHolder,\n        uint256 litigationIntervalInMinutes,\n        bytes32 task,\n        uint256 difficulty)\n    public onlyContracts {\n        offer[offerId].creator = creator;\n        offer[offerId].dataSetId = dataSetId;\n        offer[offerId].holdingTimeInMinutes = holdingTimeInMinutes;\n        offer[offerId].tokenAmountPerHolder = tokenAmountPerHolder;\n        offer[offerId].litigationIntervalInMinutes = litigationIntervalInMinutes;\n        if(offer[offerId].task != task) offer[offerId].task = task;\n        offer[offerId].difficulty = difficulty;\n    }\n    function setOfferLitigationHashes (\n        bytes32 offerId,\n        bytes32 redLitigationHash,\n        bytes32 greenLitigationHash,\n        bytes32 blueLitigationHash)\n    public onlyContracts {\n        offer[offerId].redLitigationHash = redLitigationHash;\n        offer[offerId].greenLitigationHash = greenLitigationHash;\n        offer[offerId].blueLitigationHash = blueLitigationHash;\n    }\n\n\n    struct HolderDefinition {\n        uint256 stakedAmount;\n        uint256 paidAmount;\n        uint256 litigationEncryptionType;\n\n        uint256 paymentTimestamp;\n    }\n    mapping(bytes32 => mapping(address => HolderDefinition)) public holder; // holder[offerId][address];\n\n    function setHolders(\n        bytes32 offerId,\n        address[] identities,\n        uint8[] litigationEncryptionTypes)\n    public onlyContracts {\n        offer[offerId].startTime = block.timestamp;\n\n        holder[offerId][identities[0]].stakedAmount = offer[offerId].tokenAmountPerHolder;\n        if(holder[offerId][identities[0]].litigationEncryptionType != litigationEncryptionTypes[0])\n            holder[offerId][identities[0]].litigationEncryptionType = litigationEncryptionTypes[0];\n\n        holder[offerId][identities[1]].stakedAmount = offer[offerId].tokenAmountPerHolder;\n        if(holder[offerId][identities[1]].litigationEncryptionType != litigationEncryptionTypes[1])\n            holder[offerId][identities[1]].litigationEncryptionType = litigationEncryptionTypes[1];\n\n        holder[offerId][identities[2]].stakedAmount = offer[offerId].tokenAmountPerHolder;\n        if(holder[offerId][identities[2]].litigationEncryptionType != litigationEncryptionTypes[2])\n            holder[offerId][identities[2]].litigationEncryptionType = litigationEncryptionTypes[2];\n\n        holder[offerId][identities[0]].paymentTimestamp = block.timestamp;\n        holder[offerId][identities[1]].paymentTimestamp = block.timestamp;\n        holder[offerId][identities[2]].paymentTimestamp = block.timestamp;\n    }\n    function setHolderStakedAmount (bytes32 offerId, address identity, uint256 stakedAmount)\n    public onlyContracts {\n        require(identity!=address(0));\n        holder[offerId][identity].stakedAmount = stakedAmount;\n    }\n    function setHolderPaidAmount (bytes32 offerId, address identity, uint256 paidAmount)\n    public onlyContracts {\n        require(identity!=address(0));\n        holder[offerId][identity].paidAmount = paidAmount;\n    }\n    function setHolderLitigationEncryptionType(bytes32 offerId, address identity, uint256 litigationEncryptionType)\n    public onlyContracts {\n        require(identity!=address(0));\n        holder[offerId][identity].litigationEncryptionType = litigationEncryptionType;\n    }\n    function setHolderPaymentTimestamp(bytes32 offerId, address identity, uint256 paymentTimestamp)\n    public onlyContracts {\n        holder[offerId][identity].paymentTimestamp = paymentTimestamp;\n    }\n\n    function getHolderStakedAmount (bytes32 offerId, address identity)\n    public view returns(uint256 stakedAmount) {\n        require(identity!=address(0));\n        return holder[offerId][identity].stakedAmount;\n    }\n    function getHolderPaidAmount (bytes32 offerId, address identity)\n    public view returns(uint256 paidAmount) {\n        require(identity!=address(0));\n        return holder[offerId][identity].paidAmount;\n    }\n    function getHolderLitigationEncryptionType(bytes32 offerId, address identity)\n    public view returns(uint256 litigationEncryptionType) {\n        require(identity!=address(0));\n        return holder[offerId][identity].litigationEncryptionType;\n    }\n    function getHolderPaymentTimestamp(bytes32 offerId, address identity)\n    public view returns(uint256 paymentTimestamp) {\n        return holder[offerId][identity].paymentTimestamp;\n    }\n    function setHubAddress(address newHubAddress)\n    public onlyContracts {\n        require(newHubAddress!=address(0));\n        hub = Hub(newHubAddress);\n    }\n}\n",
  "sourcePath": "/Users/uroskukic/Documents/Projects/Starfleet/builders-demo/truffle/contracts/HoldingStorage.sol",
  "compiler": {
    "name": "solc",
    "version": "0.4.26+commit.4563c3fc.Emscripten.clang"
  },
  "schemaVersion": "3.3.3",
  "updatedAt": "2021-01-28T12:35:17.526Z",
  "devdoc": {
    "methods": {}
  },
  "userdoc": {
    "methods": {}
  }
}