{
  "contractName": "Hub",
  "abi": [
    {
      "constant": true,
      "inputs": [],
      "name": "owner",
      "outputs": [
        {
          "name": "",
          "type": "address"
        }
      ],
      "payable": false,
      "stateMutability": "view",
      "type": "function"
    },
    {
      "constant": false,
      "inputs": [
        {
          "name": "newOwner",
          "type": "address"
        }
      ],
      "name": "transferOwnership",
      "outputs": [],
      "payable": false,
      "stateMutability": "nonpayable",
      "type": "function"
    },
    {
      "anonymous": false,
      "inputs": [],
      "name": "ContractsChanged",
      "type": "event"
    },
    {
      "anonymous": false,
      "inputs": [
        {
          "indexed": true,
          "name": "previousOwner",
          "type": "address"
        },
        {
          "indexed": true,
          "name": "newOwner",
          "type": "address"
        }
      ],
      "name": "OwnershipTransferred",
      "type": "event"
    },
    {
      "constant": false,
      "inputs": [
        {
          "name": "contractName",
          "type": "string"
        },
        {
          "name": "newContractAddress",
          "type": "address"
        }
      ],
      "name": "setContractAddress",
      "outputs": [],
      "payable": false,
      "stateMutability": "nonpayable",
      "type": "function"
    },
    {
      "constant": true,
      "inputs": [
        {
          "name": "contractName",
          "type": "string"
        }
      ],
      "name": "getContractAddress",
      "outputs": [
        {
          "name": "selectedContractAddress",
          "type": "address"
        }
      ],
      "payable": false,
      "stateMutability": "view",
      "type": "function"
    },
    {
      "constant": true,
      "inputs": [
        {
          "name": "selectedContractAddress",
          "type": "address"
        }
      ],
      "name": "isContract",
      "outputs": [
        {
          "name": "",
          "type": "bool"
        }
      ],
      "payable": false,
      "stateMutability": "view",
      "type": "function"
    },
    {
      "constant": true,
      "inputs": [],
      "name": "tokenAddress",
      "outputs": [
        {
          "name": "",
          "type": "address"
        }
      ],
      "payable": false,
      "stateMutability": "view",
      "type": "function"
    }
  ],
  "bytecode": "0x6080604052336000806101000a81548173ffffffffffffffffffffffffffffffffffffffff021916908373ffffffffffffffffffffffffffffffffffffffff160217905550610ac4806100536000396000f300608060405260043610610078576000357c0100000000000000000000000000000000000000000000000000000000900463ffffffff16806304433bbc1461007d5780631627905514610126578063534e785c146101815780638da5cb5b1461020a5780639d76ea5814610261578063f2fde38b146102b8575b600080fd5b34801561008957600080fd5b506100e4600480360381019080803590602001908201803590602001908080601f01602080910402602001604051908101604052809392919081815260200183838082843782019150505050505091929192905050506102fb565b604051808273ffffffffffffffffffffffffffffffffffffffff1673ffffffffffffffffffffffffffffffffffffffff16815260200191505060405180910390f35b34801561013257600080fd5b50610167600480360381019080803573ffffffffffffffffffffffffffffffffffffffff169060200190929190505050610413565b604051808215151515815260200191505060405180910390f35b34801561018d57600080fd5b50610208600480360381019080803590602001908201803590602001908080601f0160208091040260200160405190810160405280939291908181526020018383808284378201915050505050509192919290803573ffffffffffffffffffffffffffffffffffffffff169060200190929190505050610469565b005b34801561021657600080fd5b5061021f61084a565b604051808273ffffffffffffffffffffffffffffffffffffffff1673ffffffffffffffffffffffffffffffffffffffff16815260200191505060405180910390f35b34801561026d57600080fd5b5061027661086f565b604051808273ffffffffffffffffffffffffffffffffffffffff1673ffffffffffffffffffffffffffffffffffffffff16815260200191505060405180910390f35b3480156102c457600080fd5b506102f9600480360381019080803573ffffffffffffffffffffffffffffffffffffffff1690602001909291905050506108b4565b005b600080826040516020018082805190602001908083835b6020831015156103375780518252602082019150602081019050602083039250610312565b6001836020036101000a0380198251168184511680821785525050505050509050019150506040516020818303038152906040526040518082805190602001908083835b6020831015156103a0578051825260208201915060208101905060208303925061037b565b6001836020036101000a0380198251168184511680821785525050505050509050019150506040518091039020905060016000826000191660001916815260200190815260200160002060009054906101000a900473ffffffffffffffffffffffffffffffffffffffff16915050919050565b6000600260008373ffffffffffffffffffffffffffffffffffffffff1673ffffffffffffffffffffffffffffffffffffffff16815260200190815260200160002060009054906101000a900460ff169050919050565b6000806000809054906101000a900473ffffffffffffffffffffffffffffffffffffffff1673ffffffffffffffffffffffffffffffffffffffff163373ffffffffffffffffffffffffffffffffffffffff16141515610556576040517f08c379a000000000000000000000000000000000000000000000000000000000815260040180806020018281038252602a8152602001807f4f6e6c7920636f6e7472616374206f776e65722063616e2063616c6c2074686981526020017f732066756e6374696f6e0000000000000000000000000000000000000000000081525060400191505060405180910390fd5b836040516020018082805190602001908083835b60208310151561058f578051825260208201915060208101905060208303925061056a565b6001836020036101000a0380198251168184511680821785525050505050509050019150506040516020818303038152906040526040518082805190602001908083835b6020831015156105f857805182526020820191506020810190506020830392506105d3565b6001836020036101000a03801982511681845116808217855250505050505090500191505060405180910390209150600073ffffffffffffffffffffffffffffffffffffffff1660016000846000191660001916815260200190815260200160002060009054906101000a900473ffffffffffffffffffffffffffffffffffffffff1673ffffffffffffffffffffffffffffffffffffffff1614151561072f5760016000836000191660001916815260200190815260200160002060009054906101000a900473ffffffffffffffffffffffffffffffffffffffff1690506000600260008373ffffffffffffffffffffffffffffffffffffffff1673ffffffffffffffffffffffffffffffffffffffff16815260200190815260200160002060006101000a81548160ff0219169083151502179055505b8260016000846000191660001916815260200190815260200160002060006101000a81548173ffffffffffffffffffffffffffffffffffffffff021916908373ffffffffffffffffffffffffffffffffffffffff160217905550600073ffffffffffffffffffffffffffffffffffffffff168373ffffffffffffffffffffffffffffffffffffffff16141515610818576001600260008573ffffffffffffffffffffffffffffffffffffffff1673ffffffffffffffffffffffffffffffffffffffff16815260200190815260200160002060006101000a81548160ff0219169083151502179055505b7f28914ac9a6b0dbfdb15f37605b815f088e8ceac8029c476e7917be779ecb9b1a60405160405180910390a150505050565b6000809054906101000a900473ffffffffffffffffffffffffffffffffffffffff1681565b60006108af6040805190810160405280600581526020017f546f6b656e0000000000000000000000000000000000000000000000000000008152506102fb565b905090565b6000809054906101000a900473ffffffffffffffffffffffffffffffffffffffff1673ffffffffffffffffffffffffffffffffffffffff163373ffffffffffffffffffffffffffffffffffffffff1614151561099e576040517f08c379a000000000000000000000000000000000000000000000000000000000815260040180806020018281038252602a8152602001807f4f6e6c7920636f6e7472616374206f776e65722063616e2063616c6c2074686981526020017f732066756e6374696f6e0000000000000000000000000000000000000000000081525060400191505060405180910390fd5b600073ffffffffffffffffffffffffffffffffffffffff168173ffffffffffffffffffffffffffffffffffffffff16141515156109da57600080fd5b8073ffffffffffffffffffffffffffffffffffffffff166000809054906101000a900473ffffffffffffffffffffffffffffffffffffffff1673ffffffffffffffffffffffffffffffffffffffff167f8be0079c531659141344cd1fd0a4f28419497f9722a3daafe3b4186f6b6457e060405160405180910390a3806000806101000a81548173ffffffffffffffffffffffffffffffffffffffff021916908373ffffffffffffffffffffffffffffffffffffffff160217905550505600a165627a7a723058204e2510407beb73c9b85daf630fa041f068f2bd6485e9b9e97a1e7116545ae64f0029",
  "source": "pragma solidity ^0.4.23;\n\n/**\n* @title Ownable\n* @dev The Ownable contract has an owner address, and provides basic authorization control\n* functions, this simplifies the implementation of \"user permissions\".\n*/\ncontract Ownable {\n    address public owner;\n\n    event OwnershipTransferred(address indexed previousOwner, address indexed newOwner);\n\n    /**\n    * @dev The Ownable constructor sets the original `owner` of the contract to the sender\n    * account.\n    */\n    constructor () public {\n        owner = msg.sender;\n    }\n\n    /**\n    * @dev Throws if called by any account other than the owner.\n    */\n    modifier onlyOwner() {\n        require(msg.sender == owner, \"Only contract owner can call this function\");\n        _;\n    }\n\n    /**\n    * @dev Allows the current owner to transfer control of the contract to a newOwner.\n    * @param newOwner The address to transfer ownership to.\n    */\n    function transferOwnership(address newOwner) public onlyOwner {\n        require(newOwner != address(0));\n        emit OwnershipTransferred(owner, newOwner);\n        owner = newOwner;\n    }\n\n}\n\ncontract Hub is Ownable{\n    mapping(bytes32 => address) contractAddress;\n    mapping(address => bool) contractList;\n\n    event ContractsChanged();\n\n    function setContractAddress(string contractName, address newContractAddress)\n    public onlyOwner {\n        bytes32 index = keccak256(abi.encodePacked(contractName));\n\n        if(contractAddress[index] != address(0)) {\n            address oldContractAddress = contractAddress[index];\n            contractList[oldContractAddress] = false;\n        }\n        contractAddress[index] = newContractAddress;\n\n        if(newContractAddress != address(0)){\n            contractList[newContractAddress] = true;\n        }\n\n        emit ContractsChanged();\n    }\n\n    function getContractAddress(string contractName)  public view returns(address selectedContractAddress) {\n        bytes32 index = keccak256(abi.encodePacked(contractName));\n        return contractAddress[index];\n    }\n    \n    function isContract(address selectedContractAddress) public view returns (bool) {\n        return contractList[selectedContractAddress];\n    }\n\n    /**\n    * @dev Legacy function for getting token contract address\n    */\n    function tokenAddress() public view returns(address) {\n        return getContractAddress(\"Token\");\n    }\n}\n\n",
  "sourcePath": "/Users/uroskukic/Documents/Projects/Starfleet/builders-demo/truffle/contracts/Hub.sol",
  "compiler": {
    "name": "solc",
    "version": "0.4.26+commit.4563c3fc.Emscripten.clang"
  },
  "schemaVersion": "3.3.3",
  "updatedAt": "2021-01-28T12:35:17.538Z",
  "devdoc": {
    "methods": {
      "tokenAddress()": {
        "details": "Legacy function for getting token contract address"
      },
      "transferOwnership(address)": {
        "details": "Allows the current owner to transfer control of the contract to a newOwner.",
        "params": {
          "newOwner": "The address to transfer ownership to."
        }
      }
    }
  },
  "userdoc": {
    "methods": {}
  }
}