{
  "contractName": "Litigation",
  "abi": [
    {
      "constant": true,
      "inputs": [],
      "name": "hub",
      "outputs": [
        {
          "name": "",
          "type": "address"
        }
      ],
      "payable": false,
      "stateMutability": "view",
      "type": "function"
    },
    {
      "inputs": [
        {
          "name": "hubAddress",
          "type": "address"
        }
      ],
      "payable": false,
      "stateMutability": "nonpayable",
      "type": "constructor"
    },
    {
      "anonymous": false,
      "inputs": [
        {
          "indexed": false,
          "name": "offerId",
          "type": "bytes32"
        },
        {
          "indexed": false,
          "name": "holderIdentity",
          "type": "address"
        },
        {
          "indexed": false,
          "name": "requestedObjectIndex",
          "type": "uint256"
        },
        {
          "indexed": false,
          "name": "requestedBlockIndex",
          "type": "uint256"
        }
      ],
      "name": "LitigationInitiated",
      "type": "event"
    },
    {
      "anonymous": false,
      "inputs": [
        {
          "indexed": false,
          "name": "offerId",
          "type": "bytes32"
        },
        {
          "indexed": false,
          "name": "holderIdentity",
          "type": "address"
        }
      ],
      "name": "LitigationAnswered",
      "type": "event"
    },
    {
      "anonymous": false,
      "inputs": [
        {
          "indexed": false,
          "name": "offerId",
          "type": "bytes32"
        },
        {
          "indexed": false,
          "name": "holderIdentity",
          "type": "address"
        }
      ],
      "name": "LitigationTimedOut",
      "type": "event"
    },
    {
      "anonymous": false,
      "inputs": [
        {
          "indexed": false,
          "name": "offerId",
          "type": "bytes32"
        },
        {
          "indexed": false,
          "name": "holderIdentity",
          "type": "address"
        },
        {
          "indexed": false,
          "name": "DH_was_penalized",
          "type": "bool"
        }
      ],
      "name": "LitigationCompleted",
      "type": "event"
    },
    {
      "anonymous": false,
      "inputs": [
        {
          "indexed": false,
          "name": "offerId",
          "type": "bytes32"
        },
        {
          "indexed": false,
          "name": "holderIdentity",
          "type": "address"
        },
        {
          "indexed": false,
          "name": "challengerIdentity",
          "type": "address"
        },
        {
          "indexed": false,
          "name": "litigationRootHash",
          "type": "bytes32"
        }
      ],
      "name": "ReplacementStarted",
      "type": "event"
    },
    {
      "constant": false,
      "inputs": [
        {
          "name": "newHubAddress",
          "type": "address"
        }
      ],
      "name": "setHubAddress",
      "outputs": [],
      "payable": false,
      "stateMutability": "nonpayable",
      "type": "function"
    },
    {
      "constant": false,
      "inputs": [
        {
          "name": "offerId",
          "type": "bytes32"
        },
        {
          "name": "holderIdentity",
          "type": "address"
        },
        {
          "name": "challengerIdentity",
          "type": "address"
        },
        {
          "name": "requestedObjectIndex",
          "type": "uint256"
        },
        {
          "name": "requestedBlockIndex",
          "type": "uint256"
        },
        {
          "name": "hashArray",
          "type": "bytes32[]"
        }
      ],
      "name": "initiateLitigation",
      "outputs": [
        {
          "name": "newLitigationInitiated",
          "type": "bool"
        }
      ],
      "payable": false,
      "stateMutability": "nonpayable",
      "type": "function"
    },
    {
      "constant": false,
      "inputs": [
        {
          "name": "offerId",
          "type": "bytes32"
        },
        {
          "name": "holderIdentity",
          "type": "address"
        },
        {
          "name": "requestedData",
          "type": "bytes32"
        }
      ],
      "name": "answerLitigation",
      "outputs": [
        {
          "name": "answer_accepted",
          "type": "bool"
        }
      ],
      "payable": false,
      "stateMutability": "nonpayable",
      "type": "function"
    },
    {
      "constant": false,
      "inputs": [
        {
          "name": "offerId",
          "type": "bytes32"
        },
        {
          "name": "holderIdentity",
          "type": "address"
        },
        {
          "name": "litigatorIdentity",
          "type": "address"
        },
        {
          "name": "proofData",
          "type": "bytes32"
        },
        {
          "name": "leafIndex",
          "type": "uint256"
        }
      ],
      "name": "completeLitigation",
      "outputs": [
        {
          "name": "DH_was_penalized",
          "type": "bool"
        }
      ],
      "payable": false,
      "stateMutability": "nonpayable",
      "type": "function"
    }
  ],
  "bytecode": "0x608060405234801561001057600080fd5b5060405160208062006be483398101806040528101908080519060200190929190505050806000806101000a81548173ffffffffffffffffffffffffffffffffffffffff021916908373ffffffffffffffffffffffffffffffffffffffff16021790555050616b5f80620000856000396000f30060806040526004361061006d576000357c0100000000000000000000000000000000000000000000000000000000900463ffffffff1680632deb24ee14610072578063365a86fc14610113578063656c13f11461016a578063c7eb45221461024a578063e07031a91461028d575b600080fd5b34801561007e57600080fd5b506100f96004803603810190808035600019169060200190929190803573ffffffffffffffffffffffffffffffffffffffff169060200190929190803573ffffffffffffffffffffffffffffffffffffffff169060200190929190803560001916906020019092919080359060200190929190505050610304565b604051808215151515815260200191505060405180910390f35b34801561011f57600080fd5b50610128611b2a565b604051808273ffffffffffffffffffffffffffffffffffffffff1673ffffffffffffffffffffffffffffffffffffffff16815260200191505060405180910390f35b34801561017657600080fd5b506102306004803603810190808035600019169060200190929190803573ffffffffffffffffffffffffffffffffffffffff169060200190929190803573ffffffffffffffffffffffffffffffffffffffff169060200190929190803590602001909291908035906020019092919080359060200190820180359060200190808060200260200160405190810160405280939291908181526020018383602002808284378201915050505050509192919290505050611b4f565b604051808215151515815260200191505060405180910390f35b34801561025657600080fd5b5061028b600480360381019080803573ffffffffffffffffffffffffffffffffffffffff169060200190929190505050612f9f565b005b34801561029957600080fd5b506102ea6004803603810190808035600019169060200190929190803573ffffffffffffffffffffffffffffffffffffffff1690602001909291908035600019169060200190929190505050613173565b604051808215151515815260200191505060405180910390f35b600080600080606060008060009054906101000a900473ffffffffffffffffffffffffffffffffffffffff1673ffffffffffffffffffffffffffffffffffffffff166304433bbc6040518163ffffffff167c010000000000000000000000000000000000000000000000000000000002815260040180806020018281038252600e8152602001807f486f6c64696e6753746f72616765000000000000000000000000000000000000815250602001915050602060405180830381600087803b1580156103cf57600080fd5b505af11580156103e3573d6000803e3d6000fd5b505050506040513d60208110156103f957600080fd5b810190808051906020019092919050505094506000809054906101000a900473ffffffffffffffffffffffffffffffffffffffff1673ffffffffffffffffffffffffffffffffffffffff166304433bbc6040518163ffffffff167c01000000000000000000000000000000000000000000000000000000000281526004018080602001828103825260118152602001807f4c697469676174696f6e53746f72616765000000000000000000000000000000815250602001915050602060405180830381600087803b1580156104cd57600080fd5b505af11580156104e1573d6000803e3d6000fd5b505050506040513d60208110156104f757600080fd5b810190808051906020019092919050505093506000809054906101000a900473ffffffffffffffffffffffffffffffffffffffff1673ffffffffffffffffffffffffffffffffffffffff166304433bbc6040518163ffffffff167c010000000000000000000000000000000000000000000000000000000002815260040180806020018281038252600e8152602001807f50726f66696c6553746f72616765000000000000000000000000000000000000815250602001915050602060405180830381600087803b1580156105cb57600080fd5b505af11580156105df573d6000803e3d6000fd5b505050506040513d60208110156105f557600080fd5b810190808051906020019092919050505092508873ffffffffffffffffffffffffffffffffffffffff168573ffffffffffffffffffffffffffffffffffffffff1663a26573158d6040518263ffffffff167c0100000000000000000000000000000000000000000000000000000000028152600401808260001916600019168152602001915050602060405180830381600087803b15801561069657600080fd5b505af11580156106aa573d6000803e3d6000fd5b505050506040513d60208110156106c057600080fd5b810190808051906020019092919050505073ffffffffffffffffffffffffffffffffffffffff16141515610782576040517f08c379a00000000000000000000000000000000000000000000000000000000081526004018080602001828103825260388152602001807f4368616c6c656e676572206964656e74697479206e6f7420657175616c20746f81526020017f206f666665722063726561746f72206964656e7469747921000000000000000081525060400191505060405180910390fd5b8873ffffffffffffffffffffffffffffffffffffffff1663d202158d33604051602001808273ffffffffffffffffffffffffffffffffffffffff1673ffffffffffffffffffffffffffffffffffffffff166c010000000000000000000000000281526014019150506040516020818303038152906040526040518082805190602001908083835b60208310151561082e5780518252602082019150602081019050602083039250610809565b6001836020036101000a038019825116818451168082178552505050505050905001915050604051809103902060026040518363ffffffff167c010000000000000000000000000000000000000000000000000000000002815260040180836000191660001916815260200182815260200192505050602060405180830381600087803b1580156108be57600080fd5b505af11580156108d2573d6000803e3d6000fd5b505050506040513d60208110156108e857600080fd5b81019080805190602001909291905050501515610993576040517f08c379a00000000000000000000000000000000000000000000000000000000081526004018080602001828103825260288152602001807f53656e64657220646f6573206e6f74206861766520616374696f6e207075727081526020017f6f7365207365742100000000000000000000000000000000000000000000000081525060400191505060405180910390fd5b8873ffffffffffffffffffffffffffffffffffffffff168473ffffffffffffffffffffffffffffffffffffffff1663d817da568d8d6040518363ffffffff167c01000000000000000000000000000000000000000000000000000000000281526004018083600019166000191681526020018273ffffffffffffffffffffffffffffffffffffffff1673ffffffffffffffffffffffffffffffffffffffff16815260200192505050602060405180830381600087803b158015610a5557600080fd5b505af1158015610a69573d6000803e3d6000fd5b505050506040513d6020811015610a7f57600080fd5b810190808051906020019092919050505073ffffffffffffffffffffffffffffffffffffffff16141515610b67576040517f08c379a000000000000000000000000000000000000000000000000000000000815260040180806020018281038252604f8152602001807f4c697469676174696f6e2063616e206f6e6c7920626520636f6d706c6574656481526020017f20627920746865206c6974696761746f722077686f20696e697469617465642081526020017f746865206c697469676174696f6e21000000000000000000000000000000000081525060600191505060405180910390fd5b6004604051908082528060200260200182016040528015610b975781602001602082028038833980820191505090505b5091508373ffffffffffffffffffffffffffffffffffffffff166315a4aeb18c8c6040518363ffffffff167c01000000000000000000000000000000000000000000000000000000000281526004018083600019166000191681526020018273ffffffffffffffffffffffffffffffffffffffff1673ffffffffffffffffffffffffffffffffffffffff16815260200192505050602060405180830381600087803b158015610c4557600080fd5b505af1158015610c59573d6000803e3d6000fd5b505050506040513d6020811015610c6f57600080fd5b8101908080519060200190929190505050826000815181101515610c8f57fe5b9060200190602002018181525050610d62603c8673ffffffffffffffffffffffffffffffffffffffff1663ebaa74328e6040518263ffffffff167c0100000000000000000000000000000000000000000000000000000000028152600401808260001916600019168152602001915050602060405180830381600087803b158015610d1957600080fd5b505af1158015610d2d573d6000803e3d6000fd5b505050506040513d6020811015610d4357600080fd5b8101908080519060200190929190505050613ec790919063ffffffff16565b826001815181101515610d7157fe5b90602001906020020181815250508373ffffffffffffffffffffffffffffffffffffffff166359485c7e8c8c6040518363ffffffff167c01000000000000000000000000000000000000000000000000000000000281526004018083600019166000191681526020018273ffffffffffffffffffffffffffffffffffffffff1673ffffffffffffffffffffffffffffffffffffffff16815260200192505050602060405180830381600087803b158015610e2a57600080fd5b505af1158015610e3e573d6000803e3d6000fd5b505050506040513d6020811015610e5457600080fd5b8101908080519060200190929190505050905060036004811115610e7457fe5b816004811115610e8057fe5b14151515610f42576040517f08c379a00000000000000000000000000000000000000000000000000000000081526004018080602001828103825260498152602001807f5468652073656c656374656420686f6c64657220697320616c7265616479206281526020017f65696e67207265706c616365642c2063616e6e6f742063616c6c20746869732081526020017f66756e6374696f6e21000000000000000000000000000000000000000000000081525060600191505060405180910390fd5b600480811115610f4e57fe5b816004811115610f5a57fe5b1415151561101c576040517f08c379a00000000000000000000000000000000000000000000000000000000081526004018080602001828103825260438152602001807f5468652073656c656374656420686f6c64657220697320616c7265616479207281526020017f65706c616365642c2063616e6e6f742063616c6c20746869732066756e63746981526020017f6f6e21000000000000000000000000000000000000000000000000000000000081525060600191505060405180910390fd5b6000600481111561102957fe5b81600481111561103557fe5b141515156110f7576040517f08c379a00000000000000000000000000000000000000000000000000000000081526004018080602001828103825260498152602001807f43616e6e6f7420636f6d706c657465206120636f6d706c65746564206c69746981526020017f676174696f6e2074686174206973206e6f7420696e69746961746564206f722081526020017f616e73776572656421000000000000000000000000000000000000000000000081525060600191505060405180910390fd5b60008573ffffffffffffffffffffffffffffffffffffffff16631aa063a78d8d6040518363ffffffff167c01000000000000000000000000000000000000000000000000000000000281526004018083600019166000191681526020018273ffffffffffffffffffffffffffffffffffffffff1673ffffffffffffffffffffffffffffffffffffffff16815260200192505050602060405180830381600087803b1580156111a457600080fd5b505af11580156111b8573d6000803e3d6000fd5b505050506040513d60208110156111ce57600080fd5b810190808051906020019092919050505014156112bd578473ffffffffffffffffffffffffffffffffffffffff166319a60ed28c6040518263ffffffff167c0100000000000000000000000000000000000000000000000000000000028152600401808260001916600019168152602001915050602060405180830381600087803b15801561125c57600080fd5b505af1158015611270573d6000803e3d6000fd5b505050506040513d602081101561128657600080fd5b8101908080519060200190929190505050600190048260038151811015156112aa57fe5b9060200190602002018181525050611558565b60018573ffffffffffffffffffffffffffffffffffffffff16631aa063a78d8d6040518363ffffffff167c01000000000000000000000000000000000000000000000000000000000281526004018083600019166000191681526020018273ffffffffffffffffffffffffffffffffffffffff1673ffffffffffffffffffffffffffffffffffffffff16815260200192505050602060405180830381600087803b15801561136a57600080fd5b505af115801561137e573d6000803e3d6000fd5b505050506040513d602081101561139457600080fd5b81019080805190602001909291905050501415611483578473ffffffffffffffffffffffffffffffffffffffff1663f06f8da78c6040518263ffffffff167c0100000000000000000000000000000000000000000000000000000000028152600401808260001916600019168152602001915050602060405180830381600087803b15801561142257600080fd5b505af1158015611436573d6000803e3d6000fd5b505050506040513d602081101561144c57600080fd5b81019080805190602001909291905050506001900482600381518110151561147057fe5b9060200190602002018181525050611557565b8473ffffffffffffffffffffffffffffffffffffffff1663eca724808c6040518263ffffffff167c0100000000000000000000000000000000000000000000000000000000028152600401808260001916600019168152602001915050602060405180830381600087803b1580156114fa57600080fd5b505af115801561150e573d6000803e3d6000fd5b505050506040513d602081101561152457600080fd5b81019080805190602001909291905050506001900482600381518110151561154857fe5b90602001906020020181815250505b5b6001600481111561156557fe5b81600481111561157157fe5b14156117a257426115a4600284600181518110151561158c57fe5b90602001906020020151613ec790919063ffffffff16565b8360008151811015156115b357fe5b906020019060200201510110151515611680576040517f08c379a00000000000000000000000000000000000000000000000000000000081526004018080602001828103825260448152602001807f5468652074696d652077696e646f7720666f7220636f6d706c6574696e67207481526020017f686520756e616e737765726564206c697469676174696f6e206861732070617381526020017f736564210000000000000000000000000000000000000000000000000000000081525060600191505060405180910390fd5b4282600181518110151561169057fe5b906020019060200201518360008151811015156116a957fe5b9060200190602002015101101515611775576040517f08c379a00000000000000000000000000000000000000000000000000000000081526004018080602001828103825260418152602001807f54686520616e737765722077696e646f7720686173206e6f742070617373656481526020017f2c2063616e6e6f7420636f6d706c657465206c697469676174696f6e2079657481526020017f210000000000000000000000000000000000000000000000000000000000000081525060600191505060405180910390fd5b6117998b8b8b85600381518110151561178a57fe5b90602001906020020151613efa565b60019550611b1c565b428260018151811015156117b257fe5b906020019060200201518360008151811015156117cb57fe5b906020019060200201510110151515611898576040517f08c379a00000000000000000000000000000000000000000000000000000000081526004018080602001828103825260428152602001807f5468652074696d652077696e646f7720666f7220636f6d706c6574696e67207481526020017f686520616e737765726564206c697469676174696f6e2068617320706173736581526020017f642100000000000000000000000000000000000000000000000000000000000081525060600191505060405180910390fd5b6118c08b8b8a8560038151811015156118ad57fe5b906020019060200201516001028b615a3a565b15611af3578373ffffffffffffffffffffffffffffffffffffffff166357e0306a8c8c60006040518463ffffffff167c01000000000000000000000000000000000000000000000000000000000281526004018084600019166000191681526020018373ffffffffffffffffffffffffffffffffffffffff1673ffffffffffffffffffffffffffffffffffffffff16815260200182600481111561196057fe5b60ff1681526020019350505050600060405180830381600087803b15801561198757600080fd5b505af115801561199b573d6000803e3d6000fd5b505050508373ffffffffffffffffffffffffffffffffffffffff16639163395b8c8c426040518463ffffffff167c01000000000000000000000000000000000000000000000000000000000281526004018084600019166000191681526020018373ffffffffffffffffffffffffffffffffffffffff1673ffffffffffffffffffffffffffffffffffffffff1681526020018281526020019350505050600060405180830381600087803b158015611a5257600080fd5b505af1158015611a66573d6000803e3d6000fd5b505050507f1bbf1213e59fb773d8a3f67301ab0a75838e9d7104db9e6e51ba96d3c7a502c08b8b60006040518084600019166000191681526020018373ffffffffffffffffffffffffffffffffffffffff1673ffffffffffffffffffffffffffffffffffffffff16815260200182151515158152602001935050505060405180910390a160009550611b1c565b611b178b8b8b856003815181101515611b0857fe5b90602001906020020151613efa565b600195505b505050505095945050505050565b6000809054906101000a900473ffffffffffffffffffffffffffffffffffffffff1681565b60008060008060606000809054906101000a900473ffffffffffffffffffffffffffffffffffffffff1673ffffffffffffffffffffffffffffffffffffffff166304433bbc6040518163ffffffff167c010000000000000000000000000000000000000000000000000000000002815260040180806020018281038252600e8152602001807f486f6c64696e6753746f72616765000000000000000000000000000000000000815250602001915050602060405180830381600087803b158015611c1857600080fd5b505af1158015611c2c573d6000803e3d6000fd5b505050506040513d6020811015611c4257600080fd5b810190808051906020019092919050505093506000809054906101000a900473ffffffffffffffffffffffffffffffffffffffff1673ffffffffffffffffffffffffffffffffffffffff166304433bbc6040518163ffffffff167c01000000000000000000000000000000000000000000000000000000000281526004018080602001828103825260118152602001807f4c697469676174696f6e53746f72616765000000000000000000000000000000815250602001915050602060405180830381600087803b158015611d1657600080fd5b505af1158015611d2a573d6000803e3d6000fd5b505050506040513d6020811015611d4057600080fd5b810190808051906020019092919050505092508873ffffffffffffffffffffffffffffffffffffffff168473ffffffffffffffffffffffffffffffffffffffff1663a26573158d6040518263ffffffff167c0100000000000000000000000000000000000000000000000000000000028152600401808260001916600019168152602001915050602060405180830381600087803b158015611de157600080fd5b505af1158015611df5573d6000803e3d6000fd5b505050506040513d6020811015611e0b57600080fd5b810190808051906020019092919050505073ffffffffffffffffffffffffffffffffffffffff16141515611ecd576040517f08c379a00000000000000000000000000000000000000000000000000000000081526004018080602001828103825260388152602001807f4368616c6c656e676572206964656e74697479206e6f7420657175616c20746f81526020017f206f666665722063726561746f72206964656e7469747921000000000000000081525060400191505060405180910390fd5b8873ffffffffffffffffffffffffffffffffffffffff1663d202158d33604051602001808273ffffffffffffffffffffffffffffffffffffffff1673ffffffffffffffffffffffffffffffffffffffff166c010000000000000000000000000281526014019150506040516020818303038152906040526040518082805190602001908083835b602083101515611f795780518252602082019150602081019050602083039250611f54565b6001836020036101000a038019825116818451168082178552505050505050905001915050604051809103902060026040518363ffffffff167c010000000000000000000000000000000000000000000000000000000002815260040180836000191660001916815260200182815260200192505050602060405180830381600087803b15801561200957600080fd5b505af115801561201d573d6000803e3d6000fd5b505050506040513d602081101561203357600080fd5b810190808051906020019092919050505015156120de576040517f08c379a00000000000000000000000000000000000000000000000000000000081526004018080602001828103825260288152602001807f53656e64657220646f6573206e6f74206861766520616374696f6e207075727081526020017f6f7365207365742100000000000000000000000000000000000000000000000081525060400191505060405180910390fd5b8273ffffffffffffffffffffffffffffffffffffffff166359485c7e8c8c6040518363ffffffff167c01000000000000000000000000000000000000000000000000000000000281526004018083600019166000191681526020018273ffffffffffffffffffffffffffffffffffffffff1673ffffffffffffffffffffffffffffffffffffffff16815260200192505050602060405180830381600087803b15801561218957600080fd5b505af115801561219d573d6000803e3d6000fd5b505050506040513d60208110156121b357600080fd5b8101908080519060200190929190505050915060026040519080825280602002602001820160405280156121f65781602001602082028038833980820191505090505b5090508273ffffffffffffffffffffffffffffffffffffffff166315a4aeb18c8c6040518363ffffffff167c01000000000000000000000000000000000000000000000000000000000281526004018083600019166000191681526020018273ffffffffffffffffffffffffffffffffffffffff1673ffffffffffffffffffffffffffffffffffffffff16815260200192505050602060405180830381600087803b1580156122a457600080fd5b505af11580156122b8573d6000803e3d6000fd5b505050506040513d60208110156122ce57600080fd5b81019080805190602001909291905050508160008151811015156122ee57fe5b90602001906020020181815250506123c1603c8573ffffffffffffffffffffffffffffffffffffffff1663ebaa74328e6040518263ffffffff167c0100000000000000000000000000000000000000000000000000000000028152600401808260001916600019168152602001915050602060405180830381600087803b15801561237857600080fd5b505af115801561238c573d6000803e3d6000fd5b505050506040513d60208110156123a257600080fd5b8101908080519060200190929190505050613ec790919063ffffffff16565b8160018151811015156123d057fe5b9060200190602002018181525050600360048111156123eb57fe5b8260048111156123f757fe5b141515156124b9576040517f08c379a000000000000000000000000000000000000000000000000000000000815260040180806020018281038252604a8152602001807f5468652073656c656374656420686f6c64657220697320616c7265616479206281526020017f65696e67207265706c616365642c2063616e6e6f7420696e697469617465206c81526020017f697469676174696f6e210000000000000000000000000000000000000000000081525060600191505060405180910390fd5b6004808111156124c557fe5b8260048111156124d157fe5b14151515612593576040517f08c379a00000000000000000000000000000000000000000000000000000000081526004018080602001828103825260448152602001807f5468652073656c656374656420686f6c64657220697320616c7265616479207281526020017f65706c616365642c2063616e6e6f7420696e697469617465206c69746967617481526020017f696f6e210000000000000000000000000000000000000000000000000000000081525060600191505060405180910390fd5b61259d8b8b61644a565b1515612637576040517f08c379a00000000000000000000000000000000000000000000000000000000081526004018080602001828103825260318152602001807f43616e6e6f7420696e697469617465206c697469676174696f6e20666f72206181526020017f20636f6d706c65746564206f666665722100000000000000000000000000000081525060400191505060405180910390fd5b6001600481111561264457fe5b82600481111561265057fe5b14156127635742612683600383600181518110151561266b57fe5b90602001906020020151613ec790919063ffffffff16565b82600081518110151561269257fe5b906020019060200201510110151561275e576040517f08c379a000000000000000000000000000000000000000000000000000000000815260040180806020018281038252605d8152602001807f546865206c697469676174696f6e20697320696e6974696174656420616e642081526020017f6177616974696e6720686f6c64657220726573706f6e73652c2063616e6e6f7481526020017f20696e69746961746520616e6f74686572206c697469676174696f6e2100000081525060600191505060405180910390fd5b6129cc565b6002600481111561277057fe5b82600481111561277c57fe5b14156128b557426127af600283600181518110151561279757fe5b90602001906020020151613ec790919063ffffffff16565b8260008151811015156127be57fe5b90602001906020020151011015156128b0576040517f08c379a00000000000000000000000000000000000000000000000000000000081526004018080602001828103825260688152602001807f546865206c697469676174696f6e20697320616e73776572656420616e64206181526020017f77616974696e672070726576696f7573206c6974696761746f7220726573706f81526020017f6e73652c2063616e6e6f7420696e69746961746520616e6f74686572206c697481526020017f69676174696f6e2100000000000000000000000000000000000000000000000081525060800191505060405180910390fd5b6129cb565b600160048111156128c257fe5b8260048111156128ce57fe5b14156129ca57428160018151811015156128e457fe5b906020019060200201518260008151811015156128fd57fe5b90602001906020020151011015156129c9576040517f08c379a000000000000000000000000000000000000000000000000000000000815260040180806020018281038252604f8152602001807f546865206c697469676174696f6e20696e74657276616c20686173206e6f742081526020017f706173736564207965742c2063616e6e6f7420696e69746961746520616e6f7481526020017f686572206c697469676174696f6e21000000000000000000000000000000000081525060600191505060405180910390fd5b5b5b5b8273ffffffffffffffffffffffffffffffffffffffff16639dbe60638c8c8c6040518463ffffffff167c01000000000000000000000000000000000000000000000000000000000281526004018084600019166000191681526020018373ffffffffffffffffffffffffffffffffffffffff1673ffffffffffffffffffffffffffffffffffffffff1681526020018273ffffffffffffffffffffffffffffffffffffffff1673ffffffffffffffffffffffffffffffffffffffff1681526020019350505050600060405180830381600087803b158015612aab57600080fd5b505af1158015612abf573d6000803e3d6000fd5b505050508273ffffffffffffffffffffffffffffffffffffffff1663384a13448c8c8b6040518463ffffffff167c01000000000000000000000000000000000000000000000000000000000281526004018084600019166000191681526020018373ffffffffffffffffffffffffffffffffffffffff1673ffffffffffffffffffffffffffffffffffffffff1681526020018281526020019350505050600060405180830381600087803b158015612b7657600080fd5b505af1158015612b8a573d6000803e3d6000fd5b505050508273ffffffffffffffffffffffffffffffffffffffff16636c93746c8c8c8a6040518463ffffffff167c01000000000000000000000000000000000000000000000000000000000281526004018084600019166000191681526020018373ffffffffffffffffffffffffffffffffffffffff1673ffffffffffffffffffffffffffffffffffffffff1681526020018281526020019350505050600060405180830381600087803b158015612c4157600080fd5b505af1158015612c55573d6000803e3d6000fd5b505050508273ffffffffffffffffffffffffffffffffffffffff166376a48d4d8c8c896040518463ffffffff167c01000000000000000000000000000000000000000000000000000000000281526004018084600019166000191681526020018373ffffffffffffffffffffffffffffffffffffffff1673ffffffffffffffffffffffffffffffffffffffff16815260200180602001828103825283818151815260200191508051906020019060200280838360005b83811015612d26578082015181840152602081019050612d0b565b50505050905001945050505050600060405180830381600087803b158015612d4d57600080fd5b505af1158015612d61573d6000803e3d6000fd5b505050508273ffffffffffffffffffffffffffffffffffffffff166357e0306a8c8c60016040518463ffffffff167c01000000000000000000000000000000000000000000000000000000000281526004018084600019166000191681526020018373ffffffffffffffffffffffffffffffffffffffff1673ffffffffffffffffffffffffffffffffffffffff168152602001826004811115612e0057fe5b60ff1681526020019350505050600060405180830381600087803b158015612e2757600080fd5b505af1158015612e3b573d6000803e3d6000fd5b505050508273ffffffffffffffffffffffffffffffffffffffff16639163395b8c8c426040518463ffffffff167c01000000000000000000000000000000000000000000000000000000000281526004018084600019166000191681526020018373ffffffffffffffffffffffffffffffffffffffff1673ffffffffffffffffffffffffffffffffffffffff1681526020018281526020019350505050600060405180830381600087803b158015612ef257600080fd5b505af1158015612f06573d6000803e3d6000fd5b505050507f86d8abbef37f520cc478cc865cbaee78054bf95e4f50cdc54d4fa8c0ab0cacc98b8b8a8a6040518085600019166000191681526020018473ffffffffffffffffffffffffffffffffffffffff1673ffffffffffffffffffffffffffffffffffffffff16815260200183815260200182815260200194505050505060405180910390a160019450505050509695505050505050565b6000809054906101000a900473ffffffffffffffffffffffffffffffffffffffff1673ffffffffffffffffffffffffffffffffffffffff166316279055336040518263ffffffff167c0100000000000000000000000000000000000000000000000000000000028152600401808273ffffffffffffffffffffffffffffffffffffffff1673ffffffffffffffffffffffffffffffffffffffff168152602001915050602060405180830381600087803b15801561305b57600080fd5b505af115801561306f573d6000803e3d6000fd5b505050506040513d602081101561308557600080fd5b81019080805190602001909291905050501515613130576040517f08c379a000000000000000000000000000000000000000000000000000000000815260040180806020018281038252603f8152602001807f546869732066756e6374696f6e2063616e206f6e6c792062652063616c6c656481526020017f20627920636f6e747261637473206f722074686569722063726561746f72210081525060400191505060405180910390fd5b806000806101000a81548173ffffffffffffffffffffffffffffffffffffffff021916908373ffffffffffffffffffffffffffffffffffffffff16021790555050565b6000806000806000809054906101000a900473ffffffffffffffffffffffffffffffffffffffff1673ffffffffffffffffffffffffffffffffffffffff166304433bbc6040518163ffffffff167c010000000000000000000000000000000000000000000000000000000002815260040180806020018281038252600e8152602001807f486f6c64696e6753746f72616765000000000000000000000000000000000000815250602001915050602060405180830381600087803b15801561323a57600080fd5b505af115801561324e573d6000803e3d6000fd5b505050506040513d602081101561326457600080fd5b810190808051906020019092919050505092506000809054906101000a900473ffffffffffffffffffffffffffffffffffffffff1673ffffffffffffffffffffffffffffffffffffffff166304433bbc6040518163ffffffff167c01000000000000000000000000000000000000000000000000000000000281526004018080602001828103825260118152602001807f4c697469676174696f6e53746f72616765000000000000000000000000000000815250602001915050602060405180830381600087803b15801561333857600080fd5b505af115801561334c573d6000803e3d6000fd5b505050506040513d602081101561336257600080fd5b810190808051906020019092919050505091508573ffffffffffffffffffffffffffffffffffffffff1663d202158d33604051602001808273ffffffffffffffffffffffffffffffffffffffff1673ffffffffffffffffffffffffffffffffffffffff166c010000000000000000000000000281526014019150506040516020818303038152906040526040518082805190602001908083835b60208310151561342157805182526020820191506020810190506020830392506133fc565b6001836020036101000a038019825116818451168082178552505050505050905001915050604051809103902060026040518363ffffffff167c010000000000000000000000000000000000000000000000000000000002815260040180836000191660001916815260200182815260200192505050602060405180830381600087803b1580156134b157600080fd5b505af11580156134c5573d6000803e3d6000fd5b505050506040513d60208110156134db57600080fd5b81019080805190602001909291905050501515613586576040517f08c379a00000000000000000000000000000000000000000000000000000000081526004018080602001828103825260288152602001807f53656e64657220646f6573206e6f74206861766520616374696f6e207075727081526020017f6f7365207365742100000000000000000000000000000000000000000000000081525060400191505060405180910390fd5b8173ffffffffffffffffffffffffffffffffffffffff166359485c7e88886040518363ffffffff167c01000000000000000000000000000000000000000000000000000000000281526004018083600019166000191681526020018273ffffffffffffffffffffffffffffffffffffffff1673ffffffffffffffffffffffffffffffffffffffff16815260200192505050602060405180830381600087803b15801561363157600080fd5b505af1158015613645573d6000803e3d6000fd5b505050506040513d602081101561365b57600080fd5b810190808051906020019092919050505090506001600481111561367b57fe5b81600481111561368757fe5b141515613722576040517f08c379a000000000000000000000000000000000000000000000000000000000815260040180806020018281038252603e8152602001807f4c697469676174696f6e20737461747573206973206e6f742073657420746f2081526020017f696e697469617465642c2063616e6e6f742073656e6420616e7377657221000081525060400191505060405180910390fd5b426137e8603c8573ffffffffffffffffffffffffffffffffffffffff1663ebaa74328b6040518263ffffffff167c0100000000000000000000000000000000000000000000000000000000028152600401808260001916600019168152602001915050602060405180830381600087803b15801561379f57600080fd5b505af11580156137b3573d6000803e3d6000fd5b505050506040513d60208110156137c957600080fd5b8101908080519060200190929190505050613ec790919063ffffffff16565b8373ffffffffffffffffffffffffffffffffffffffff166315a4aeb18a8a6040518363ffffffff167c01000000000000000000000000000000000000000000000000000000000281526004018083600019166000191681526020018273ffffffffffffffffffffffffffffffffffffffff1673ffffffffffffffffffffffffffffffffffffffff16815260200192505050602060405180830381600087803b15801561389357600080fd5b505af11580156138a7573d6000803e3d6000fd5b505050506040513d60208110156138bd57600080fd5b8101908080519060200190929190505050011015151561396b576040517f08c379a00000000000000000000000000000000000000000000000000000000081526004018080602001828103825260408152602001807f54686520696e74657276616c20666f7220616e73776572696e6720686173207081526020017f61737365642c2063616e6e6f7420616e73776572206c697469676174696f6e2181525060400191505060405180910390fd5b8173ffffffffffffffffffffffffffffffffffffffff16631631114e8888888673ffffffffffffffffffffffffffffffffffffffff1663348451588d8d6040518363ffffffff167c01000000000000000000000000000000000000000000000000000000000281526004018083600019166000191681526020018273ffffffffffffffffffffffffffffffffffffffff1673ffffffffffffffffffffffffffffffffffffffff16815260200192505050602060405180830381600087803b158015613a3557600080fd5b505af1158015613a49573d6000803e3d6000fd5b505050506040513d6020811015613a5f57600080fd5b81019080805190602001909291905050508773ffffffffffffffffffffffffffffffffffffffff1663e9165a3f8e8e6040518363ffffffff167c01000000000000000000000000000000000000000000000000000000000281526004018083600019166000191681526020018273ffffffffffffffffffffffffffffffffffffffff1673ffffffffffffffffffffffffffffffffffffffff16815260200192505050602060405180830381600087803b158015613b1b57600080fd5b505af1158015613b2f573d6000803e3d6000fd5b505050506040513d6020811015613b4557600080fd5b810190808051906020019092919050505060405160200180846000191660001916815260200183815260200182815260200193505050506040516020818303038152906040526040518082805190602001908083835b602083101515613bc05780518252602082019150602081019050602083039250613b9b565b6001836020036101000a03801982511681845116808217855250505050505090500191505060405180910390206040518463ffffffff167c01000000000000000000000000000000000000000000000000000000000281526004018084600019166000191681526020018373ffffffffffffffffffffffffffffffffffffffff1673ffffffffffffffffffffffffffffffffffffffff16815260200182600019166000191681526020019350505050600060405180830381600087803b158015613c8957600080fd5b505af1158015613c9d573d6000803e3d6000fd5b505050508173ffffffffffffffffffffffffffffffffffffffff166357e0306a888860026040518463ffffffff167c01000000000000000000000000000000000000000000000000000000000281526004018084600019166000191681526020018373ffffffffffffffffffffffffffffffffffffffff1673ffffffffffffffffffffffffffffffffffffffff168152602001826004811115613d3c57fe5b60ff1681526020019350505050600060405180830381600087803b158015613d6357600080fd5b505af1158015613d77573d6000803e3d6000fd5b505050508173ffffffffffffffffffffffffffffffffffffffff16639163395b8888426040518463ffffffff167c01000000000000000000000000000000000000000000000000000000000281526004018084600019166000191681526020018373ffffffffffffffffffffffffffffffffffffffff1673ffffffffffffffffffffffffffffffffffffffff1681526020018281526020019350505050600060405180830381600087803b158015613e2e57600080fd5b505af1158015613e42573d6000803e3d6000fd5b505050507fc2a8f0491b8101b93fa164bc11e6bfe6feb2f2851a3cbdcc564558657f7dcbed87876040518083600019166000191681526020018273ffffffffffffffffffffffffffffffffffffffff1673ffffffffffffffffffffffffffffffffffffffff1681526020019250505060405180910390a1600193505050509392505050565b60008082840290506000841480613ee85750828482811515613ee557fe5b04145b1515613ef057fe5b8091505092915050565b6000806000806000809054906101000a900473ffffffffffffffffffffffffffffffffffffffff1673ffffffffffffffffffffffffffffffffffffffff166304433bbc6040518163ffffffff167c010000000000000000000000000000000000000000000000000000000002815260040180806020018281038252600e8152602001807f486f6c64696e6753746f72616765000000000000000000000000000000000000815250602001915050602060405180830381600087803b158015613fc157600080fd5b505af1158015613fd5573d6000803e3d6000fd5b505050506040513d6020811015613feb57600080fd5b810190808051906020019092919050505093506000809054906101000a900473ffffffffffffffffffffffffffffffffffffffff1673ffffffffffffffffffffffffffffffffffffffff166304433bbc6040518163ffffffff167c01000000000000000000000000000000000000000000000000000000000281526004018080602001828103825260118152602001807f4c697469676174696f6e53746f72616765000000000000000000000000000000815250602001915050602060405180830381600087803b1580156140bf57600080fd5b505af11580156140d3573d6000803e3d6000fd5b505050506040513d60208110156140e957600080fd5b810190808051906020019092919050505092506000809054906101000a900473ffffffffffffffffffffffffffffffffffffffff1673ffffffffffffffffffffffffffffffffffffffff166304433bbc6040518163ffffffff167c010000000000000000000000000000000000000000000000000000000002815260040180806020018281038252600e8152602001807f50726f66696c6553746f72616765000000000000000000000000000000000000815250602001915050602060405180830381600087803b1580156141bd57600080fd5b505af11580156141d1573d6000803e3d6000fd5b505050506040513d60208110156141e757600080fd5b810190808051906020019092919050505091508373ffffffffffffffffffffffffffffffffffffffff16636c833cf5896040518263ffffffff167c0100000000000000000000000000000000000000000000000000000000028152600401808260001916600019168152602001915050602060405180830381600087803b15801561427157600080fd5b505af1158015614285573d6000803e3d6000fd5b505050506040513d602081101561429b57600080fd5b8101908080519060200190929190505050905061449d61448e8573ffffffffffffffffffffffffffffffffffffffff1663809a05a78b8b6040518363ffffffff167c01000000000000000000000000000000000000000000000000000000000281526004018083600019166000191681526020018273ffffffffffffffffffffffffffffffffffffffff1673ffffffffffffffffffffffffffffffffffffffff16815260200192505050602060405180830381600087803b15801561435f57600080fd5b505af1158015614373573d6000803e3d6000fd5b505050506040513d602081101561438957600080fd5b81019080805190602001909291905050508573ffffffffffffffffffffffffffffffffffffffff166315a4aeb18c8c6040518363ffffffff167c01000000000000000000000000000000000000000000000000000000000281526004018083600019166000191681526020018273ffffffffffffffffffffffffffffffffffffffff1673ffffffffffffffffffffffffffffffffffffffff16815260200192505050602060405180830381600087803b15801561444557600080fd5b505af1158015614459573d6000803e3d6000fd5b505050506040513d602081101561446f57600080fd5b8101908080519060200190929190505050616ae190919063ffffffff16565b82613ec790919063ffffffff16565b9050614576614567603c8673ffffffffffffffffffffffffffffffffffffffff1663c2fb60968c6040518263ffffffff167c0100000000000000000000000000000000000000000000000000000000028152600401808260001916600019168152602001915050602060405180830381600087803b15801561451e57600080fd5b505af1158015614532573d6000803e3d6000fd5b505050506040513d602081101561454857600080fd5b8101908080519060200190929190505050613ec790919063ffffffff16565b82616afa90919063ffffffff16565b90508373ffffffffffffffffffffffffffffffffffffffff166338d525f189896040518363ffffffff167c01000000000000000000000000000000000000000000000000000000000281526004018083600019166000191681526020018273ffffffffffffffffffffffffffffffffffffffff1673ffffffffffffffffffffffffffffffffffffffff16815260200192505050602060405180830381600087803b15801561462357600080fd5b505af1158015614637573d6000803e3d6000fd5b505050506040513d602081101561464d57600080fd5b8101908080519060200190929190505050614756828673ffffffffffffffffffffffffffffffffffffffff1663530bde3d8c8c6040518363ffffffff167c01000000000000000000000000000000000000000000000000000000000281526004018083600019166000191681526020018273ffffffffffffffffffffffffffffffffffffffff1673ffffffffffffffffffffffffffffffffffffffff16815260200192505050602060405180830381600087803b15801561470d57600080fd5b505af1158015614721573d6000803e3d6000fd5b505050506040513d602081101561473757600080fd5b8101908080519060200190929190505050616b1590919063ffffffff16565b101515614817576040517f08c379a000000000000000000000000000000000000000000000000000000000815260040180806020018281038252604e8152602001807f486f6c64657220636f6e7369646572656420746f207375636365737366756c6c81526020017f7920636f6d706c65746564206f666665722c2063616e6e6f7420636f6d706c6581526020017f7465206c697469676174696f6e2100000000000000000000000000000000000081525060600191505060405180910390fd5b8173ffffffffffffffffffffffffffffffffffffffff1663bd3cd5258861491c848673ffffffffffffffffffffffffffffffffffffffff16637a7664608d6040518263ffffffff167c0100000000000000000000000000000000000000000000000000000000028152600401808273ffffffffffffffffffffffffffffffffffffffff1673ffffffffffffffffffffffffffffffffffffffff168152602001915050602060405180830381600087803b1580156148d357600080fd5b505af11580156148e7573d6000803e3d6000fd5b505050506040513d60208110156148fd57600080fd5b8101908080519060200190929190505050616b1590919063ffffffff16565b6040518363ffffffff167c0100000000000000000000000000000000000000000000000000000000028152600401808373ffffffffffffffffffffffffffffffffffffffff1673ffffffffffffffffffffffffffffffffffffffff16815260200182815260200192505050600060405180830381600087803b1580156149a157600080fd5b505af11580156149b5573d6000803e3d6000fd5b505050508173ffffffffffffffffffffffffffffffffffffffff1663bd3cd52587614abe848673ffffffffffffffffffffffffffffffffffffffff16637a7664608c6040518263ffffffff167c0100000000000000000000000000000000000000000000000000000000028152600401808273ffffffffffffffffffffffffffffffffffffffff1673ffffffffffffffffffffffffffffffffffffffff168152602001915050602060405180830381600087803b158015614a7557600080fd5b505af1158015614a89573d6000803e3d6000fd5b505050506040513d6020811015614a9f57600080fd5b8101908080519060200190929190505050616ae190919063ffffffff16565b6040518363ffffffff167c0100000000000000000000000000000000000000000000000000000000028152600401808373ffffffffffffffffffffffffffffffffffffffff1673ffffffffffffffffffffffffffffffffffffffff16815260200182815260200192505050600060405180830381600087803b158015614b4357600080fd5b505af1158015614b57573d6000803e3d6000fd5b505050508173ffffffffffffffffffffffffffffffffffffffff166350c3ff5787614c60848673ffffffffffffffffffffffffffffffffffffffff16635ffe02828c6040518263ffffffff167c0100000000000000000000000000000000000000000000000000000000028152600401808273ffffffffffffffffffffffffffffffffffffffff1673ffffffffffffffffffffffffffffffffffffffff168152602001915050602060405180830381600087803b158015614c1757600080fd5b505af1158015614c2b573d6000803e3d6000fd5b505050506040513d6020811015614c4157600080fd5b8101908080519060200190929190505050616ae190919063ffffffff16565b6040518363ffffffff167c0100000000000000000000000000000000000000000000000000000000028152600401808373ffffffffffffffffffffffffffffffffffffffff1673ffffffffffffffffffffffffffffffffffffffff16815260200182815260200192505050600060405180830381600087803b158015614ce557600080fd5b505af1158015614cf9573d6000803e3d6000fd5b505050508373ffffffffffffffffffffffffffffffffffffffff166305c6ff608989614e13858973ffffffffffffffffffffffffffffffffffffffff1663530bde3d8f8f6040518363ffffffff167c01000000000000000000000000000000000000000000000000000000000281526004018083600019166000191681526020018273ffffffffffffffffffffffffffffffffffffffff1673ffffffffffffffffffffffffffffffffffffffff16815260200192505050602060405180830381600087803b158015614dca57600080fd5b505af1158015614dde573d6000803e3d6000fd5b505050506040513d6020811015614df457600080fd5b8101908080519060200190929190505050616b1590919063ffffffff16565b6040518463ffffffff167c01000000000000000000000000000000000000000000000000000000000281526004018084600019166000191681526020018373ffffffffffffffffffffffffffffffffffffffff1673ffffffffffffffffffffffffffffffffffffffff1681526020018281526020019350505050600060405180830381600087803b158015614ea757600080fd5b505af1158015614ebb573d6000803e3d6000fd5b5050505061509c8473ffffffffffffffffffffffffffffffffffffffff1663530bde3d8a8a6040518363ffffffff167c01000000000000000000000000000000000000000000000000000000000281526004018083600019166000191681526020018273ffffffffffffffffffffffffffffffffffffffff1673ffffffffffffffffffffffffffffffffffffffff16815260200192505050602060405180830381600087803b158015614f6d57600080fd5b505af1158015614f81573d6000803e3d6000fd5b505050506040513d6020811015614f9757600080fd5b81019080805190602001909291905050508573ffffffffffffffffffffffffffffffffffffffff166338d525f18b8b6040518363ffffffff167c01000000000000000000000000000000000000000000000000000000000281526004018083600019166000191681526020018273ffffffffffffffffffffffffffffffffffffffff1673ffffffffffffffffffffffffffffffffffffffff16815260200192505050602060405180830381600087803b15801561505357600080fd5b505af1158015615067573d6000803e3d6000fd5b505050506040513d602081101561507d57600080fd5b8101908080519060200190929190505050616ae190919063ffffffff16565b90508173ffffffffffffffffffffffffffffffffffffffff166350c3ff57886152888773ffffffffffffffffffffffffffffffffffffffff166338d525f18d8d6040518363ffffffff167c01000000000000000000000000000000000000000000000000000000000281526004018083600019166000191681526020018273ffffffffffffffffffffffffffffffffffffffff1673ffffffffffffffffffffffffffffffffffffffff16815260200192505050602060405180830381600087803b15801561516957600080fd5b505af115801561517d573d6000803e3d6000fd5b505050506040513d602081101561519357600080fd5b81019080805190602001909291905050508673ffffffffffffffffffffffffffffffffffffffff16635ffe02828d6040518263ffffffff167c0100000000000000000000000000000000000000000000000000000000028152600401808273ffffffffffffffffffffffffffffffffffffffff1673ffffffffffffffffffffffffffffffffffffffff168152602001915050602060405180830381600087803b15801561523f57600080fd5b505af1158015615253573d6000803e3d6000fd5b505050506040513d602081101561526957600080fd5b8101908080519060200190929190505050616ae190919063ffffffff16565b6040518363ffffffff167c0100000000000000000000000000000000000000000000000000000000028152600401808373ffffffffffffffffffffffffffffffffffffffff1673ffffffffffffffffffffffffffffffffffffffff16815260200182815260200192505050600060405180830381600087803b15801561530d57600080fd5b505af1158015615321573d6000803e3d6000fd5b505050508173ffffffffffffffffffffffffffffffffffffffff1663bd3cd5258861542a848673ffffffffffffffffffffffffffffffffffffffff16637a7664608d6040518263ffffffff167c0100000000000000000000000000000000000000000000000000000000028152600401808273ffffffffffffffffffffffffffffffffffffffff1673ffffffffffffffffffffffffffffffffffffffff168152602001915050602060405180830381600087803b1580156153e157600080fd5b505af11580156153f5573d6000803e3d6000fd5b505050506040513d602081101561540b57600080fd5b8101908080519060200190929190505050616ae190919063ffffffff16565b6040518363ffffffff167c0100000000000000000000000000000000000000000000000000000000028152600401808373ffffffffffffffffffffffffffffffffffffffff1673ffffffffffffffffffffffffffffffffffffffff16815260200182815260200192505050600060405180830381600087803b1580156154af57600080fd5b505af11580156154c3573d6000803e3d6000fd5b505050508173ffffffffffffffffffffffffffffffffffffffff1663bd3cd525876155cc848673ffffffffffffffffffffffffffffffffffffffff16637a7664608c6040518263ffffffff167c0100000000000000000000000000000000000000000000000000000000028152600401808273ffffffffffffffffffffffffffffffffffffffff1673ffffffffffffffffffffffffffffffffffffffff168152602001915050602060405180830381600087803b15801561558357600080fd5b505af1158015615597573d6000803e3d6000fd5b505050506040513d60208110156155ad57600080fd5b8101908080519060200190929190505050616b1590919063ffffffff16565b6040518363ffffffff167c0100000000000000000000000000000000000000000000000000000000028152600401808373ffffffffffffffffffffffffffffffffffffffff1673ffffffffffffffffffffffffffffffffffffffff16815260200182815260200192505050600060405180830381600087803b15801561565157600080fd5b505af1158015615665573d6000803e3d6000fd5b505050508173ffffffffffffffffffffffffffffffffffffffff166350c3ff578761576e848673ffffffffffffffffffffffffffffffffffffffff16635ffe02828c6040518263ffffffff167c0100000000000000000000000000000000000000000000000000000000028152600401808273ffffffffffffffffffffffffffffffffffffffff1673ffffffffffffffffffffffffffffffffffffffff168152602001915050602060405180830381600087803b15801561572557600080fd5b505af1158015615739573d6000803e3d6000fd5b505050506040513d602081101561574f57600080fd5b8101908080519060200190929190505050616ae190919063ffffffff16565b6040518363ffffffff167c0100000000000000000000000000000000000000000000000000000000028152600401808373ffffffffffffffffffffffffffffffffffffffff1673ffffffffffffffffffffffffffffffffffffffff16815260200182815260200192505050600060405180830381600087803b1580156157f357600080fd5b505af1158015615807573d6000803e3d6000fd5b505050508273ffffffffffffffffffffffffffffffffffffffff166357e0306a898960046040518463ffffffff167c01000000000000000000000000000000000000000000000000000000000281526004018084600019166000191681526020018373ffffffffffffffffffffffffffffffffffffffff1673ffffffffffffffffffffffffffffffffffffffff1681526020018260048111156158a657fe5b60ff1681526020019350505050600060405180830381600087803b1580156158cd57600080fd5b505af11580156158e1573d6000803e3d6000fd5b505050508273ffffffffffffffffffffffffffffffffffffffff16639163395b8989426040518463ffffffff167c01000000000000000000000000000000000000000000000000000000000281526004018084600019166000191681526020018373ffffffffffffffffffffffffffffffffffffffff1673ffffffffffffffffffffffffffffffffffffffff1681526020018281526020019350505050600060405180830381600087803b15801561599857600080fd5b505af11580156159ac573d6000803e3d6000fd5b505050507f1bbf1213e59fb773d8a3f67301ab0a75838e9d7104db9e6e51ba96d3c7a502c0888860016040518084600019166000191681526020018373ffffffffffffffffffffffffffffffffffffffff1673ffffffffffffffffffffffffffffffffffffffff16815260200182151515158152602001935050505060405180910390a15050505050505050565b6000806060600080606060008060009054906101000a900473ffffffffffffffffffffffffffffffffffffffff1673ffffffffffffffffffffffffffffffffffffffff166304433bbc6040518163ffffffff167c01000000000000000000000000000000000000000000000000000000000281526004018080602001828103825260118152602001807f4c697469676174696f6e53746f72616765000000000000000000000000000000815250602001915050602060405180830381600087803b158015615b0757600080fd5b505af1158015615b1b573d6000803e3d6000fd5b505050506040513d6020811015615b3157600080fd5b810190808051906020019092919050505095506002604051908082528060200260200182016040528015615b745781602001602082028038833980820191505090505b5094506000856000815181101515615b8857fe5b90602001906020020181815250506001856001815181101515615ba757fe5b90602001906020020181815250508573ffffffffffffffffffffffffffffffffffffffff16639f6deb218d8d6040518363ffffffff167c01000000000000000000000000000000000000000000000000000000000281526004018083600019166000191681526020018273ffffffffffffffffffffffffffffffffffffffff1673ffffffffffffffffffffffffffffffffffffffff16815260200192505050602060405180830381600087803b158015615c6057600080fd5b505af1158015615c74573d6000803e3d6000fd5b505050506040513d6020811015615c8a57600080fd5b81019080805190602001909291905050509350898673ffffffffffffffffffffffffffffffffffffffff1663348451588e8e6040518363ffffffff167c01000000000000000000000000000000000000000000000000000000000281526004018083600019166000191681526020018273ffffffffffffffffffffffffffffffffffffffff1673ffffffffffffffffffffffffffffffffffffffff16815260200192505050602060405180830381600087803b158015615d4957600080fd5b505af1158015615d5d573d6000803e3d6000fd5b505050506040513d6020811015615d7357600080fd5b81019080805190602001909291905050508773ffffffffffffffffffffffffffffffffffffffff1663e9165a3f8f8f6040518363ffffffff167c01000000000000000000000000000000000000000000000000000000000281526004018083600019166000191681526020018273ffffffffffffffffffffffffffffffffffffffff1673ffffffffffffffffffffffffffffffffffffffff16815260200192505050602060405180830381600087803b158015615e2f57600080fd5b505af1158015615e43573d6000803e3d6000fd5b505050506040513d6020811015615e5957600080fd5b810190808051906020019092919050505060405160200180846000191660001916815260200183815260200182815260200193505050506040516020818303038152906040526040518082805190602001908083835b602083101515615ed45780518252602082019150602081019050602083039250615eaf565b6001836020036101000a038019825116818451168082178552505050505050905001915050604051809103902092508573ffffffffffffffffffffffffffffffffffffffff1663954271278d8d6040518363ffffffff167c01000000000000000000000000000000000000000000000000000000000281526004018083600019166000191681526020018273ffffffffffffffffffffffffffffffffffffffff1673ffffffffffffffffffffffffffffffffffffffff16815260200192505050600060405180830381600087803b158015615fae57600080fd5b505af1158015615fc2573d6000803e3d6000fd5b505050506040513d6000823e3d601f19601f820116820180604052506020811015615fec57600080fd5b81019080805164010000000081111561600457600080fd5b8281019050602081018481111561601a57600080fd5b815185602082028301116401000000008211171561603757600080fd5b505092919050505091505b815185600081518110151561605357fe5b90602001906020020151101561641b5784600081518110151561607257fe5b9060200190602002015185600181518110151561608b57fe5b906020019060200201519060020a029050878116905060008114151561624657818560008151811015156160bb57fe5b906020019060200201518151811015156160d157fe5b90602001906020020151836040516020018083600019166000191681526020018260001916600019168152602001925050506040516020818303038152906040526040518082805190602001908083835b6020831015156161475780518252602082019150602081019050602083039250616122565b6001836020036101000a038019825116818451168082178552505050505050905001915050604051809103902092508185600081518110151561618657fe5b9060200190602002015181518110151561619c57fe5b90602001906020020151846040516020018083600019166000191681526020018260001916600019168152602001925050506040516020818303038152906040526040518082805190602001908083835b60208310151561621257805182526020820191506020810190506020830392506161ed565b6001836020036101000a038019825116818451168082178552505050505050905001915050604051809103902093506163dd565b828286600081518110151561625757fe5b9060200190602002015181518110151561626d57fe5b906020019060200201516040516020018083600019166000191681526020018260001916600019168152602001925050506040516020818303038152906040526040518082805190602001908083835b6020831015156162e257805182526020820191506020810190506020830392506162bd565b6001836020036101000a03801982511681845116808217855250505050505090500191505060405180910390209250838286600081518110151561632257fe5b9060200190602002015181518110151561633857fe5b906020019060200201516040516020018083600019166000191681526020018260001916600019168152602001925050506040516020818303038152906040526040518082805190602001908083835b6020831015156163ad5780518252602082019150602081019050602083039250616388565b6001836020036101000a038019825116818451168082178552505050505050905001915050604051809103902093505b60018560008151811015156163ee57fe5b906020019060200201510185600081518110151561640857fe5b9060200190602002018181525050616042565b88600019168460001916148061643957508860001916836000191614155b965050505050505095945050505050565b6000806000806000809054906101000a900473ffffffffffffffffffffffffffffffffffffffff1673ffffffffffffffffffffffffffffffffffffffff166304433bbc6040518163ffffffff167c010000000000000000000000000000000000000000000000000000000002815260040180806020018281038252600e8152602001807f486f6c64696e6753746f72616765000000000000000000000000000000000000815250602001915050602060405180830381600087803b15801561651157600080fd5b505af1158015616525573d6000803e3d6000fd5b505050506040513d602081101561653b57600080fd5b810190808051906020019092919050505092506000809054906101000a900473ffffffffffffffffffffffffffffffffffffffff1673ffffffffffffffffffffffffffffffffffffffff166304433bbc6040518163ffffffff167c01000000000000000000000000000000000000000000000000000000000281526004018080602001828103825260118152602001807f4c697469676174696f6e53746f72616765000000000000000000000000000000815250602001915050602060405180830381600087803b15801561660f57600080fd5b505af1158015616623573d6000803e3d6000fd5b505050506040513d602081101561663957600080fd5b810190808051906020019092919050505091508273ffffffffffffffffffffffffffffffffffffffff16636c833cf5876040518263ffffffff167c0100000000000000000000000000000000000000000000000000000000028152600401808260001916600019168152602001915050602060405180830381600087803b1580156166c357600080fd5b505af11580156166d7573d6000803e3d6000fd5b505050506040513d60208110156166ed57600080fd5b8101908080519060200190929190505050905061680a6167fb8473ffffffffffffffffffffffffffffffffffffffff1663809a05a789896040518363ffffffff167c01000000000000000000000000000000000000000000000000000000000281526004018083600019166000191681526020018273ffffffffffffffffffffffffffffffffffffffff1673ffffffffffffffffffffffffffffffffffffffff16815260200192505050602060405180830381600087803b1580156167b157600080fd5b505af11580156167c5573d6000803e3d6000fd5b505050506040513d60208110156167db57600080fd5b810190808051906020019092919050505042616ae190919063ffffffff16565b82613ec790919063ffffffff16565b90506168e36168d4603c8573ffffffffffffffffffffffffffffffffffffffff1663c2fb60968a6040518263ffffffff167c0100000000000000000000000000000000000000000000000000000000028152600401808260001916600019168152602001915050602060405180830381600087803b15801561688b57600080fd5b505af115801561689f573d6000803e3d6000fd5b505050506040513d60208110156168b557600080fd5b8101908080519060200190929190505050613ec790919063ffffffff16565b82616afa90919063ffffffff16565b90508273ffffffffffffffffffffffffffffffffffffffff166338d525f187876040518363ffffffff167c01000000000000000000000000000000000000000000000000000000000281526004018083600019166000191681526020018273ffffffffffffffffffffffffffffffffffffffff1673ffffffffffffffffffffffffffffffffffffffff16815260200192505050602060405180830381600087803b15801561699057600080fd5b505af11580156169a4573d6000803e3d6000fd5b505050506040513d60208110156169ba57600080fd5b8101908080519060200190929190505050616ac38473ffffffffffffffffffffffffffffffffffffffff1663530bde3d89896040518363ffffffff167c01000000000000000000000000000000000000000000000000000000000281526004018083600019166000191681526020018273ffffffffffffffffffffffffffffffffffffffff1673ffffffffffffffffffffffffffffffffffffffff16815260200192505050602060405180830381600087803b158015616a7957600080fd5b505af1158015616a8d573d6000803e3d6000fd5b505050506040513d6020811015616aa357600080fd5b810190808051906020019092919050505083616b1590919063ffffffff16565b101515616ad35760009350616ad8565b600193505b50505092915050565b6000828211151515616aef57fe5b818303905092915050565b6000808284811515616b0857fe5b0490508091505092915050565b6000808284019050838110151515616b2957fe5b80915050929150505600a165627a7a72305820352f2dce8fcfd9738e0dc05dae772f6a27b6e9de5560669389d21b29680f856b0029",
  "source": "pragma solidity ^0.4.25;\n\nimport {SafeMath} from \"./SafeMath.sol\";\nimport {ERC725} from './ERC725.sol';\nimport {Hub} from \"./Hub.sol\";\nimport {Holding} from \"./Holding.sol\";\nimport {Profile} from \"./Profile.sol\";\nimport {HoldingStorage} from \"./HoldingStorage.sol\";\nimport {ProfileStorage} from \"./ProfileStorage.sol\";\nimport {LitigationStorage} from \"./LitigationStorage.sol\";\n\ncontract Litigation {\n    using SafeMath for uint256;\n\n    Hub public hub;\n\n    constructor (address hubAddress) public {\n        hub = Hub(hubAddress);\n    }\n\n    function setHubAddress(address newHubAddress) public {\n        require(hub.isContract(msg.sender), \"This function can only be called by contracts or their creator!\");\n\n        hub = Hub(newHubAddress);\n    }\n\n\t/*    ----------------------------- LITIGATION -----------------------------     */\n    event LitigationInitiated(bytes32 offerId, address holderIdentity, uint requestedObjectIndex, uint requestedBlockIndex);\n    event LitigationAnswered(bytes32 offerId, address holderIdentity);\n    event LitigationTimedOut(bytes32 offerId, address holderIdentity);\n    event LitigationCompleted(bytes32 offerId, address holderIdentity, bool DH_was_penalized);\n\n    event ReplacementStarted(bytes32 offerId, address holderIdentity, address challengerIdentity, bytes32 litigationRootHash);\n\n    function initiateLitigation(bytes32 offerId, address holderIdentity, address challengerIdentity,\n        uint requestedObjectIndex, uint requestedBlockIndex, bytes32[] hashArray)\n    public returns (bool newLitigationInitiated){\n        HoldingStorage holdingStorage = HoldingStorage(hub.getContractAddress(\"HoldingStorage\"));\n        LitigationStorage litigationStorage = LitigationStorage(hub.getContractAddress(\"LitigationStorage\"));\n        require(holdingStorage.getOfferCreator(offerId) == challengerIdentity, \"Challenger identity not equal to offer creator identity!\");\n        require(ERC725(challengerIdentity).keyHasPurpose(keccak256(abi.encodePacked(msg.sender)),2), \"Sender does not have action purpose set!\");\n\n        LitigationStorage.LitigationStatus litigationStatus = litigationStorage.getLitigationStatus(offerId, holderIdentity);\n\n        uint256[] memory parameters = new uint256[](2);\n        // Set parameters[0] as timestamp\n        parameters[0] = litigationStorage.getLitigationTimestamp(offerId, holderIdentity);\n        // Set parameters[1] as the litigationIntervalInSeconds\n        parameters[1] = holdingStorage.getOfferLitigationIntervalInMinutes(offerId).mul(60);\n\n        require(litigationStatus != LitigationStorage.LitigationStatus.replacing,\n            \"The selected holder is already being replaced, cannot initiate litigation!\");\n        require(litigationStatus != LitigationStorage.LitigationStatus.replaced,\n            \"The selected holder is already replaced, cannot initiate litigation!\");\n\n        require(offerIsActive(offerId, holderIdentity),\"Cannot initiate litigation for a completed offer!\");\n\n        if(litigationStatus == LitigationStorage.LitigationStatus.initiated) {\n            require(parameters[0] + parameters[1].mul(3) < block.timestamp,\n                \"The litigation is initiated and awaiting holder response, cannot initiate another litigation!\");\n        } else if(litigationStatus == LitigationStorage.LitigationStatus.answered) {\n            require(parameters[0] + parameters[1].mul(2) < block.timestamp,\n                \"The litigation is answered and awaiting previous litigator response, cannot initiate another litigation!\");\n        } else if(litigationStatus == LitigationStorage.LitigationStatus.initiated) {\n            require(parameters[0] + parameters[1] < block.timestamp,\n                \"The litigation interval has not passed yet, cannot initiate another litigation!\");\n        }\n\n        // Write litigation information into the storage\n        litigationStorage.setLitigationLitigatorIdentity(offerId, holderIdentity, challengerIdentity);\n        litigationStorage.setLitigationRequestedObjectIndex(offerId, holderIdentity, requestedObjectIndex);\n        litigationStorage.setLitigationRequestedBlockIndex(offerId, holderIdentity, requestedBlockIndex);\n        litigationStorage.setLitigationHashArray(offerId, holderIdentity, hashArray);\n\n        litigationStorage.setLitigationStatus(offerId, holderIdentity, LitigationStorage.LitigationStatus.initiated);\n        litigationStorage.setLitigationTimestamp(offerId, holderIdentity, block.timestamp);\n\n        emit LitigationInitiated(offerId, holderIdentity, requestedObjectIndex, requestedBlockIndex);\n        return true;\n    }\n\n    function answerLitigation(bytes32 offerId, address holderIdentity, bytes32 requestedData)\n    public returns (bool answer_accepted){\n        HoldingStorage holdingStorage = HoldingStorage(hub.getContractAddress(\"HoldingStorage\"));\n        LitigationStorage litigationStorage = LitigationStorage(hub.getContractAddress(\"LitigationStorage\"));\n        require(ERC725(holderIdentity).keyHasPurpose(keccak256(abi.encodePacked(msg.sender)),2), \"Sender does not have action purpose set!\");\n\n        LitigationStorage.LitigationStatus litigationStatus = litigationStorage.getLitigationStatus(offerId, holderIdentity);\n\n        require(litigationStatus == LitigationStorage.LitigationStatus.initiated,\n            \"Litigation status is not set to initiated, cannot send answer!\");\n        require(litigationStorage.getLitigationTimestamp(offerId, holderIdentity) + holdingStorage.getOfferLitigationIntervalInMinutes(offerId).mul(60) >= block.timestamp,\n            \"The interval for answering has passed, cannot answer litigation!\");\n\n        // Write answer data into the hash\n        litigationStorage.setLitigationRequestedData(\n            offerId,\n            holderIdentity,\n            keccak256(abi.encodePacked(\n                requestedData,\n                litigationStorage.getLitigationRequestedObjectIndex(offerId, holderIdentity),\n                litigationStorage.getLitigationRequestedBlockIndex(offerId, holderIdentity)\n            ))\n        );\n\n        litigationStorage.setLitigationStatus(offerId, holderIdentity, LitigationStorage.LitigationStatus.answered);\n        litigationStorage.setLitigationTimestamp(offerId, holderIdentity, block.timestamp);\n\n        emit LitigationAnswered(offerId, holderIdentity);\n        return true;\n    }\n\n    function completeLitigation(bytes32 offerId, address holderIdentity, address litigatorIdentity, bytes32 proofData, uint256 leafIndex)\n    public returns (bool DH_was_penalized){\n        HoldingStorage holdingStorage = HoldingStorage(hub.getContractAddress(\"HoldingStorage\"));\n        LitigationStorage litigationStorage = LitigationStorage(hub.getContractAddress(\"LitigationStorage\"));\n        ProfileStorage profileStorage = ProfileStorage(hub.getContractAddress(\"ProfileStorage\"));\n\n        require(holdingStorage.getOfferCreator(offerId) == litigatorIdentity, \"Challenger identity not equal to offer creator identity!\");\n        require(ERC725(litigatorIdentity).keyHasPurpose(keccak256(abi.encodePacked(msg.sender)),2), \"Sender does not have action purpose set!\");\n        require(litigationStorage.getLitigationLitigatorIdentity(offerId, holderIdentity) == litigatorIdentity, \"Litigation can only be completed by the litigator who initiated the litigation!\");\n\n        uint256[] memory parameters = new uint256[](4);\n\n        // set parameters[0] as the last litigation timestamp\n        parameters[0] = litigationStorage.getLitigationTimestamp(offerId, holderIdentity);\n        // set parameters[1] as the litigation interval in seconds\n        parameters[1] = holdingStorage.getOfferLitigationIntervalInMinutes(offerId).mul(60);\n\n       \tLitigationStorage.LitigationStatus litigationStatus = litigationStorage.getLitigationStatus(offerId, holderIdentity);\n\n        require(litigationStatus != LitigationStorage.LitigationStatus.replacing,\n            \"The selected holder is already being replaced, cannot call this function!\");\n        require(litigationStatus != LitigationStorage.LitigationStatus.replaced,\n            \"The selected holder is already replaced, cannot call this function!\");\n        require(litigationStatus != LitigationStorage.LitigationStatus.completed,\n            \"Cannot complete a completed litigation that is not initiated or answered!\");\n\n        if(holdingStorage.getHolderLitigationEncryptionType(offerId, holderIdentity) == 0){\n            parameters[3] = uint256(holdingStorage.getOfferRedLitigationHash(offerId));\n        } else if (holdingStorage.getHolderLitigationEncryptionType(offerId, holderIdentity) == 1) {\n            parameters[3] = uint256(holdingStorage.getOfferGreenLitigationHash(offerId));\n        } else {\n            parameters[3] = uint256(holdingStorage.getOfferBlueLitigationHash(offerId));\n        }\n\n        if(litigationStatus == LitigationStorage.LitigationStatus.initiated) {\n            // Litigator claims that the DH is inactive\n            // Verify that the asnwer window has passes and that the completion window has not passed\n            require(parameters[0] + parameters[1].mul(2) >= block.timestamp,\n                \"The time window for completing the unanswered litigation has passed!\");\n            require(parameters[0] + parameters[1] < block.timestamp,\n                \"The answer window has not passed, cannot complete litigation yet!\");\n\n            // DH is considered inactive, replace him regardless of the proofData\n            startReplacement(offerId, holderIdentity, litigatorIdentity, parameters[3]);\n            return true;\n        }\n\n        // The litigation status is answered, verify that the completion is happening during the completion time frame\n        require(parameters[0] + parameters[1] >= block.timestamp,\n           \"The time window for completing the answered litigation has passed!\");\n\n\n        if(calculateMerkleTrees(offerId, holderIdentity, proofData, bytes32(parameters[3]), leafIndex)) {\n            // DH has the reRquested data -> Set litigation as completed, no transfer of tokens\n            litigationStorage.setLitigationStatus(offerId, holderIdentity, LitigationStorage.LitigationStatus.completed);\n            litigationStorage.setLitigationTimestamp(offerId, holderIdentity, block.timestamp);\n\n            emit LitigationCompleted(offerId, holderIdentity, false);\n            return false;\n        }\n        else {\n            // DH didn't have the requested data, and the litigation was valid\n            startReplacement(offerId, holderIdentity, litigatorIdentity, parameters[3]);\n            return true;\n        }\n    }\n\n    function startReplacement(bytes32 offerId, address holderIdentity, address litigatorIdentity, uint256 litigationRootHash) internal {\n        HoldingStorage holdingStorage = HoldingStorage(hub.getContractAddress(\"HoldingStorage\"));\n        LitigationStorage litigationStorage = LitigationStorage(hub.getContractAddress(\"LitigationStorage\"));\n        ProfileStorage profileStorage = ProfileStorage(hub.getContractAddress(\"ProfileStorage\"));\n\n        // Pay the previous holder\n        uint256 amountToTransfer = holdingStorage.getOfferTokenAmountPerHolder(offerId);\n        // Multiply the tokenAmountPerHolder by the time the the holder held the data\n        amountToTransfer = amountToTransfer.mul(litigationStorage.getLitigationTimestamp(offerId, holderIdentity).sub(holdingStorage.getHolderPaymentTimestamp(offerId, holderIdentity)));\n        // Divide the tokenAmountPerHolder by the total time\n        amountToTransfer = amountToTransfer.div(holdingStorage.getOfferHoldingTimeInMinutes(offerId).mul(60));\n\n        require(holdingStorage.getHolderPaidAmount(offerId, holderIdentity).add(amountToTransfer) < holdingStorage.getHolderStakedAmount(offerId, holderIdentity),\n            \"Holder considered to successfully completed offer, cannot complete litigation!\");\n\n        // Pay the previous holder\n            // Increase previous holder Stake\n        profileStorage.setStake(holderIdentity, profileStorage.getStake(holderIdentity).add(amountToTransfer));\n            // Decrease offer creator Stake\n        profileStorage.setStake(litigatorIdentity, profileStorage.getStake(litigatorIdentity).sub(amountToTransfer));\n            // Decrease offer creator Stake reserved\n        profileStorage.setStakeReserved(litigatorIdentity, profileStorage.getStakeReserved(litigatorIdentity).sub(amountToTransfer));\n            // Set previous holder paid amount\n        holdingStorage.setHolderPaidAmount(\n            offerId,\n            holderIdentity,\n            holdingStorage.getHolderPaidAmount(offerId, holderIdentity).add(amountToTransfer)\n        );\n\n        // Calculate the remaining amount of tokens\n        amountToTransfer = holdingStorage.getHolderStakedAmount(offerId, holderIdentity).sub(holdingStorage.getHolderPaidAmount(offerId, holderIdentity));\n\n        // Unlock previous holder stake\n        profileStorage.setStakeReserved(\n            holderIdentity,\n            profileStorage.getStakeReserved(holderIdentity).sub(holdingStorage.getHolderStakedAmount(offerId, holderIdentity))\n        );\n\n        // Give the offer creator the reward for litigation\n            // Decrease previous holder Stake\n        profileStorage.setStake(holderIdentity, profileStorage.getStake(holderIdentity).sub(amountToTransfer));\n            // Increase offer creator Stake\n        profileStorage.setStake(litigatorIdentity, profileStorage.getStake(litigatorIdentity).add(amountToTransfer));\n\n        // Unlock offer creator's remaining tokens reserved for payment\n        profileStorage.setStakeReserved(litigatorIdentity, profileStorage.getStakeReserved(litigatorIdentity).sub(amountToTransfer));\n\n        litigationStorage.setLitigationStatus(offerId, holderIdentity, LitigationStorage.LitigationStatus.replaced);\n        litigationStorage.setLitigationTimestamp(offerId, holderIdentity, block.timestamp);\n\n        emit LitigationCompleted(offerId, holderIdentity, true);\n    }\n\n    function offerIsActive(bytes32 offerId, address holderIdentity)\n    internal view returns (bool offerIsActive) {\n        HoldingStorage holdingStorage = HoldingStorage(hub.getContractAddress(\"HoldingStorage\"));\n        LitigationStorage litigationStorage = LitigationStorage(hub.getContractAddress(\"LitigationStorage\"));\n\n        // Pay the previous holder\n        uint256 amountToTransfer = holdingStorage.getOfferTokenAmountPerHolder(offerId);\n        // Multiply the tokenAmountPerHolder by the time the the holder held the data\n        amountToTransfer = amountToTransfer.mul((block.timestamp).sub(holdingStorage.getHolderPaymentTimestamp(offerId, holderIdentity)));\n        // Divide the tokenAmountPerHolder by the total time\n        amountToTransfer = amountToTransfer.div(holdingStorage.getOfferHoldingTimeInMinutes(offerId).mul(60));\n\n        if (amountToTransfer.add(holdingStorage.getHolderPaidAmount(bytes32(offerId), holderIdentity))\n            >= holdingStorage.getHolderStakedAmount(bytes32(offerId), holderIdentity)) {\n            return false;\n        } else {\n            return true;\n        }\n\n    }\n\n    function calculateMerkleTrees(bytes32 offerId, address holderIdentity, bytes32 proofData, bytes32 litigationRootHash, uint256 leafIndex)\n    internal returns (bool DHAnsweredCorrectly) {\n        LitigationStorage litigationStorage = LitigationStorage(hub.getContractAddress(\"LitigationStorage\"));\n\n\n        uint256[] memory parameters = new uint256[](2);\n        // set parameters[0] as the index\n        parameters[0] = 0;\n        // set parameters[1] as a basic bit for masking\n        parameters[1] = 1;\n        bytes32 answerHash = litigationStorage.getLitigationRequestedData(offerId, holderIdentity);\n        bytes32 proofHash = keccak256(abi.encodePacked(\n            proofData,\n            litigationStorage.getLitigationRequestedObjectIndex(offerId, holderIdentity),\n            litigationStorage.getLitigationRequestedBlockIndex(offerId, holderIdentity)\n        ));\n        bytes32[] memory hashArray = litigationStorage.getLitigationHashArray(offerId, holderIdentity);\n\n        // ako je bit 1 on je levo\n        while (parameters[0] < hashArray.length){\n            uint256 selectedBit = parameters[1] << parameters[0];\n            selectedBit = selectedBit & leafIndex;\n            if(selectedBit != 0) {\n                proofHash = keccak256(abi.encodePacked(hashArray[parameters[0]], proofHash));\n                answerHash = keccak256(abi.encodePacked(hashArray[parameters[0]], answerHash));\n            }\n            else {\n                proofHash = keccak256(abi.encodePacked(proofHash, hashArray[parameters[0]]));\n                answerHash = keccak256(abi.encodePacked(answerHash, hashArray[parameters[0]]));\n            }\n            parameters[0] = parameters[0] + 1;\n        }\n        return (answerHash == litigationRootHash || proofHash != litigationRootHash);\n    }\n\n    function logs2(uint x) internal pure returns (uint y){\n        require(x > 0, \"log(0) not allowed\");\n        assembly {\n            let arg := x\n            x := sub(x,1)\n            x := or(x, div(x, 0x02))\n            x := or(x, div(x, 0x04))\n            x := or(x, div(x, 0x10))\n            x := or(x, div(x, 0x100))\n            x := or(x, div(x, 0x10000))\n            x := or(x, div(x, 0x100000000))\n            x := or(x, div(x, 0x10000000000000000))\n            x := or(x, div(x, 0x100000000000000000000000000000000))\n            x := add(x, 1)\n            let m := mload(0x40)\n            mstore(m,           0xf8f9cbfae6cc78fbefe7cdc3a1793dfcf4f0e8bbd8cec470b6a28a7a5a3e1efd)\n            mstore(add(m,0x20), 0xf5ecf1b3e9debc68e1d9cfabc5997135bfb7a7a3938b7b606b5b4b3f2f1f0ffe)\n            mstore(add(m,0x40), 0xf6e4ed9ff2d6b458eadcdf97bd91692de2d4da8fd2d0ac50c6ae9a8272523616)\n            mstore(add(m,0x60), 0xc8c0b887b0a8a4489c948c7f847c6125746c645c544c444038302820181008ff)\n            mstore(add(m,0x80), 0xf7cae577eec2a03cf3bad76fb589591debb2dd67e0aa9834bea6925f6a4a2e0e)\n            mstore(add(m,0xa0), 0xe39ed557db96902cd38ed14fad815115c786af479b7e83247363534337271707)\n            mstore(add(m,0xc0), 0xc976c13bb96e881cb166a933a55e490d9d56952b8d4e801485467d2362422606)\n            mstore(add(m,0xe0), 0x753a6d1b65325d0c552a4d1345224105391a310b29122104190a110309020100)\n            mstore(0x40, add(m, 0x100))\n            let magic := 0x818283848586878898a8b8c8d8e8f929395969799a9b9d9e9faaeb6bedeeff\n            let shift := 0x100000000000000000000000000000000000000000000000000000000000000\n            let a := div(mul(x, magic), shift)\n            y := div(mload(add(m,sub(255,a))), shift)\n            y := add(y, mul(256, gt(arg, 0x8000000000000000000000000000000000000000000000000000000000000000)))\n        }\n    }\n}",
  "sourcePath": "/Users/uroskukic/Documents/Projects/Starfleet/builders-demo/truffle/contracts/Litigation.sol",
  "compiler": {
    "name": "solc",
    "version": "0.4.26+commit.4563c3fc.Emscripten.clang"
  },
  "schemaVersion": "3.3.3",
  "updatedAt": "2021-01-28T12:36:03.914Z",
  "devdoc": {
    "methods": {}
  },
  "userdoc": {
    "methods": {}
  }
}