{
  "contractName": "MarketplaceStorage",
  "abi": [
    {
      "constant": true,
      "inputs": [],
      "name": "hub",
      "outputs": [
        {
          "name": "",
          "type": "address"
        }
      ],
      "payable": false,
      "stateMutability": "view",
      "type": "function"
    },
    {
      "constant": true,
      "inputs": [
        {
          "name": "",
          "type": "bytes32"
        }
      ],
      "name": "purchase",
      "outputs": [
        {
          "name": "seller",
          "type": "address"
        },
        {
          "name": "buyer",
          "type": "address"
        },
        {
          "name": "price",
          "type": "uint256"
        },
        {
          "name": "key",
          "type": "bytes32"
        },
        {
          "name": "timestamp",
          "type": "uint256"
        },
        {
          "name": "originalDataRootHash",
          "type": "bytes32"
        },
        {
          "name": "encodedDataRootHash",
          "type": "bytes32"
        },
        {
          "name": "stage",
          "type": "uint8"
        }
      ],
      "payable": false,
      "stateMutability": "view",
      "type": "function"
    },
    {
      "inputs": [
        {
          "name": "hubAddress",
          "type": "address"
        }
      ],
      "payable": false,
      "stateMutability": "nonpayable",
      "type": "constructor"
    },
    {
      "constant": false,
      "inputs": [
        {
          "name": "newHubAddress",
          "type": "address"
        }
      ],
      "name": "setHubAddress",
      "outputs": [],
      "payable": false,
      "stateMutability": "nonpayable",
      "type": "function"
    },
    {
      "constant": false,
      "inputs": [
        {
          "name": "purchaseId",
          "type": "bytes32"
        },
        {
          "name": "sellerAddress",
          "type": "address"
        }
      ],
      "name": "setSeller",
      "outputs": [],
      "payable": false,
      "stateMutability": "nonpayable",
      "type": "function"
    },
    {
      "constant": true,
      "inputs": [
        {
          "name": "purchaseId",
          "type": "bytes32"
        }
      ],
      "name": "getSeller",
      "outputs": [
        {
          "name": "seller",
          "type": "address"
        }
      ],
      "payable": false,
      "stateMutability": "view",
      "type": "function"
    },
    {
      "constant": false,
      "inputs": [
        {
          "name": "purchaseId",
          "type": "bytes32"
        },
        {
          "name": "buyerAddress",
          "type": "address"
        }
      ],
      "name": "setBuyer",
      "outputs": [],
      "payable": false,
      "stateMutability": "nonpayable",
      "type": "function"
    },
    {
      "constant": true,
      "inputs": [
        {
          "name": "purchaseId",
          "type": "bytes32"
        }
      ],
      "name": "getBuyer",
      "outputs": [
        {
          "name": "buyer",
          "type": "address"
        }
      ],
      "payable": false,
      "stateMutability": "view",
      "type": "function"
    },
    {
      "constant": false,
      "inputs": [
        {
          "name": "purchaseId",
          "type": "bytes32"
        },
        {
          "name": "price",
          "type": "uint256"
        }
      ],
      "name": "setPrice",
      "outputs": [],
      "payable": false,
      "stateMutability": "nonpayable",
      "type": "function"
    },
    {
      "constant": true,
      "inputs": [
        {
          "name": "purchaseId",
          "type": "bytes32"
        }
      ],
      "name": "getPrice",
      "outputs": [
        {
          "name": "price",
          "type": "uint256"
        }
      ],
      "payable": false,
      "stateMutability": "view",
      "type": "function"
    },
    {
      "constant": false,
      "inputs": [
        {
          "name": "purchaseId",
          "type": "bytes32"
        },
        {
          "name": "key",
          "type": "bytes32"
        }
      ],
      "name": "setKey",
      "outputs": [],
      "payable": false,
      "stateMutability": "nonpayable",
      "type": "function"
    },
    {
      "constant": true,
      "inputs": [
        {
          "name": "purchaseId",
          "type": "bytes32"
        }
      ],
      "name": "getKey",
      "outputs": [
        {
          "name": "key",
          "type": "bytes32"
        }
      ],
      "payable": false,
      "stateMutability": "view",
      "type": "function"
    },
    {
      "constant": false,
      "inputs": [
        {
          "name": "purchaseId",
          "type": "bytes32"
        },
        {
          "name": "timestamp",
          "type": "uint256"
        }
      ],
      "name": "setTimestamp",
      "outputs": [],
      "payable": false,
      "stateMutability": "nonpayable",
      "type": "function"
    },
    {
      "constant": true,
      "inputs": [
        {
          "name": "purchaseId",
          "type": "bytes32"
        }
      ],
      "name": "getTimestamp",
      "outputs": [
        {
          "name": "timestamp",
          "type": "uint256"
        }
      ],
      "payable": false,
      "stateMutability": "view",
      "type": "function"
    },
    {
      "constant": false,
      "inputs": [
        {
          "name": "purchaseId",
          "type": "bytes32"
        },
        {
          "name": "originalDataRootHash",
          "type": "bytes32"
        }
      ],
      "name": "setOriginalDataRootHash",
      "outputs": [],
      "payable": false,
      "stateMutability": "nonpayable",
      "type": "function"
    },
    {
      "constant": true,
      "inputs": [
        {
          "name": "purchaseId",
          "type": "bytes32"
        }
      ],
      "name": "getOriginalDataRootHash",
      "outputs": [
        {
          "name": "originalDataRootHash",
          "type": "bytes32"
        }
      ],
      "payable": false,
      "stateMutability": "view",
      "type": "function"
    },
    {
      "constant": false,
      "inputs": [
        {
          "name": "purchaseId",
          "type": "bytes32"
        },
        {
          "name": "encodedDataRootHash",
          "type": "bytes32"
        }
      ],
      "name": "setEncodedDataRootHash",
      "outputs": [],
      "payable": false,
      "stateMutability": "nonpayable",
      "type": "function"
    },
    {
      "constant": true,
      "inputs": [
        {
          "name": "purchaseId",
          "type": "bytes32"
        }
      ],
      "name": "getEncodedDataRootHash",
      "outputs": [
        {
          "name": "encodedDataRootHash",
          "type": "bytes32"
        }
      ],
      "payable": false,
      "stateMutability": "view",
      "type": "function"
    },
    {
      "constant": false,
      "inputs": [
        {
          "name": "purchaseId",
          "type": "bytes32"
        },
        {
          "name": "stage",
          "type": "uint256"
        }
      ],
      "name": "setStage",
      "outputs": [],
      "payable": false,
      "stateMutability": "nonpayable",
      "type": "function"
    },
    {
      "constant": true,
      "inputs": [
        {
          "name": "purchaseId",
          "type": "bytes32"
        }
      ],
      "name": "getStage",
      "outputs": [
        {
          "name": "stage",
          "type": "uint256"
        }
      ],
      "payable": false,
      "stateMutability": "view",
      "type": "function"
    }
  ],
  "bytecode": "0x608060405234801561001057600080fd5b50604051602080611af683398101806040528101908080519060200190929190505050600073ffffffffffffffffffffffffffffffffffffffff168173ffffffffffffffffffffffffffffffffffffffff161415151561006f57600080fd5b806000806101000a81548173ffffffffffffffffffffffffffffffffffffffff021916908373ffffffffffffffffffffffffffffffffffffffff16021790555050611a37806100bf6000396000f300608060405260043610610107576000357c0100000000000000000000000000000000000000000000000000000000900463ffffffff16806305f28db81461010c57806307a003301461015957806310d8d74d1461019857806312aaac70146101d3578063307437261461022057806331d98b3f1461025b578063365a86fc146102a0578063751b64fa146102f75780637e44e5041461033657806387cc5a1c146103a757806396bf399c14610418578063ab32e56914610469578063ae844f74146104b6578063b5d8e518146104fb578063bfc73cfd1461053a578063c7eb452214610575578063cc445611146105b8578063d45c4435146106ac578063f3d0da7d146106f1575b600080fd5b34801561011857600080fd5b5061013b6004803603810190808035600019169060200190929190505050610742565b60405180826000191660001916815260200191505060405180910390f35b34801561016557600080fd5b506101966004803603810190808035600019169060200190929190803560001916906020019092919050505061076a565b005b3480156101a457600080fd5b506101d1600480360381019080803560001916906020019092919080359060200190929190505050610926565b005b3480156101df57600080fd5b506102026004803603810190808035600019169060200190929190505050610ade565b60405180826000191660001916815260200191505060405180910390f35b34801561022c57600080fd5b50610259600480360381019080803560001916906020019092919080359060200190929190505050610b06565b005b34801561026757600080fd5b5061028a6004803603810190808035600019169060200190929190505050610cbe565b6040518082815260200191505060405180910390f35b3480156102ac57600080fd5b506102b5610ce6565b604051808273ffffffffffffffffffffffffffffffffffffffff1673ffffffffffffffffffffffffffffffffffffffff16815260200191505060405180910390f35b34801561030357600080fd5b5061033460048036038101908080356000191690602001909291908035600019169060200190929190505050610d0b565b005b34801561034257600080fd5b506103656004803603810190808035600019169060200190929190505050610ec7565b604051808273ffffffffffffffffffffffffffffffffffffffff1673ffffffffffffffffffffffffffffffffffffffff16815260200191505060405180910390f35b3480156103b357600080fd5b506103d66004803603810190808035600019169060200190929190505050610f0f565b604051808273ffffffffffffffffffffffffffffffffffffffff1673ffffffffffffffffffffffffffffffffffffffff16815260200191505060405180910390f35b34801561042457600080fd5b506104676004803603810190808035600019169060200190929190803573ffffffffffffffffffffffffffffffffffffffff169060200190929190505050610f57565b005b34801561047557600080fd5b506104986004803603810190808035600019169060200190929190505050611149565b60405180826000191660001916815260200191505060405180910390f35b3480156104c257600080fd5b506104e56004803603810190808035600019169060200190929190505050611171565b6040518082815260200191505060405180910390f35b34801561050757600080fd5b50610538600480360381019080803560001916906020019092919080356000191690602001909291905050506111b1565b005b34801561054657600080fd5b5061057360048036038101908080356000191690602001909291908035906020019092919050505061136d565b005b34801561058157600080fd5b506105b6600480360381019080803573ffffffffffffffffffffffffffffffffffffffff16906020019092919050505061154c565b005b3480156105c457600080fd5b506105e7600480360381019080803560001916906020019092919050505061175c565b604051808973ffffffffffffffffffffffffffffffffffffffff1673ffffffffffffffffffffffffffffffffffffffff1681526020018873ffffffffffffffffffffffffffffffffffffffff1673ffffffffffffffffffffffffffffffffffffffff16815260200187815260200186600019166000191681526020018581526020018460001916600019168152602001836000191660001916815260200182600381111561069157fe5b60ff1681526020019850505050505050505060405180910390f35b3480156106b857600080fd5b506106db60048036038101908080356000191690602001909291905050506117f1565b6040518082815260200191505060405180910390f35b3480156106fd57600080fd5b506107406004803603810190808035600019169060200190929190803573ffffffffffffffffffffffffffffffffffffffff169060200190929190505050611819565b005b6000600160008360001916600019168152602001908152602001600020600501549050919050565b6000809054906101000a900473ffffffffffffffffffffffffffffffffffffffff1673ffffffffffffffffffffffffffffffffffffffff166316279055336040518263ffffffff167c0100000000000000000000000000000000000000000000000000000000028152600401808273ffffffffffffffffffffffffffffffffffffffff1673ffffffffffffffffffffffffffffffffffffffff168152602001915050602060405180830381600087803b15801561082657600080fd5b505af115801561083a573d6000803e3d6000fd5b505050506040513d602081101561085057600080fd5b810190808051906020019092919050505015156108fb576040517f08c379a00000000000000000000000000000000000000000000000000000000081526004018080602001828103825260298152602001807f46756e6374696f6e2063616e206f6e6c792062652063616c6c6564206279206381526020017f6f6e74726163747321000000000000000000000000000000000000000000000081525060400191505060405180910390fd5b8060016000846000191660001916815260200190815260200160002060030181600019169055505050565b6000809054906101000a900473ffffffffffffffffffffffffffffffffffffffff1673ffffffffffffffffffffffffffffffffffffffff166316279055336040518263ffffffff167c0100000000000000000000000000000000000000000000000000000000028152600401808273ffffffffffffffffffffffffffffffffffffffff1673ffffffffffffffffffffffffffffffffffffffff168152602001915050602060405180830381600087803b1580156109e257600080fd5b505af11580156109f6573d6000803e3d6000fd5b505050506040513d6020811015610a0c57600080fd5b81019080805190602001909291905050501515610ab7576040517f08c379a00000000000000000000000000000000000000000000000000000000081526004018080602001828103825260298152602001807f46756e6374696f6e2063616e206f6e6c792062652063616c6c6564206279206381526020017f6f6e74726163747321000000000000000000000000000000000000000000000081525060400191505060405180910390fd5b80600160008460001916600019168152602001908152602001600020600201819055505050565b6000600160008360001916600019168152602001908152602001600020600301549050919050565b6000809054906101000a900473ffffffffffffffffffffffffffffffffffffffff1673ffffffffffffffffffffffffffffffffffffffff166316279055336040518263ffffffff167c0100000000000000000000000000000000000000000000000000000000028152600401808273ffffffffffffffffffffffffffffffffffffffff1673ffffffffffffffffffffffffffffffffffffffff168152602001915050602060405180830381600087803b158015610bc257600080fd5b505af1158015610bd6573d6000803e3d6000fd5b505050506040513d6020811015610bec57600080fd5b81019080805190602001909291905050501515610c97576040517f08c379a00000000000000000000000000000000000000000000000000000000081526004018080602001828103825260298152602001807f46756e6374696f6e2063616e206f6e6c792062652063616c6c6564206279206381526020017f6f6e74726163747321000000000000000000000000000000000000000000000081525060400191505060405180910390fd5b80600160008460001916600019168152602001908152602001600020600401819055505050565b6000600160008360001916600019168152602001908152602001600020600201549050919050565b6000809054906101000a900473ffffffffffffffffffffffffffffffffffffffff1681565b6000809054906101000a900473ffffffffffffffffffffffffffffffffffffffff1673ffffffffffffffffffffffffffffffffffffffff166316279055336040518263ffffffff167c0100000000000000000000000000000000000000000000000000000000028152600401808273ffffffffffffffffffffffffffffffffffffffff1673ffffffffffffffffffffffffffffffffffffffff168152602001915050602060405180830381600087803b158015610dc757600080fd5b505af1158015610ddb573d6000803e3d6000fd5b505050506040513d6020811015610df157600080fd5b81019080805190602001909291905050501515610e9c576040517f08c379a00000000000000000000000000000000000000000000000000000000081526004018080602001828103825260298152602001807f46756e6374696f6e2063616e206f6e6c792062652063616c6c6564206279206381526020017f6f6e74726163747321000000000000000000000000000000000000000000000081525060400191505060405180910390fd5b8060016000846000191660001916815260200190815260200160002060050181600019169055505050565b600060016000836000191660001916815260200190815260200160002060000160009054906101000a900473ffffffffffffffffffffffffffffffffffffffff169050919050565b600060016000836000191660001916815260200190815260200160002060010160009054906101000a900473ffffffffffffffffffffffffffffffffffffffff169050919050565b6000809054906101000a900473ffffffffffffffffffffffffffffffffffffffff1673ffffffffffffffffffffffffffffffffffffffff166316279055336040518263ffffffff167c0100000000000000000000000000000000000000000000000000000000028152600401808273ffffffffffffffffffffffffffffffffffffffff1673ffffffffffffffffffffffffffffffffffffffff168152602001915050602060405180830381600087803b15801561101357600080fd5b505af1158015611027573d6000803e3d6000fd5b505050506040513d602081101561103d57600080fd5b810190808051906020019092919050505015156110e8576040517f08c379a00000000000000000000000000000000000000000000000000000000081526004018080602001828103825260298152602001807f46756e6374696f6e2063616e206f6e6c792062652063616c6c6564206279206381526020017f6f6e74726163747321000000000000000000000000000000000000000000000081525060400191505060405180910390fd5b8060016000846000191660001916815260200190815260200160002060000160006101000a81548173ffffffffffffffffffffffffffffffffffffffff021916908373ffffffffffffffffffffffffffffffffffffffff1602179055505050565b6000600160008360001916600019168152602001908152602001600020600601549050919050565b600060016000836000191660001916815260200190815260200160002060070160009054906101000a900460ff1660038111156111aa57fe5b9050919050565b6000809054906101000a900473ffffffffffffffffffffffffffffffffffffffff1673ffffffffffffffffffffffffffffffffffffffff166316279055336040518263ffffffff167c0100000000000000000000000000000000000000000000000000000000028152600401808273ffffffffffffffffffffffffffffffffffffffff1673ffffffffffffffffffffffffffffffffffffffff168152602001915050602060405180830381600087803b15801561126d57600080fd5b505af1158015611281573d6000803e3d6000fd5b505050506040513d602081101561129757600080fd5b81019080805190602001909291905050501515611342576040517f08c379a00000000000000000000000000000000000000000000000000000000081526004018080602001828103825260298152602001807f46756e6374696f6e2063616e206f6e6c792062652063616c6c6564206279206381526020017f6f6e74726163747321000000000000000000000000000000000000000000000081525060400191505060405180910390fd5b8060016000846000191660001916815260200190815260200160002060060181600019169055505050565b6000809054906101000a900473ffffffffffffffffffffffffffffffffffffffff1673ffffffffffffffffffffffffffffffffffffffff166316279055336040518263ffffffff167c0100000000000000000000000000000000000000000000000000000000028152600401808273ffffffffffffffffffffffffffffffffffffffff1673ffffffffffffffffffffffffffffffffffffffff168152602001915050602060405180830381600087803b15801561142957600080fd5b505af115801561143d573d6000803e3d6000fd5b505050506040513d602081101561145357600080fd5b810190808051906020019092919050505015156114fe576040517f08c379a00000000000000000000000000000000000000000000000000000000081526004018080602001828103825260298152602001807f46756e6374696f6e2063616e206f6e6c792062652063616c6c6564206279206381526020017f6f6e74726163747321000000000000000000000000000000000000000000000081525060400191505060405180910390fd5b80600381111561150a57fe5b60016000846000191660001916815260200190815260200160002060070160006101000a81548160ff0219169083600381111561154357fe5b02179055505050565b6000809054906101000a900473ffffffffffffffffffffffffffffffffffffffff1673ffffffffffffffffffffffffffffffffffffffff166316279055336040518263ffffffff167c0100000000000000000000000000000000000000000000000000000000028152600401808273ffffffffffffffffffffffffffffffffffffffff1673ffffffffffffffffffffffffffffffffffffffff168152602001915050602060405180830381600087803b15801561160857600080fd5b505af115801561161c573d6000803e3d6000fd5b505050506040513d602081101561163257600080fd5b810190808051906020019092919050505015156116dd576040517f08c379a00000000000000000000000000000000000000000000000000000000081526004018080602001828103825260298152602001807f46756e6374696f6e2063616e206f6e6c792062652063616c6c6564206279206381526020017f6f6e74726163747321000000000000000000000000000000000000000000000081525060400191505060405180910390fd5b600073ffffffffffffffffffffffffffffffffffffffff168173ffffffffffffffffffffffffffffffffffffffff161415151561171957600080fd5b806000806101000a81548173ffffffffffffffffffffffffffffffffffffffff021916908373ffffffffffffffffffffffffffffffffffffffff16021790555050565b60016020528060005260406000206000915090508060000160009054906101000a900473ffffffffffffffffffffffffffffffffffffffff16908060010160009054906101000a900473ffffffffffffffffffffffffffffffffffffffff16908060020154908060030154908060040154908060050154908060060154908060070160009054906101000a900460ff16905088565b6000600160008360001916600019168152602001908152602001600020600401549050919050565b6000809054906101000a900473ffffffffffffffffffffffffffffffffffffffff1673ffffffffffffffffffffffffffffffffffffffff166316279055336040518263ffffffff167c0100000000000000000000000000000000000000000000000000000000028152600401808273ffffffffffffffffffffffffffffffffffffffff1673ffffffffffffffffffffffffffffffffffffffff168152602001915050602060405180830381600087803b1580156118d557600080fd5b505af11580156118e9573d6000803e3d6000fd5b505050506040513d60208110156118ff57600080fd5b810190808051906020019092919050505015156119aa576040517f08c379a00000000000000000000000000000000000000000000000000000000081526004018080602001828103825260298152602001807f46756e6374696f6e2063616e206f6e6c792062652063616c6c6564206279206381526020017f6f6e74726163747321000000000000000000000000000000000000000000000081525060400191505060405180910390fd5b8060016000846000191660001916815260200190815260200160002060010160006101000a81548173ffffffffffffffffffffffffffffffffffffffff021916908373ffffffffffffffffffffffffffffffffffffffff16021790555050505600a165627a7a7230582030b034a1bcb772af7b909caec88daed5c656fa0e565c303da126905071d86df40029",
  "source": "pragma solidity ^0.4.0;\n\nimport './Hub.sol';\n\ncontract MarketplaceStorage {\n    Hub public hub;\n\n    modifier onlyContracts(){\n        require(hub.isContract(msg.sender),\n            \"Function can only be called by contracts!\");\n        _;\n    }\n\n    constructor(address hubAddress) public {\n        require(hubAddress != address(0));\n        hub = Hub(hubAddress);\n    }\n\n    function setHubAddress(address newHubAddress)\n    public onlyContracts {\n        require(newHubAddress != address(0));\n        hub = Hub(newHubAddress);\n    }\n\n    enum StageDefinition {created, initialized, keyDeposited, finished}\n\n    struct PurchaseDefinition{\n        address seller;\n        address buyer;\n        uint256 price;\n        bytes32 key;\n        uint256 timestamp;\n        bytes32 originalDataRootHash;\n        bytes32 encodedDataRootHash;\n        StageDefinition stage;\n    }\n    mapping(bytes32 => PurchaseDefinition) public purchase;\n\n\n    function setSeller (bytes32 purchaseId, address sellerAddress)\n    public onlyContracts {\n        purchase[purchaseId].seller = sellerAddress;\n    }\n\n    function getSeller (bytes32 purchaseId)\n    public view returns(address seller){\n        return purchase[purchaseId].seller;\n    }\n\n    function setBuyer (bytes32 purchaseId, address buyerAddress)\n    public onlyContracts {\n        purchase[purchaseId].buyer = buyerAddress;\n    }\n\n    function getBuyer (bytes32 purchaseId)\n    public view returns(address buyer){\n        return purchase[purchaseId].buyer;\n    }\n\n    function setPrice (bytes32 purchaseId, uint price)\n    public onlyContracts {\n        purchase[purchaseId].price = price;\n    }\n\n    function getPrice (bytes32 purchaseId)\n    public view returns(uint price){\n        return purchase[purchaseId].price;\n    }\n\n    function setKey (bytes32 purchaseId, bytes32 key)\n    public onlyContracts {\n        purchase[purchaseId].key = key;\n    }\n\n    function getKey (bytes32 purchaseId)\n    public view returns(bytes32 key){\n        return purchase[purchaseId].key;\n    }\n\n    function setTimestamp (bytes32 purchaseId, uint256 timestamp)\n    public onlyContracts {\n        purchase[purchaseId].timestamp = timestamp;\n    }\n\n    function getTimestamp (bytes32 purchaseId)\n    public view returns(uint256 timestamp){\n        return purchase[purchaseId].timestamp;\n    }\n\n    function setOriginalDataRootHash (bytes32 purchaseId, bytes32 originalDataRootHash)\n    public onlyContracts {\n        purchase[purchaseId].originalDataRootHash = originalDataRootHash;\n    }\n\n    function getOriginalDataRootHash (bytes32 purchaseId)\n    public view returns(bytes32 originalDataRootHash){\n        return purchase[purchaseId].originalDataRootHash;\n    }\n\n    function setEncodedDataRootHash (bytes32 purchaseId, bytes32 encodedDataRootHash)\n    public onlyContracts {\n        purchase[purchaseId].encodedDataRootHash = encodedDataRootHash;\n    }\n\n    function getEncodedDataRootHash (bytes32 purchaseId)\n    public view returns(bytes32 encodedDataRootHash){\n        return purchase[purchaseId].encodedDataRootHash;\n    }\n\n    function setStage (bytes32 purchaseId, uint stage)\n    public onlyContracts {\n        purchase[purchaseId].stage = StageDefinition(stage);\n    }\n\n    function getStage (bytes32 purchaseId)\n    public view returns(uint stage){\n        return uint(purchase[purchaseId].stage);\n    }\n}\n",
  "sourcePath": "/Users/uroskukic/Documents/Projects/Starfleet/builders-demo/truffle/contracts/MarketplaceStorage.sol",
  "compiler": {
    "name": "solc",
    "version": "0.4.26+commit.4563c3fc.Emscripten.clang"
  },
  "schemaVersion": "3.3.3",
  "updatedAt": "2021-01-28T12:35:17.633Z",
  "devdoc": {
    "methods": {}
  },
  "userdoc": {
    "methods": {}
  }
}