{
  "contractName": "MockHolding",
  "abi": [
    {
      "anonymous": false,
      "inputs": [
        {
          "indexed": false,
          "name": "dataSetId",
          "type": "bytes32"
        },
        {
          "indexed": false,
          "name": "dcProfile",
          "type": "address"
        },
        {
          "indexed": false,
          "name": "offerId",
          "type": "bytes32"
        },
        {
          "indexed": false,
          "name": "task",
          "type": "bytes1"
        }
      ],
      "name": "OfferTask",
      "type": "event"
    },
    {
      "anonymous": false,
      "inputs": [
        {
          "indexed": false,
          "name": "offerId",
          "type": "bytes32"
        },
        {
          "indexed": false,
          "name": "dcNodeId",
          "type": "bytes32"
        }
      ],
      "name": "OfferCreated",
      "type": "event"
    },
    {
      "anonymous": false,
      "inputs": [
        {
          "indexed": false,
          "name": "offerId",
          "type": "bytes32"
        },
        {
          "indexed": false,
          "name": "holder1",
          "type": "address"
        },
        {
          "indexed": false,
          "name": "holder2",
          "type": "address"
        },
        {
          "indexed": false,
          "name": "holder3",
          "type": "address"
        }
      ],
      "name": "OfferFinalized",
      "type": "event"
    },
    {
      "constant": false,
      "inputs": [
        {
          "name": "dataSetId",
          "type": "bytes32"
        },
        {
          "name": "dcNodeId",
          "type": "bytes32"
        }
      ],
      "name": "createOffer",
      "outputs": [],
      "payable": false,
      "stateMutability": "nonpayable",
      "type": "function"
    },
    {
      "constant": false,
      "inputs": [
        {
          "name": "offerId",
          "type": "bytes32"
        },
        {
          "name": "holder1",
          "type": "address"
        },
        {
          "name": "holder2",
          "type": "address"
        },
        {
          "name": "holder3",
          "type": "address"
        }
      ],
      "name": "finalizeOffer",
      "outputs": [],
      "payable": false,
      "stateMutability": "nonpayable",
      "type": "function"
    }
  ],
  "bytecode": "0x608060405234801561001057600080fd5b506104ec806100206000396000f30060806040526004361061004c576000357c0100000000000000000000000000000000000000000000000000000000900463ffffffff1680630360796b146100515780636a58b53014610090575b600080fd5b34801561005d57600080fd5b5061008e60048036038101908080356000191690602001909291908035600019169060200190929190505050610121565b005b34801561009c57600080fd5b5061011f6004803603810190808035600019169060200190929190803573ffffffffffffffffffffffffffffffffffffffff169060200190929190803573ffffffffffffffffffffffffffffffffffffffff169060200190929190803573ffffffffffffffffffffffffffffffffffffffff1690602001909291905050506103df565b005b7f19662606a8995e294f49c6fd0a8577b2953762486d4f49eaf6af93db33a7cb54826040516020018082600019166000191681526020019150506040516020818303038152906040526040518082805190602001908083835b60208310151561019f578051825260208201915060208101905060208303925061017a565b6001836020036101000a03801982511681845116808217855250505050505090500191505060405180910390208260405180836000191660001916815260200182600019166000191681526020019250505060405180910390a17f8796f5994941c7adc479c2203662e68e91807c3f32bcd38f49798c152576abe78233846040516020018082600019166000191681526020019150506040516020818303038152906040526040518082805190602001908083835b6020831015156102795780518252602082019150602081019050602083039250610254565b6001836020036101000a038019825116818451168082178552505050505050905001915050604051809103902043406040516020018082600019166000191681526020019150506040516020818303038152906040526040518082805190602001908083835b60208310151561030457805182526020820191506020810190506020830392506102df565b6001836020036101000a03801982511681845116808217855250505050505090500191505060405180910390206040518085600019166000191681526020018473ffffffffffffffffffffffffffffffffffffffff1673ffffffffffffffffffffffffffffffffffffffff1681526020018360001916600019168152602001827effffffffffffffffffffffffffffffffffffffffffffffffffffffffffffff19167effffffffffffffffffffffffffffffffffffffffffffffffffffffffffffff1916815260200194505050505060405180910390a15050565b7feac1e15fac392f7eb69fb5accdf5e9892330f41cd8fa89933c2d2c8c68e4d4a7848484846040518085600019166000191681526020018473ffffffffffffffffffffffffffffffffffffffff1673ffffffffffffffffffffffffffffffffffffffff1681526020018373ffffffffffffffffffffffffffffffffffffffff1673ffffffffffffffffffffffffffffffffffffffff1681526020018273ffffffffffffffffffffffffffffffffffffffff1673ffffffffffffffffffffffffffffffffffffffff16815260200194505050505060405180910390a1505050505600a165627a7a72305820b49eb3bc60eab735830d47806c101014ee1f1c1ab5c3da17dbf15635c8162a020029",
  "source": "pragma solidity ^0.4.24;\n\ncontract MockHolding {\n    event OfferTask(bytes32 dataSetId, address dcProfile, bytes32 offerId, byte task);\n    event OfferCreated(bytes32 offerId, bytes32 dcNodeId);\n\n    function createOffer(bytes32 dataSetId, bytes32 dcNodeId) public{\n        emit OfferCreated(keccak256(abi.encodePacked(dataSetId)), dcNodeId);\n        emit OfferTask(dataSetId, msg.sender, keccak256(abi.encodePacked(dataSetId)), byte(keccak256(abi.encodePacked(blockhash(block.number)))));\n    }\n  \n    event OfferFinalized(bytes32 offerId, address holder1, address holder2, address holder3);\n    function finalizeOffer(bytes32 offerId, address holder1, address holder2, address holder3) public{\n        emit OfferFinalized(offerId, holder1, holder2, holder3);\n    }\n}\n\n\n\n",
  "sourcePath": "/Users/uroskukic/Documents/Projects/Starfleet/builders-demo/truffle/contracts/MockHolding.sol",
  "compiler": {
    "name": "solc",
    "version": "0.4.26+commit.4563c3fc.Emscripten.clang"
  },
  "schemaVersion": "3.3.3",
  "updatedAt": "2021-01-28T12:35:17.649Z",
  "devdoc": {
    "methods": {}
  },
  "userdoc": {
    "methods": {}
  }
}