{
  "contractName": "Replacement",
  "abi": [
    {
      "constant": true,
      "inputs": [],
      "name": "hub",
      "outputs": [
        {
          "name": "",
          "type": "address"
        }
      ],
      "payable": false,
      "stateMutability": "view",
      "type": "function"
    },
    {
      "inputs": [
        {
          "name": "hubAddress",
          "type": "address"
        }
      ],
      "payable": false,
      "stateMutability": "nonpayable",
      "type": "constructor"
    },
    {
      "anonymous": false,
      "inputs": [
        {
          "indexed": false,
          "name": "offerId",
          "type": "bytes32"
        },
        {
          "indexed": false,
          "name": "challengerIdentity",
          "type": "address"
        },
        {
          "indexed": false,
          "name": "chosenHolder",
          "type": "address"
        }
      ],
      "name": "ReplacementCompleted",
      "type": "event"
    },
    {
      "constant": false,
      "inputs": [
        {
          "name": "offerId",
          "type": "bytes32"
        },
        {
          "name": "holderIdentity",
          "type": "address"
        },
        {
          "name": "litigatorIdentity",
          "type": "address"
        },
        {
          "name": "shift",
          "type": "uint256"
        },
        {
          "name": "confirmation1",
          "type": "bytes"
        },
        {
          "name": "confirmation2",
          "type": "bytes"
        },
        {
          "name": "confirmation3",
          "type": "bytes"
        },
        {
          "name": "replacementHolderIdentity",
          "type": "address[]"
        }
      ],
      "name": "replaceHolder",
      "outputs": [],
      "payable": false,
      "stateMutability": "nonpayable",
      "type": "function"
    }
  ],
  "bytecode": "0x608060405234801561001057600080fd5b5060405160208061404b83398101806040528101908080519060200190929190505050600073ffffffffffffffffffffffffffffffffffffffff168173ffffffffffffffffffffffffffffffffffffffff16141515156100fe576040517f08c379a00000000000000000000000000000000000000000000000000000000081526004018080602001828103825260218152602001807f48756220636f6e747261637420616464726573732063616e6e6f74206265203081526020017f210000000000000000000000000000000000000000000000000000000000000081525060400191505060405180910390fd5b806000806101000a81548173ffffffffffffffffffffffffffffffffffffffff021916908373ffffffffffffffffffffffffffffffffffffffff16021790555050613efd8061014e6000396000f30060806040526004361061004c576000357c0100000000000000000000000000000000000000000000000000000000900463ffffffff168063365a86fc146100515780633c736155146100a8575b600080fd5b34801561005d57600080fd5b50610066610238565b604051808273ffffffffffffffffffffffffffffffffffffffff1673ffffffffffffffffffffffffffffffffffffffff16815260200191505060405180910390f35b3480156100b457600080fd5b506102366004803603810190808035600019169060200190929190803573ffffffffffffffffffffffffffffffffffffffff169060200190929190803573ffffffffffffffffffffffffffffffffffffffff16906020019092919080359060200190929190803590602001908201803590602001908080601f0160208091040260200160405190810160405280939291908181526020018383808284378201915050505050509192919290803590602001908201803590602001908080601f0160208091040260200160405190810160405280939291908181526020018383808284378201915050505050509192919290803590602001908201803590602001908080601f01602080910402602001604051908101604052809392919081815260200183838082843782019150505050505091929192908035906020019082018035906020019080806020026020016040519081016040528093929190818152602001838360200280828437820191505050505050919291929050505061025d565b005b6000809054906101000a900473ffffffffffffffffffffffffffffffffffffffff1681565b6000806000806000809054906101000a900473ffffffffffffffffffffffffffffffffffffffff1673ffffffffffffffffffffffffffffffffffffffff166304433bbc6040518163ffffffff167c010000000000000000000000000000000000000000000000000000000002815260040180806020018281038252600e8152602001807f486f6c64696e6753746f72616765000000000000000000000000000000000000815250602001915050602060405180830381600087803b15801561032457600080fd5b505af1158015610338573d6000803e3d6000fd5b505050506040513d602081101561034e57600080fd5b810190808051906020019092919050505093506000809054906101000a900473ffffffffffffffffffffffffffffffffffffffff1673ffffffffffffffffffffffffffffffffffffffff166304433bbc6040518163ffffffff167c01000000000000000000000000000000000000000000000000000000000281526004018080602001828103825260118152602001807f4c697469676174696f6e53746f72616765000000000000000000000000000000815250602001915050602060405180830381600087803b15801561042257600080fd5b505af1158015610436573d6000803e3d6000fd5b505050506040513d602081101561044c57600080fd5b810190808051906020019092919050505092506000809054906101000a900473ffffffffffffffffffffffffffffffffffffffff1673ffffffffffffffffffffffffffffffffffffffff166304433bbc6040518163ffffffff167c010000000000000000000000000000000000000000000000000000000002815260040180806020018281038252600e8152602001807f50726f66696c6553746f72616765000000000000000000000000000000000000815250602001915050602060405180830381600087803b15801561052057600080fd5b505af1158015610534573d6000803e3d6000fd5b505050506040513d602081101561054a57600080fd5b810190808051906020019092919050505091508973ffffffffffffffffffffffffffffffffffffffff168473ffffffffffffffffffffffffffffffffffffffff1663a26573158e6040518263ffffffff167c0100000000000000000000000000000000000000000000000000000000028152600401808260001916600019168152602001915050602060405180830381600087803b1580156105eb57600080fd5b505af11580156105ff573d6000803e3d6000fd5b505050506040513d602081101561061557600080fd5b810190808051906020019092919050505073ffffffffffffffffffffffffffffffffffffffff161415156106d7576040517f08c379a00000000000000000000000000000000000000000000000000000000081526004018080602001828103825260388152602001807f4368616c6c656e676572206964656e74697479206e6f7420657175616c20746f81526020017f206f666665722063726561746f72206964656e7469747921000000000000000081525060400191505060405180910390fd5b8973ffffffffffffffffffffffffffffffffffffffff1663d202158d33604051602001808273ffffffffffffffffffffffffffffffffffffffff1673ffffffffffffffffffffffffffffffffffffffff166c010000000000000000000000000281526014019150506040516020818303038152906040526040518082805190602001908083835b602083101515610783578051825260208201915060208101905060208303925061075e565b6001836020036101000a038019825116818451168082178552505050505050905001915050604051809103902060026040518363ffffffff167c010000000000000000000000000000000000000000000000000000000002815260040180836000191660001916815260200182815260200192505050602060405180830381600087803b15801561081357600080fd5b505af1158015610827573d6000803e3d6000fd5b505050506040513d602081101561083d57600080fd5b810190808051906020019092919050505015156108e8576040517f08c379a00000000000000000000000000000000000000000000000000000000081526004018080602001828103825260288152602001807f53656e64657220646f6573206e6f74206861766520616374696f6e207075727081526020017f6f7365207365742100000000000000000000000000000000000000000000000081525060400191505060405180910390fd5b8973ffffffffffffffffffffffffffffffffffffffff168373ffffffffffffffffffffffffffffffffffffffff1663d817da568e8e6040518363ffffffff167c01000000000000000000000000000000000000000000000000000000000281526004018083600019166000191681526020018273ffffffffffffffffffffffffffffffffffffffff1673ffffffffffffffffffffffffffffffffffffffff16815260200192505050602060405180830381600087803b1580156109aa57600080fd5b505af11580156109be573d6000803e3d6000fd5b505050506040513d60208110156109d457600080fd5b810190808051906020019092919050505073ffffffffffffffffffffffffffffffffffffffff16141515610abc576040517f08c379a000000000000000000000000000000000000000000000000000000000815260040180806020018281038252604a8152602001807f486f6c6465722063616e206f6e6c79206265207265706c61636564206279207481526020017f6865206c6974696761746f722077686f20696e6974696174656420746865206c81526020017f697469676174696f6e210000000000000000000000000000000000000000000081525060600191505060405180910390fd5b8273ffffffffffffffffffffffffffffffffffffffff166359485c7e8d8d6040518363ffffffff167c01000000000000000000000000000000000000000000000000000000000281526004018083600019166000191681526020018273ffffffffffffffffffffffffffffffffffffffff1673ffffffffffffffffffffffffffffffffffffffff16815260200192505050602060405180830381600087803b158015610b6757600080fd5b505af1158015610b7b573d6000803e3d6000fd5b505050506040513d6020811015610b9157600080fd5b8101908080519060200190929190505050905060036004811115610bb157fe5b816004811115610bbd57fe5b141515610c58576040517f08c379a000000000000000000000000000000000000000000000000000000000815260040180806020018281038252603a8152602001807f4c697469676174696f6e206e6f7420696e20737461747573207265706c61636981526020017f6e672c2063616e6e6f74207265706c61636520686f6c6465722100000000000081525060400191505060405180910390fd5b846000815181101515610c6757fe5b9060200190602002015173ffffffffffffffffffffffffffffffffffffffff1663d202158d610d558e886000815181101515610c9f57fe5b9060200190602002015173ffffffffffffffffffffffffffffffffffffffff16604051602001808360001916600019168152602001828152602001925050506040516020818303038152906040526040518082805190602001908083835b602083101515610d225780518252602082019150602081019050602083039250610cfd565b6001836020036101000a03801982511681845116808217855250505050505090500191505060405180910390208b6120db565b604051602001808273ffffffffffffffffffffffffffffffffffffffff1673ffffffffffffffffffffffffffffffffffffffff166c010000000000000000000000000281526014019150506040516020818303038152906040526040518082805190602001908083835b602083101515610de45780518252602082019150602081019050602083039250610dbf565b6001836020036101000a038019825116818451168082178552505050505050905001915050604051809103902060046040518363ffffffff167c010000000000000000000000000000000000000000000000000000000002815260040180836000191660001916815260200182815260200192505050602060405180830381600087803b158015610e7457600080fd5b505af1158015610e88573d6000803e3d6000fd5b505050506040513d6020811015610e9e57600080fd5b81019080805190602001909291905050501515610f49576040517f08c379a00000000000000000000000000000000000000000000000000000000081526004018080602001828103825260378152602001807f57616c6c65742066726f6d20686f6c646572203120646f6573206e6f7420686181526020017f766520656e6372797074696f6e20617070726f76616c2100000000000000000081525060400191505060405180910390fd5b846001815181101515610f5857fe5b9060200190602002015173ffffffffffffffffffffffffffffffffffffffff1663d202158d6110468e886001815181101515610f9057fe5b9060200190602002015173ffffffffffffffffffffffffffffffffffffffff16604051602001808360001916600019168152602001828152602001925050506040516020818303038152906040526040518082805190602001908083835b6020831015156110135780518252602082019150602081019050602083039250610fee565b6001836020036101000a03801982511681845116808217855250505050505090500191505060405180910390208a6120db565b604051602001808273ffffffffffffffffffffffffffffffffffffffff1673ffffffffffffffffffffffffffffffffffffffff166c010000000000000000000000000281526014019150506040516020818303038152906040526040518082805190602001908083835b6020831015156110d557805182526020820191506020810190506020830392506110b0565b6001836020036101000a038019825116818451168082178552505050505050905001915050604051809103902060046040518363ffffffff167c010000000000000000000000000000000000000000000000000000000002815260040180836000191660001916815260200182815260200192505050602060405180830381600087803b15801561116557600080fd5b505af1158015611179573d6000803e3d6000fd5b505050506040513d602081101561118f57600080fd5b8101908080519060200190929190505050151561123a576040517f08c379a00000000000000000000000000000000000000000000000000000000081526004018080602001828103825260378152602001807f57616c6c65742066726f6d20686f6c646572203220646f6573206e6f7420686181526020017f766520656e6372797074696f6e20617070726f76616c2100000000000000000081525060400191505060405180910390fd5b84600281518110151561124957fe5b9060200190602002015173ffffffffffffffffffffffffffffffffffffffff1663d202158d6113378e88600281518110151561128157fe5b9060200190602002015173ffffffffffffffffffffffffffffffffffffffff16604051602001808360001916600019168152602001828152602001925050506040516020818303038152906040526040518082805190602001908083835b60208310151561130457805182526020820191506020810190506020830392506112df565b6001836020036101000a0380198251168184511680821785525050505050509050019150506040518091039020896120db565b604051602001808273ffffffffffffffffffffffffffffffffffffffff1673ffffffffffffffffffffffffffffffffffffffff166c010000000000000000000000000281526014019150506040516020818303038152906040526040518082805190602001908083835b6020831015156113c657805182526020820191506020810190506020830392506113a1565b6001836020036101000a038019825116818451168082178552505050505050905001915050604051809103902060046040518363ffffffff167c010000000000000000000000000000000000000000000000000000000002815260040180836000191660001916815260200182815260200192505050602060405180830381600087803b15801561145657600080fd5b505af115801561146a573d6000803e3d6000fd5b505050506040513d602081101561148057600080fd5b8101908080519060200190929190505050151561152b576040517f08c379a00000000000000000000000000000000000000000000000000000000081526004018080602001828103825260378152602001807f57616c6c65742066726f6d20686f6c646572203320646f6573206e6f7420686181526020017f766520656e6372797074696f6e20617070726f76616c2100000000000000000081525060400191505060405180910390fd5b6115378c868d8c6122f2565b6117148473ffffffffffffffffffffffffffffffffffffffff1663530bde3d8e8e6040518363ffffffff167c01000000000000000000000000000000000000000000000000000000000281526004018083600019166000191681526020018273ffffffffffffffffffffffffffffffffffffffff1673ffffffffffffffffffffffffffffffffffffffff16815260200192505050602060405180830381600087803b1580156115e557600080fd5b505af11580156115f9573d6000803e3d6000fd5b505050506040513d602081101561160f57600080fd5b81019080805190602001909291905050508573ffffffffffffffffffffffffffffffffffffffff166338d525f18f8f6040518363ffffffff167c01000000000000000000000000000000000000000000000000000000000281526004018083600019166000191681526020018273ffffffffffffffffffffffffffffffffffffffff1673ffffffffffffffffffffffffffffffffffffffff16815260200192505050602060405180830381600087803b1580156116cb57600080fd5b505af11580156116df573d6000803e3d6000fd5b505050506040513d60208110156116f557600080fd5b8101908080519060200190929190505050612e1190919063ffffffff16565b6119178373ffffffffffffffffffffffffffffffffffffffff16635ffe02828860034281151561174057fe5b0681518110151561174d57fe5b906020019060200201516040518263ffffffff167c0100000000000000000000000000000000000000000000000000000000028152600401808273ffffffffffffffffffffffffffffffffffffffff1673ffffffffffffffffffffffffffffffffffffffff168152602001915050602060405180830381600087803b1580156117d557600080fd5b505af11580156117e9573d6000803e3d6000fd5b505050506040513d60208110156117ff57600080fd5b81019080805190602001909291905050508473ffffffffffffffffffffffffffffffffffffffff16637a7664608960034281151561183957fe5b0681518110151561184657fe5b906020019060200201516040518263ffffffff167c0100000000000000000000000000000000000000000000000000000000028152600401808273ffffffffffffffffffffffffffffffffffffffff1673ffffffffffffffffffffffffffffffffffffffff168152602001915050602060405180830381600087803b1580156118ce57600080fd5b505af11580156118e2573d6000803e3d6000fd5b505050506040513d60208110156118f857600080fd5b8101908080519060200190929190505050612e1190919063ffffffff16565b101515156119d9576040517f08c379a00000000000000000000000000000000000000000000000000000000081526004018080602001828103825260428152602001807f5265706c6163656d656e7420686f6c64657220646f6573206e6f74206861766581526020017f207374616b6520617661696c61626c6520746f2074616b652074686973206a6f81526020017f622100000000000000000000000000000000000000000000000000000000000081525060600191505060405180910390fd5b6000809054906101000a900473ffffffffffffffffffffffffffffffffffffffff1673ffffffffffffffffffffffffffffffffffffffff166304433bbc6040518163ffffffff167c01000000000000000000000000000000000000000000000000000000000281526004018080602001828103825260078152602001807f50726f66696c6500000000000000000000000000000000000000000000000000815250602001915050602060405180830381600087803b158015611a9a57600080fd5b505af1158015611aae573d6000803e3d6000fd5b505050506040513d6020811015611ac457600080fd5b810190808051906020019092919050505073ffffffffffffffffffffffffffffffffffffffff16639ec41a2d6040518163ffffffff167c0100000000000000000000000000000000000000000000000000000000028152600401602060405180830381600087803b158015611b3857600080fd5b505af1158015611b4c573d6000803e3d6000fd5b505050506040513d6020811015611b6257600080fd5b81019080805190602001909291905050508273ffffffffffffffffffffffffffffffffffffffff16637a76646087600342811515611b9c57fe5b06815181101515611ba957fe5b906020019060200201516040518263ffffffff167c0100000000000000000000000000000000000000000000000000000000028152600401808273ffffffffffffffffffffffffffffffffffffffff1673ffffffffffffffffffffffffffffffffffffffff168152602001915050602060405180830381600087803b158015611c3157600080fd5b505af1158015611c45573d6000803e3d6000fd5b505050506040513d6020811015611c5b57600080fd5b810190808051906020019092919050505010151515611d2e576040517f08c379a000000000000000000000000000000000000000000000000000000000815260040180806020018281038252605a8152602001807f5265706c6163656d656e7420686f6c64657220646f6573206e6f74206861766581526020017f20746865206d696e696d616c207265717569726564207374616b65206176616981526020017f6c61626c6520746f2074616b6520616e79206e6577206a6f622100000000000081525060600191505060405180910390fd5b60008473ffffffffffffffffffffffffffffffffffffffff166338d525f18e88600342811515611d5a57fe5b06815181101515611d6757fe5b906020019060200201516040518363ffffffff167c01000000000000000000000000000000000000000000000000000000000281526004018083600019166000191681526020018273ffffffffffffffffffffffffffffffffffffffff1673ffffffffffffffffffffffffffffffffffffffff16815260200192505050602060405180830381600087803b158015611dfe57600080fd5b505af1158015611e12573d6000803e3d6000fd5b505050506040513d6020811015611e2857600080fd5b8101908080519060200190929190505050141515611efa576040517f08c379a000000000000000000000000000000000000000000000000000000000815260040180806020018281038252605b8152602001807f5265706c6163656d656e7420686f6c64657220776173206f7220697320616c7281526020017f65616479206120686f6c64657220666f72207468697320646174612c2063616e81526020017f6e6f74206265207365742061732061206e657720686f6c64657221000000000081525060600191505060405180910390fd5b611f298c8c8c88600342811515611f0d57fe5b06815181101515611f1a57fe5b90602001906020020151612e2a565b8273ffffffffffffffffffffffffffffffffffffffff166357e0306a8d8d60046040518463ffffffff167c01000000000000000000000000000000000000000000000000000000000281526004018084600019166000191681526020018373ffffffffffffffffffffffffffffffffffffffff1673ffffffffffffffffffffffffffffffffffffffff168152602001826004811115611fc457fe5b60ff1681526020019350505050600060405180830381600087803b158015611feb57600080fd5b505af1158015611fff573d6000803e3d6000fd5b505050507f1cd15ea0fd5fd6b6f560ec5688d3b159b93ad46ab229a3e4936baf5c98bb94548c8b8760034281151561203357fe5b0681518110151561204057fe5b906020019060200201516040518084600019166000191681526020018373ffffffffffffffffffffffffffffffffffffffff1673ffffffffffffffffffffffffffffffffffffffff1681526020018273ffffffffffffffffffffffffffffffffffffffff1673ffffffffffffffffffffffffffffffffffffffff168152602001935050505060405180910390a1505050505050505050505050565b60008060008060606000604187511415156120f957600095506122e7565b6040805190810160405280601c81526020017f19457468657265756d205369676e6564204d6573736167653a0a333200000000815250915081886040516020018083805190602001908083835b60208310151561216b5780518252602082019150602081019050602083039250612146565b6001836020036101000a0380198251168184511680821785525050505050509050018260001916600019168152602001925050506040516020818303038152906040526040518082805190602001908083835b6020831015156121e357805182526020820191506020810190506020830392506121be565b6001836020036101000a038019825116818451168082178552505050505050905001915050604051809103902090506020870151945060408701519350606087015160001a9250601b8360ff16101561223d57601b830192505b601b8360ff16141580156122555750601c8360ff1614155b1561226357600095506122e7565b600181848787604051600081526020016040526040518085600019166000191681526020018460ff1660ff1681526020018360001916600019168152602001826000191660001916815260200194505050505060206040516020810390808403906000865af11580156122da573d6000803e3d6000fd5b5050506020604051035195505b505050505092915050565b60006122fc613eae565b6000809054906101000a900473ffffffffffffffffffffffffffffffffffffffff1673ffffffffffffffffffffffffffffffffffffffff166304433bbc6040518163ffffffff167c01000000000000000000000000000000000000000000000000000000000281526004018080602001828103825260118152602001807f4c697469676174696f6e53746f72616765000000000000000000000000000000815250602001915050602060405180830381600087803b1580156123bd57600080fd5b505af11580156123d1573d6000803e3d6000fd5b505050506040513d60208110156123e757600080fd5b8101908080519060200190929190505050915084600081518110151561240957fe5b906020019060200201518273ffffffffffffffffffffffffffffffffffffffff1663b3a81b6588876040518363ffffffff167c01000000000000000000000000000000000000000000000000000000000281526004018083600019166000191681526020018273ffffffffffffffffffffffffffffffffffffffff1673ffffffffffffffffffffffffffffffffffffffff16815260200192505050602060405180830381600087803b1580156124be57600080fd5b505af11580156124d2573d6000803e3d6000fd5b505050506040513d60208110156124e857600080fd5b8101908080519060200190929190505050604051602001808373ffffffffffffffffffffffffffffffffffffffff1673ffffffffffffffffffffffffffffffffffffffff166c010000000000000000000000000281526014018260001916600019168152602001925050506040516020818303038152906040526040518082805190602001908083835b6020831015156125975780518252602082019150602081019050602083039250612572565b6001836020036101000a03801982511681845116808217855250505050505090500191505060405180910390208160006003811015156125d357fe5b602002019060001916908160001916815250508460018151811015156125f557fe5b906020019060200201518273ffffffffffffffffffffffffffffffffffffffff1663b3a81b6588876040518363ffffffff167c01000000000000000000000000000000000000000000000000000000000281526004018083600019166000191681526020018273ffffffffffffffffffffffffffffffffffffffff1673ffffffffffffffffffffffffffffffffffffffff16815260200192505050602060405180830381600087803b1580156126aa57600080fd5b505af11580156126be573d6000803e3d6000fd5b505050506040513d60208110156126d457600080fd5b8101908080519060200190929190505050604051602001808373ffffffffffffffffffffffffffffffffffffffff1673ffffffffffffffffffffffffffffffffffffffff166c010000000000000000000000000281526014018260001916600019168152602001925050506040516020818303038152906040526040518082805190602001908083835b602083101515612783578051825260208201915060208101905060208303925061275e565b6001836020036101000a03801982511681845116808217855250505050505090500191505060405180910390208160016003811015156127bf57fe5b602002019060001916908160001916815250508460028151811015156127e157fe5b906020019060200201518273ffffffffffffffffffffffffffffffffffffffff1663b3a81b6588876040518363ffffffff167c01000000000000000000000000000000000000000000000000000000000281526004018083600019166000191681526020018273ffffffffffffffffffffffffffffffffffffffff1673ffffffffffffffffffffffffffffffffffffffff16815260200192505050602060405180830381600087803b15801561289657600080fd5b505af11580156128aa573d6000803e3d6000fd5b505050506040513d60208110156128c057600080fd5b8101908080519060200190929190505050604051602001808373ffffffffffffffffffffffffffffffffffffffff1673ffffffffffffffffffffffffffffffffffffffff166c010000000000000000000000000281526014018260001916600019168152602001925050506040516020818303038152906040526040518082805190602001908083835b60208310151561296f578051825260208201915060208101905060208303925061294a565b6001836020036101000a03801982511681845116808217855250505050505090500191505060405180910390208160026003811015156129ab57fe5b602002019060001916908160001916815250508060016003811015156129cd57fe5b6020020151600190048160006003811015156129e557fe5b602002015160019004108015612a285750806002600381101515612a0557fe5b602002015160019004816001600381101515612a1d57fe5b602002015160019004105b1515612a9c576040517f08c379a000000000000000000000000000000000000000000000000000000000815260040180806020018281038252601f8152602001807f536f6c7574696f6e2068617368657320617265206e6f7420736f72746564210081525060200191505060405180910390fd5b8173ffffffffffffffffffffffffffffffffffffffff1663b3a81b6587866040518363ffffffff167c01000000000000000000000000000000000000000000000000000000000281526004018083600019166000191681526020018273ffffffffffffffffffffffffffffffffffffffff1673ffffffffffffffffffffffffffffffffffffffff16815260200192505050602060405180830381600087803b158015612b4757600080fd5b505af1158015612b5b573d6000803e3d6000fd5b505050506040513d6020811015612b7157600080fd5b81019080805190602001909291905050506000191660018373ffffffffffffffffffffffffffffffffffffffff16635006398b89886040518363ffffffff167c01000000000000000000000000000000000000000000000000000000000281526004018083600019166000191681526020018273ffffffffffffffffffffffffffffffffffffffff1673ffffffffffffffffffffffffffffffffffffffff16815260200192505050602060405180830381600087803b158015612c3357600080fd5b505af1158015612c47573d6000803e3d6000fd5b505050506040513d6020811015612c5d57600080fd5b810190808051906020019092919050505060040260020a0360010260048502836000600381101515612c8b57fe5b6020020151846001600381101515612c9f57fe5b6020020151856002600381101515612cb357fe5b60200201516040516020018084600019166000191681526020018360001916600019168152602001826000191660001916815260200193505050506040516020818303038152906040526040518082805190602001908083835b602083101515612d325780518252602082019150602081019050602083039250612d0d565b6001836020036101000a0380198251168184511680821785525050505050509050019150506040518091039020600019169060020a90041660001916141515612e09576040517f08c379a00000000000000000000000000000000000000000000000000000000081526004018080602001828103825260368152602001807f5375626d6974746564206964656e74697469657320646f206e6f7420616e737781526020017f657220746865207461736b20636f72726563746c79210000000000000000000081525060400191505060405180910390fd5b505050505050565b6000828211151515612e1f57fe5b818303905092915050565b60008060008060009054906101000a900473ffffffffffffffffffffffffffffffffffffffff1673ffffffffffffffffffffffffffffffffffffffff166304433bbc6040518163ffffffff167c010000000000000000000000000000000000000000000000000000000002815260040180806020018281038252600e8152602001807f50726f66696c6553746f72616765000000000000000000000000000000000000815250602001915050602060405180830381600087803b158015612ef057600080fd5b505af1158015612f04573d6000803e3d6000fd5b505050506040513d6020811015612f1a57600080fd5b810190808051906020019092919050505092506000809054906101000a900473ffffffffffffffffffffffffffffffffffffffff1673ffffffffffffffffffffffffffffffffffffffff166304433bbc6040518163ffffffff167c010000000000000000000000000000000000000000000000000000000002815260040180806020018281038252600e8152602001807f486f6c64696e6753746f72616765000000000000000000000000000000000000815250602001915050602060405180830381600087803b158015612fee57600080fd5b505af1158015613002573d6000803e3d6000fd5b505050506040513d602081101561301857600080fd5b810190808051906020019092919050505091508173ffffffffffffffffffffffffffffffffffffffff1663d38be5a088868573ffffffffffffffffffffffffffffffffffffffff16631aa063a78c8c6040518363ffffffff167c01000000000000000000000000000000000000000000000000000000000281526004018083600019166000191681526020018273ffffffffffffffffffffffffffffffffffffffff1673ffffffffffffffffffffffffffffffffffffffff16815260200192505050602060405180830381600087803b1580156130f457600080fd5b505af1158015613108573d6000803e3d6000fd5b505050506040513d602081101561311e57600080fd5b81019080805190602001909291905050506040518463ffffffff167c01000000000000000000000000000000000000000000000000000000000281526004018084600019166000191681526020018373ffffffffffffffffffffffffffffffffffffffff1673ffffffffffffffffffffffffffffffffffffffff1681526020018281526020019350505050600060405180830381600087803b1580156131c357600080fd5b505af11580156131d7573d6000803e3d6000fd5b505050506133b88273ffffffffffffffffffffffffffffffffffffffff1663530bde3d89896040518363ffffffff167c01000000000000000000000000000000000000000000000000000000000281526004018083600019166000191681526020018273ffffffffffffffffffffffffffffffffffffffff1673ffffffffffffffffffffffffffffffffffffffff16815260200192505050602060405180830381600087803b15801561328957600080fd5b505af115801561329d573d6000803e3d6000fd5b505050506040513d60208110156132b357600080fd5b81019080805190602001909291905050508373ffffffffffffffffffffffffffffffffffffffff166338d525f18a8a6040518363ffffffff167c01000000000000000000000000000000000000000000000000000000000281526004018083600019166000191681526020018273ffffffffffffffffffffffffffffffffffffffff1673ffffffffffffffffffffffffffffffffffffffff16815260200192505050602060405180830381600087803b15801561336f57600080fd5b505af1158015613383573d6000803e3d6000fd5b505050506040513d602081101561339957600080fd5b8101908080519060200190929190505050612e1190919063ffffffff16565b90508273ffffffffffffffffffffffffffffffffffffffff166350c3ff57856134bf848773ffffffffffffffffffffffffffffffffffffffff16635ffe02828a6040518263ffffffff167c0100000000000000000000000000000000000000000000000000000000028152600401808273ffffffffffffffffffffffffffffffffffffffff1673ffffffffffffffffffffffffffffffffffffffff168152602001915050602060405180830381600087803b15801561347657600080fd5b505af115801561348a573d6000803e3d6000fd5b505050506040513d60208110156134a057600080fd5b8101908080519060200190929190505050613e9090919063ffffffff16565b6040518363ffffffff167c0100000000000000000000000000000000000000000000000000000000028152600401808373ffffffffffffffffffffffffffffffffffffffff1673ffffffffffffffffffffffffffffffffffffffff16815260200182815260200192505050600060405180830381600087803b15801561354457600080fd5b505af1158015613558573d6000803e3d6000fd5b505050508273ffffffffffffffffffffffffffffffffffffffff166350c3ff57876137468573ffffffffffffffffffffffffffffffffffffffff166338d525f18c8c6040518363ffffffff167c01000000000000000000000000000000000000000000000000000000000281526004018083600019166000191681526020018273ffffffffffffffffffffffffffffffffffffffff1673ffffffffffffffffffffffffffffffffffffffff16815260200192505050602060405180830381600087803b15801561362757600080fd5b505af115801561363b573d6000803e3d6000fd5b505050506040513d602081101561365157600080fd5b81019080805190602001909291905050508773ffffffffffffffffffffffffffffffffffffffff16635ffe02828c6040518263ffffffff167c0100000000000000000000000000000000000000000000000000000000028152600401808273ffffffffffffffffffffffffffffffffffffffff1673ffffffffffffffffffffffffffffffffffffffff168152602001915050602060405180830381600087803b1580156136fd57600080fd5b505af1158015613711573d6000803e3d6000fd5b505050506040513d602081101561372757600080fd5b8101908080519060200190929190505050612e1190919063ffffffff16565b6040518363ffffffff167c0100000000000000000000000000000000000000000000000000000000028152600401808373ffffffffffffffffffffffffffffffffffffffff1673ffffffffffffffffffffffffffffffffffffffff16815260200182815260200192505050600060405180830381600087803b1580156137cb57600080fd5b505af11580156137df573d6000803e3d6000fd5b505050508273ffffffffffffffffffffffffffffffffffffffff1663bd3cd525876139cd8573ffffffffffffffffffffffffffffffffffffffff166338d525f18c8c6040518363ffffffff167c01000000000000000000000000000000000000000000000000000000000281526004018083600019166000191681526020018273ffffffffffffffffffffffffffffffffffffffff1673ffffffffffffffffffffffffffffffffffffffff16815260200192505050602060405180830381600087803b1580156138ae57600080fd5b505af11580156138c2573d6000803e3d6000fd5b505050506040513d60208110156138d857600080fd5b81019080805190602001909291905050508773ffffffffffffffffffffffffffffffffffffffff16637a7664608c6040518263ffffffff167c0100000000000000000000000000000000000000000000000000000000028152600401808273ffffffffffffffffffffffffffffffffffffffff1673ffffffffffffffffffffffffffffffffffffffff168152602001915050602060405180830381600087803b15801561398457600080fd5b505af1158015613998573d6000803e3d6000fd5b505050506040513d60208110156139ae57600080fd5b8101908080519060200190929190505050612e1190919063ffffffff16565b6040518363ffffffff167c0100000000000000000000000000000000000000000000000000000000028152600401808373ffffffffffffffffffffffffffffffffffffffff1673ffffffffffffffffffffffffffffffffffffffff16815260200182815260200192505050600060405180830381600087803b158015613a5257600080fd5b505af1158015613a66573d6000803e3d6000fd5b505050508273ffffffffffffffffffffffffffffffffffffffff1663bd3cd52586613c548573ffffffffffffffffffffffffffffffffffffffff166338d525f18c8c6040518363ffffffff167c01000000000000000000000000000000000000000000000000000000000281526004018083600019166000191681526020018273ffffffffffffffffffffffffffffffffffffffff1673ffffffffffffffffffffffffffffffffffffffff16815260200192505050602060405180830381600087803b158015613b3557600080fd5b505af1158015613b49573d6000803e3d6000fd5b505050506040513d6020811015613b5f57600080fd5b81019080805190602001909291905050508773ffffffffffffffffffffffffffffffffffffffff16637a7664608b6040518263ffffffff167c0100000000000000000000000000000000000000000000000000000000028152600401808273ffffffffffffffffffffffffffffffffffffffff1673ffffffffffffffffffffffffffffffffffffffff168152602001915050602060405180830381600087803b158015613c0b57600080fd5b505af1158015613c1f573d6000803e3d6000fd5b505050506040513d6020811015613c3557600080fd5b8101908080519060200190929190505050613e9090919063ffffffff16565b6040518363ffffffff167c0100000000000000000000000000000000000000000000000000000000028152600401808373ffffffffffffffffffffffffffffffffffffffff1673ffffffffffffffffffffffffffffffffffffffff16815260200182815260200192505050600060405180830381600087803b158015613cd957600080fd5b505af1158015613ced573d6000803e3d6000fd5b505050508173ffffffffffffffffffffffffffffffffffffffff1663324310ee8886846040518463ffffffff167c01000000000000000000000000000000000000000000000000000000000281526004018084600019166000191681526020018373ffffffffffffffffffffffffffffffffffffffff1673ffffffffffffffffffffffffffffffffffffffff1681526020018281526020019350505050600060405180830381600087803b158015613da457600080fd5b505af1158015613db8573d6000803e3d6000fd5b505050508173ffffffffffffffffffffffffffffffffffffffff166391a70e4f8886426040518463ffffffff167c01000000000000000000000000000000000000000000000000000000000281526004018084600019166000191681526020018373ffffffffffffffffffffffffffffffffffffffff1673ffffffffffffffffffffffffffffffffffffffff1681526020018281526020019350505050600060405180830381600087803b158015613e6f57600080fd5b505af1158015613e83573d6000803e3d6000fd5b5050505050505050505050565b6000808284019050838110151515613ea457fe5b8091505092915050565b6060604051908101604052806003906020820280388339808201915050905050905600a165627a7a7230582036b8da947458bdef793d1bc1f681c54b13361afdba8b863b48d8ffdab0c141ed0029",
  "source": "pragma solidity ^0.4.25;\n\nimport {SafeMath} from \"./SafeMath.sol\";\nimport {ERC725} from './ERC725.sol';\nimport {Hub} from \"./Hub.sol\";\nimport {Holding} from \"./Holding.sol\";\nimport {Profile} from \"./Profile.sol\";\nimport {HoldingStorage} from \"./HoldingStorage.sol\";\nimport {ProfileStorage} from \"./ProfileStorage.sol\";\nimport {LitigationStorage} from \"./LitigationStorage.sol\";\n\n/**\n * The Replacement contract\n * Used for replacing a holder after a successful litigation\n */\ncontract Replacement {\n\tusing SafeMath for uint256;\n\n\tHub public hub;\n\tconstructor (address hubAddress) public {\n\t\trequire (hubAddress != address(0), \"Hub contract address cannot be 0!\");\n\t\thub = Hub(hubAddress);\n\t}\n\n\tevent ReplacementCompleted(bytes32 offerId, address challengerIdentity, address chosenHolder);\n\n    function replaceHolder(bytes32 offerId, address holderIdentity, address litigatorIdentity, uint256 shift,\n        bytes confirmation1, bytes confirmation2, bytes confirmation3, address[] replacementHolderIdentity)\n    public {\n        HoldingStorage holdingStorage = HoldingStorage(hub.getContractAddress(\"HoldingStorage\"));\n        LitigationStorage litigationStorage = LitigationStorage(hub.getContractAddress(\"LitigationStorage\"));\n        ProfileStorage profileStorage = ProfileStorage(hub.getContractAddress(\"ProfileStorage\"));\n        \n        require(holdingStorage.getOfferCreator(offerId) == litigatorIdentity, \"Challenger identity not equal to offer creator identity!\");\n        require(ERC725(litigatorIdentity).keyHasPurpose(keccak256(abi.encodePacked(msg.sender)), 2), \"Sender does not have action purpose set!\");\n        require(litigationStorage.getLitigationLitigatorIdentity(offerId, holderIdentity) == litigatorIdentity, \"Holder can only be replaced by the litigator who initiated the litigation!\");\n\n        LitigationStorage.LitigationStatus litigationStatus = litigationStorage.getLitigationStatus(offerId, holderIdentity);\n\n        require(litigationStatus == LitigationStorage.LitigationStatus.replacing, \"Litigation not in status replacing, cannot replace holder!\");\n\n        // Check if signatures match identities\n        require(ERC725(replacementHolderIdentity[0]).keyHasPurpose(keccak256(abi.encodePacked(ecrecovery(keccak256(abi.encodePacked(offerId,uint256(replacementHolderIdentity[0]))), confirmation1))), 4), \"Wallet from holder 1 does not have encryption approval!\");\n        require(ERC725(replacementHolderIdentity[1]).keyHasPurpose(keccak256(abi.encodePacked(ecrecovery(keccak256(abi.encodePacked(offerId,uint256(replacementHolderIdentity[1]))), confirmation2))), 4), \"Wallet from holder 2 does not have encryption approval!\");\n        require(ERC725(replacementHolderIdentity[2]).keyHasPurpose(keccak256(abi.encodePacked(ecrecovery(keccak256(abi.encodePacked(offerId,uint256(replacementHolderIdentity[2]))), confirmation3))), 4), \"Wallet from holder 3 does not have encryption approval!\");\n\n        checkTask(offerId, replacementHolderIdentity, holderIdentity, shift);\n\n        // Set new holders\n        require(profileStorage.getStake(replacementHolderIdentity[block.timestamp % 3]).sub(profileStorage.getStakeReserved(replacementHolderIdentity[block.timestamp % 3])) \n            >= holdingStorage.getHolderStakedAmount(offerId, holderIdentity).sub(holdingStorage.getHolderPaidAmount(offerId, holderIdentity)),\n            \"Replacement holder does not have stake available to take this job!\");\n        require(profileStorage.getStake(replacementHolderIdentity[block.timestamp % 3]) >= Profile(hub.getContractAddress(\"Profile\")).minimalStake(),\n            \"Replacement holder does not have the minimal required stake available to take any new job!\");\n        \n        require(holdingStorage.getHolderStakedAmount(offerId, replacementHolderIdentity[block.timestamp % 3]) == 0, \n            \"Replacement holder was or is already a holder for this data, cannot be set as a new holder!\");\n    \n        setUpHolders(offerId, holderIdentity, litigatorIdentity, replacementHolderIdentity[block.timestamp % 3]);\n        // Set litigation status\n        litigationStorage.setLitigationStatus(offerId, holderIdentity, LitigationStorage.LitigationStatus.replaced);\n        emit ReplacementCompleted(offerId, litigatorIdentity, replacementHolderIdentity[block.timestamp % 3]);\n    }\n\n    function checkTask(bytes32 offerId, address[] replacementHolderIdentity, address holderIdentity, uint256 shift)\n    internal {\n        LitigationStorage litigationStorage = LitigationStorage(hub.getContractAddress(\"LitigationStorage\"));\n\n        bytes32[3] memory hashes;\n\n        hashes[0] = keccak256(abi.encodePacked(replacementHolderIdentity[0], litigationStorage.getLitigationReplacementTask(bytes32(offerId), holderIdentity)));\n        hashes[1] = keccak256(abi.encodePacked(replacementHolderIdentity[1], litigationStorage.getLitigationReplacementTask(bytes32(offerId), holderIdentity)));\n        hashes[2] = keccak256(abi.encodePacked(replacementHolderIdentity[2], litigationStorage.getLitigationReplacementTask(bytes32(offerId), holderIdentity)));\n\n        require(uint256(hashes[0]) < uint256(hashes[1]) && uint256(hashes[1]) < uint256(hashes[2]), \"Solution hashes are not sorted!\");\n\n        // Verify task answer\n        require(((keccak256(abi.encodePacked(hashes[0], hashes[1], hashes[2])) >> (shift * 4)) & bytes32((2 ** (4 * litigationStorage.getLitigationReplacementDifficulty(bytes32(offerId), holderIdentity))) - 1)) == litigationStorage.getLitigationReplacementTask(bytes32(offerId), holderIdentity), \"Submitted identities do not answer the task correctly!\");\n    }\n\n    function setUpHolders(bytes32 offerId, address holderIdentity, address litigatorIdentity, address replacementHolderIdentity)\n    internal {\n        ProfileStorage profileStorage = ProfileStorage(hub.getContractAddress(\"ProfileStorage\"));\n        HoldingStorage holdingStorage = HoldingStorage(hub.getContractAddress(\"HoldingStorage\"));\n\n        holdingStorage.setHolderLitigationEncryptionType(offerId, replacementHolderIdentity, holdingStorage.getHolderLitigationEncryptionType(offerId, holderIdentity));\n\n        uint256 newStakedAmount = holdingStorage.getHolderStakedAmount(offerId, holderIdentity).sub(holdingStorage.getHolderPaidAmount(offerId, holderIdentity));\n        // Reserve new holder stake in their profile\n        profileStorage.setStakeReserved(\n            replacementHolderIdentity,\n            profileStorage.getStakeReserved(replacementHolderIdentity).add(newStakedAmount)\n        );\n        \n        // Remove the previous holder's stake and move it to the litigator\n        // Remove holder stake from reserved\n        profileStorage.setStakeReserved(\n            holderIdentity,\n            profileStorage.getStakeReserved(holderIdentity).sub(holdingStorage.getHolderStakedAmount(offerId, holderIdentity))\n        );\n        // Remove holder stake\n        profileStorage.setStake(\n            holderIdentity,\n            profileStorage.getStake(holderIdentity).sub(holdingStorage.getHolderStakedAmount(offerId, holderIdentity))\n        );\n        // Add stake to litigator\n        profileStorage.setStake(\n            litigatorIdentity,\n            profileStorage.getStake(litigatorIdentity).add(holdingStorage.getHolderStakedAmount(offerId, holderIdentity))\n        );\n        \n        // Set new holder staked amounts\n        holdingStorage.setHolderStakedAmount(offerId, replacementHolderIdentity, newStakedAmount);\n      \n        // Set payment timestamps for new holders\n        holdingStorage.setHolderPaymentTimestamp(offerId, replacementHolderIdentity, block.timestamp);\n    }\n\n    function ecrecovery(bytes32 hash, bytes sig) internal pure returns (address) {\n        bytes32 r;\n        bytes32 s;\n        uint8 v;\n\n        if (sig.length != 65)\n          return address(0);\n\n        bytes memory prefix = \"\\x19Ethereum Signed Message:\\n32\";\n        bytes32 prefixedHash = keccak256(abi.encodePacked(prefix, hash));\n    \n        // The signature format is a compact form of:\n        //   {bytes32 r}{bytes32 s}{uint8 v}\n        // Compact means, uint8 is not padded to 32 bytes.\n        assembly {\n            r := mload(add(sig, 32))\n            s := mload(add(sig, 64))\n\n            // Here we are loading the last 32 bytes. We exploit the fact that\n            // 'mload' will pad with zeroes if we overread.\n            // There is no 'mload8' to do this, but that would be nicer.\n            v := byte(0, mload(add(sig, 96)))\n        }\n\n        // geth uses [0, 1] and some clients have followed. This might change, see:\n        //  https://github.com/ethereum/go-ethereum/issues/2053\n        if (v < 27) v += 27;\n\n        if (v != 27 && v != 28) return address(0);\n\n        return ecrecover(prefixedHash, v, r, s);\n    }\n\n    function logs2(uint x) internal pure returns (uint y){\n        require(x > 0, \"log(0) not allowed\");\n        assembly {\n            let arg := x\n            x := sub(x,1)\n            x := or(x, div(x, 0x02))\n            x := or(x, div(x, 0x04))\n            x := or(x, div(x, 0x10))\n            x := or(x, div(x, 0x100))\n            x := or(x, div(x, 0x10000))\n            x := or(x, div(x, 0x100000000))\n            x := or(x, div(x, 0x10000000000000000))\n            x := or(x, div(x, 0x100000000000000000000000000000000))\n            x := add(x, 1)\n            let m := mload(0x40)\n            mstore(m,           0xf8f9cbfae6cc78fbefe7cdc3a1793dfcf4f0e8bbd8cec470b6a28a7a5a3e1efd)\n            mstore(add(m,0x20), 0xf5ecf1b3e9debc68e1d9cfabc5997135bfb7a7a3938b7b606b5b4b3f2f1f0ffe)\n            mstore(add(m,0x40), 0xf6e4ed9ff2d6b458eadcdf97bd91692de2d4da8fd2d0ac50c6ae9a8272523616)\n            mstore(add(m,0x60), 0xc8c0b887b0a8a4489c948c7f847c6125746c645c544c444038302820181008ff)\n            mstore(add(m,0x80), 0xf7cae577eec2a03cf3bad76fb589591debb2dd67e0aa9834bea6925f6a4a2e0e)\n            mstore(add(m,0xa0), 0xe39ed557db96902cd38ed14fad815115c786af479b7e83247363534337271707)\n            mstore(add(m,0xc0), 0xc976c13bb96e881cb166a933a55e490d9d56952b8d4e801485467d2362422606)\n            mstore(add(m,0xe0), 0x753a6d1b65325d0c552a4d1345224105391a310b29122104190a110309020100)\n            mstore(0x40, add(m, 0x100))\n            let magic := 0x818283848586878898a8b8c8d8e8f929395969799a9b9d9e9faaeb6bedeeff\n            let shift := 0x100000000000000000000000000000000000000000000000000000000000000\n            let a := div(mul(x, magic), shift)\n            y := div(mload(add(m,sub(255,a))), shift)\n            y := add(y, mul(256, gt(arg, 0x8000000000000000000000000000000000000000000000000000000000000000)))\n        }\n    }\n\n\n}\n",
  "sourcePath": "/Users/uroskukic/Documents/Projects/Starfleet/builders-demo/truffle/contracts/Replacement.sol",
  "compiler": {
    "name": "solc",
    "version": "0.4.26+commit.4563c3fc.Emscripten.clang"
  },
  "schemaVersion": "3.3.3",
  "updatedAt": "2021-01-28T12:36:03.987Z",
  "devdoc": {
    "methods": {}
  },
  "userdoc": {
    "methods": {}
  }
}